:100000000C9432020C9458210C9485210C94B2214A
:100010000C94DF210C945A020C945A020C940C227A
:100020000C945A020C945A020C94312E0C94E32C2A
:100030000C945A020C945A020C945A020C945A02D0
:100040000C945A020C945A020C945A020C945A02C0
:100050000C94EF050C945A020C945A020C94C6228C
:100060000C945A020C944E260C9491260C945A022D
:100070000C945A020C945A020C945A020C945A0290
:100080000C94D82A0C945A020C945A020C9416061A
:100090000C945A020C945A020C945A020C945A0270
:1000A0000C945A020C945A020C945A025F22642255
:1000B00069227322BD22BD22BD227D228722912288
:1000C0009B22A822BD22B022DB23DE23D123D5230D
:1000D000FF23FF23FF23E223E623EA23F023F42375
:1000E000FF23FA233C00FF0F3200B80B2800600901
:1000F0001E00D007140008070000000200080E00D0
:1001000000030401000B00000000000000000000DC
:100110000000000000000408020110408040102090
:1001200040804080080204018040201002011080BD
:1001300010204040040404040403040502020202E7
:100140000403020202020606060606060404020270
:100150000204000000002300260029002C002F00CC
:1001600000000000250028002B002E0031000000B8
:100170000000240027002A002D003000080B000298
:10018000020201000904000001020200000524002F
:1001900010010524010101042402060524060001C2
:1001A0000705810310004009040100020A00000055
:1001B000070502024000000705830240000000001E
:1001C0000000000000002A2B2800000000000000B2
:1001D00000000000000000000000000000002C9E55
:1001E000B4A0A1A2A434A6A7A5AE362D3738271EE9
:1001F0001F20212223242526B333B62EB7B89F848F
:1002000085868788898A8B8C8D8E8F909192939426
:1002100095969798999A9B9C9D2F3130A3AD350464
:1002200005060708090A0B0C0D0E0F101112131406
:1002300015161718191A1B1C1DAFB1B0B50009040B
:1002400002000103000000092101010001226500F4
:100250000705840340000105010902A1010901A16C
:10026000008501050919012903150025019503756C
:1002700001810295017505810305010930093109E4
:10028000381581257F750895038106C0C0050109D1
:1002900006A1018502050719E029E715002501756A
:1002A0000195088102950175088103950675081569
:1002B0000025650507190029658100C000C18081FE
:1002C000C1120100020200004041233680000101FA
:1002D00002000112010002000000404123368000AC
:1002E00001010200011803410072006400750069F9
:1002F000006E006F0020004C004C004300220341C0
:100300000072006400750069006E006F0020004CF0
:100310000065006F006E006100720064006F0004F1
:100320000309044E414E494E495459494E46CDCCDD
:10033000CC3D0AD7233C17B7D13877CC2B329595D3
:10034000E6241FB14F0A000020410000C8420040CF
:100350001C4620BCBE4CCA1B0E5AAEC59D74004044
:100360007A10F35A00A0724E18090010A5D4E800C4
:1003700000E87648170000E40B54020000CA9A3BDC
:10038000000000E1F5050000809698000000404262
:100390000F000000A08601000000102700000000F0
:1003A000E803000000006400000000000A000000F4
:1003B00000000100000000002C76D888DC674F08A0
:1003C00023DFC1DFAE59E1B1B796E5E3E453C63AA6
:1003D000E651997696E8E6C28426EB898C9B62ED1D
:1003E000407C6FFCEFBC9C9F40F2BAA56FA5F490D7
:1003F000055A2AF75C936B6CF9676DC11BFCE0E44E
:100400000D47FEF520E6B500D0ED902E03009435A3
:1004100077050080841E080000204E0A000000C8F6
:100420000C333333330F986E12831141EF8D211447
:10043000893BE65516CFFEE6DB18D1844B381BF717
:100440007C1D901DA4BBE424203284725E228100B6
:10045000C9F124ECA1E53D272E219F25CC26582863
:100460009F28542111241FBECFEFDAE0DEBFCDBF9D
:1004700012E0A0E0B1E0E2EEF2E702C005900D92DA
:10048000A63CB107D9F714E0A6ECB2E001C01D927A
:10049000A53DB107E1F714E0C2E6D4E004C022971D
:1004A000FE010E94DD2EC835D107C9F70E94AE2893
:1004B0000C9464390C940000CB010C949934CB015A
:1004C000642F0C94A134CF93DF93EC0160E08E8114
:1004D0000E94392481E090E00E94662361E08E81D1
:1004E0000E94392481E090E00E94662360E08E81C2
:1004F0000E94392484E690E0DF91CF910C9466232A
:10050000CF92DF92EF92FF920F931F93CF93DF93DF
:100510007C01C0E0D0E0C62ED12C87010C0F1D1F3E
:1005200061E0F80187810E940024B6010C2E02C010
:10053000759567950A94E2F76170F80187810E94CA
:1005400039242196C430D10541F7C701DF91CF91FD
:100550001F910F91FF90EF90DF90CF900C9463026A
:10056000CF92DF92EF92FF920F931F93CF93DF937F
:100570007C01C0E0D0E0C62ED12C87010C0F1D1FDE
:1005800061E0F80187810E940024B6010C2E02C0B0
:10059000759567950A94E2F76170F80187810E946A
:1005A00039242196C830D10541F7C701DF91CF9199
:1005B0001F910F91FF90EF90DF90CF900C9463020A
:1005C0001F93CF93DF93EC01162F642F8C810E9431
:1005D00039248D818F3F19F060E00E9439248F8586
:1005E000612F84FF06C0CE01DF91CF911F910C9443
:1005F000B00270E084E0759567958A95E1F7CE01C9
:100600000E948002612FCE01DF91CF911F910C9447
:10061000800240E00C94E00261E00E94090380ED5A
:1006200097E00C946623CF93DF93CDB7DEB728977E
:100630000FB6F894DEBF0FBECDBF28E0E4E1F1E0D5
:10064000DE01119601900D922A95E1F7FC012389B4
:10065000421710F04FEF420FFE013196E40FF11DEB
:10066000E40FF11D2081260F2068622F28960FB617
:10067000F894DEBF0FBECDBFDF91CF910C9409037C
:10068000FC016089262F2460208B6C600C94090388
:10069000CF93DF93EC01423018F08F8588608F870D
:1006A0004B8B1C8A222329F0413019F48F858460FA
:1006B0008F8780E593EC0E94662360E08C810E9426
:1006C000392460E08E810E9439248D818F3F19F09A
:1006D00060E00E9439246F8564FD1DC063E0CE0197
:1006E0000E94800284E991E10E94662363E0CE01CA
:1006F0000E94800284E991E10E94662363E0CE01BA
:100700000E94800286E990E00E94662362E0CE01AA
:100710000E94800216C06062CE010E94090384E933
:1007200091E10E9466236F856062CE010E940903F9
:1007300086E990E00E9466236F856062CE010E9488
:1007400009036F856062CE010E94090384E0888BF3
:10075000CE010E944003CE010E940C0382E0898BEF
:1007600066E0CE01DF91CF910C9409036F927F92E6
:100770008F92AF92CF92EF920F931F93CF93DF930D
:10078000CDB7DEB73C01162F842F5D854E853F85A2
:100790009889F301848325830683E782C086A18636
:1007A0008286538744873587968761E00E940024BC
:1007B000F30185818F3F19F061E00E94002461E020
:1007C000F30186810E940024112319F0F30117869A
:1007D00003C080E1F301878720E041E060E1C301CD
:1007E000DF91CF911F910F91EF90CF90AF908F90AD
:1007F0007F906F900C9448038F92AF92CF92EF92BC
:100800000F93DC0113961C921E921297E0E2F1E026
:10081000ED93FC931F921F921F921F928C2CAE2C73
:10082000C02EE22E042F2FEF462F61E00E94B60368
:100830000F900F900F900F900F91EF90CF90AF907F
:100840008F900895CF92DF92EF92FF920F931F93B4
:10085000CF93DF9300D0CDB7DEB78C01677088E00F
:10086000689FB00111246064C80149835A830E94C3
:1008700009034981C42E5A81D52EE12CF12CD601D1
:100880006D916D01D801ED91FC910190F081E02D09
:10089000C8010995BFEFEB1AFB0AE8E0EE16F10478
:1008A00071F70F900F90DF91CF911F910F91FF90F3
:1008B000EF90DF90CF90089541E00E94E00281E048
:1008C00090E0089561E081E10E94392461E081E1D6
:1008D0000E9400248CB580618CBD8CB580648CBD79
:1008E00061E08FE00E94002461E080E10C9400242C
:1008F000811103C08CB5806202C08CB58F7D8CBD28
:1009000008959CB5937F982B9CBD08952CB5982F86
:1009100093702C7F922B9CBD9DB582FB882780F91C
:100920009E7F982B9DBD0895EF920F931F93CF93B9
:10093000DF93EC01862F688349832A83EB821D8233
:100940001C821F821E8208871A8619861C861B86B7
:1009500091E09D879E87E11002C012E001C010E087
:10096000612F0E940024612F89810E940024612F41
:100970008A810E94002488810E946F242B8130E0AC
:100980008217930721F483E090E09F838E8389810F
:100990000E946F242B8130E08217930731F48E81FF
:1009A0009F8121E082279F838E83DF91CF911F91CA
:1009B0000F91EF900895CF92DF92EF92FF921F93E5
:1009C000CF93DF93EC010E9410236B017C018E8595
:1009D000882359F089859A8502979A87898789851E
:1009E0009A8597FF02C01A86198688810E946F2413
:1009F0002B8130E08217930711F010E001C013E063
:100A000089810E946F242B8130E08217930711F4B3
:100A100081E018272E813F81211B20FF14C0812FE8
:100A2000992787FD90959F838E838C819D8122706D
:100A3000332727FD309521503109820F931F9D8365
:100A40008C8381E001C080E09E85992361F088233A
:100A500051F089859A85883E9B4028F489859A853E
:100A600049969A8789878091C9029091CA02A0917C
:100A7000CB02B091CC02B701A601481B590B6A0BFF
:100A80007B0B4A3051056105710508F45DC0C092C9
:100A9000C902D092CA02E092CB02F092CC028A81C3
:100AA0000E946F242B8130E08217930781F480919C
:100AB000C7029091C80201969093C8028093C70222
:100AC0008937910520F083E090E09C878B878A81AD
:100AD0000E946F242B8131E0232730E08217930797
:100AE00031F58091C7029091C802892BE1F08B8586
:100AF0009C85039719F484E090E008C08091C602B9
:100B0000823048F08C3378F486E090E09C878B87C5
:100B10001092C60208C08D85882311F08CE301C0B5
:100B200081E08093C6021092C8021092C7028091A1
:100B3000C602882349F082508093C602811104C006
:100B400085E090E09C878B87DF91CF911F91FF908C
:100B5000EF90DF90CF900895FC01F89424813581C7
:100B60008085823021F4C9018170992705C08430C5
:100B700031F4C901837099279583848302C015825B
:100B8000148278948085843029F43595279535959D
:100B9000279504C0823011F43595279586858823E2
:100BA00029F081859285892F992702C080E090E005
:100BB00037FF03C0809590950895232B11F001967F
:100BC000089580E090E00895FC0183859485238555
:100BD00034852330310511F01486138608951F9251
:100BE0000F920FB60F9211242F933F934F935F9361
:100BF0006F937F938F939F93AF93BF93EF93FF93E5
:100C0000E091D202F091D3020995FF91EF91BF914B
:100C1000AF919F918F917F916F915F914F913F9194
:100C20002F910F900FBE0F901F9018951F920F924B
:100C30000FB60F9211242F933F934F935F936F93AF
:100C40007F938F939F93AF93BF93EF93FF93E09125
:100C5000CD02F091CE020995FF91EF91BF91AF9136
:100C60009F918F917F916F915F914F913F912F91C4
:100C70000F900FBE0F901F901895F894E091DC0232
:100C8000F091DD02DF01A658BF4F8C91E558FF4F70
:100C9000882321F0808191E0892704C0808181111F
:100CA00002C081E0808378940895FC0182A993A911
:100CB0008623972341E0892B09F440E061157140B8
:100CC00019F464E070E002C065E070E087ED92E046
:100CD0000C945F028EBD0DB407FEFDCF8EB5089556
:100CE000682F80EB93E00C940129BC0180EB93E02A
:100CF0000C94FF289A01AB01BC0180EB93E00C94AB
:100D0000C42A9A01AB01BC0180EB93E00C94C62A83
:100D10000F931F93CF93DF93CDB7DEB7A0970FB696
:100D2000F894DEBF0FBECDBF242F4C3008F02BE06F
:100D30008E010F5F1F4F41E00E940031FC010190C6
:100D40000020E9F731972E2F281B822FA0960FB68F
:100D5000F894DEBF0FBECDBFDF91CF911F910F91F1
:100D60000895FC0180A591A5019771F481E063309D
:100D7000710519F0672B31F004C022A133A1232B98
:100D800009F080E090E008956330710509F462A1F4
:100D9000442339F0862F90E08230910544F4019687
:100DA0000895662339F0862F90E00197089580E03A
:100DB00090E0089582E090E00895CF93DF93EC01F6
:100DC00088A199A1019731F40E9410236EA77FA7F3
:100DD00088AB99ABDF91CF910895CF93DF93EC016E
:100DE0000E9410236AA77BA78CA79DA7DF91CF91B4
:100DF00008950F931F93CF93DF93EC018AA986FF89
:100E00001FC084FD14C00E9410230AA51BA52CA599
:100E10003DA5601B710B820B930B61367A4E8105E9
:100E2000910528F08AA99BA980619BAB8AAB8AA90E
:100E30009BA924E0969587952A95E1F7817001C0DA
:100E400080E0DF91CF911F910F910895DC01D29640
:100E5000ED91FC91D397442339F0E62BF72BD396F1
:100E6000FC93EE93D29708C09B01209530952E23DA
:100E70003F23FC0133AB22AB6115F1E07F0719F092
:100E80006034710511F40C945506089560E070E02B
:100E900087ED92E00E945C028F3011F080E00895AF
:100EA00061E070E087ED92E00E945C028E30B1F765
:100EB00062E070E087ED92E00E945C028E3071F794
:100EC00063E070E087ED92E00E945C0291E08D307B
:100ED00009F090E0892F08954FE060E070E087ED21
:100EE00092E00E945F024EE061E070E087ED92E0E8
:100EF0000E945F024EE062E070E087ED92E00E94A7
:100F00005F024DE063E070E087ED92E00C945F02D9
:100F1000FC0184A995A9442319F0682B792B04C0FE
:100F2000609570956823792375AB64AB0895462F5F
:100F300060E070E10C948807FC0184A995A99B01ED
:100F400028233923232B59F4442319F0682B792BB8
:100F500004C0609570956823792375AB64AB0895E0
:100F6000FC0122A133A173A362A3411106C041E099
:100F70002617370719F440E001C041E060E071E056
:100F80000C949C07FC0120A531A571A760A741E046
:100F90002617370709F440E060E072E00C949C07E4
:100FA0000F931F93CF93DF93EC010CA11DA12EA1F2
:100FB0003FA14CA35DA36EA37FA381E00417150797
:100FC0002607370709F480E0482F60E074E0CE017F
:100FD0000E949C07CE01DF91CF911F910F910C943D
:100FE000ED060F931F93CF93DF93EC010CA11DA18E
:100FF0002EA13FA1400F511F621F731F4CA35DA381
:101000006EA37FA381E0041715072607370709F4AD
:1010100080E0482F60E074E0CE010E949C07CE0182
:10102000DF91CF911F910F910C94ED06CF93DF9339
:10103000EC0188A199A179A368A341E086179707DD
:1010400009F440E060E078E0CE010E949C0788A1AE
:1010500099A1019719F40E94102303C060E070E089
:10106000CB016EA77FA788AB99ABDF91CF91089595
:101070000F931F93CF93DF93EC0188A199A1019760
:10108000C1F40E9410230EA51FA528A939A9601B31
:10109000710B820B930B693B7B408105910548F0F6
:1010A00060E070E0CE01DF91CF911F910F910C9421
:1010B0001608DF91CF911F910F9108952F923F92C3
:1010C0004F925F926F927F928F929F92AF92BF9258
:1010D000CF92DF92EF92FF920F931F93CF93DF9304
:1010E00000D000D0CDB7DEB79A8389833B015C8303
:1010F0004B831801290120E030E0A901C201B101B0
:101100000E94462F87FD28C0A5019401C201B101AC
:101110000E94953018161CF16A94672811F4F701A3
:1011200001C0F601608171818281938120823182C8
:101130004282538211E0A20191010E94462F811147
:1011400001C010E0412F6B817C8189819A810E94CE
:101150009C0782E090E005C081E090E002C080E062
:1011600090E00F900F900F900F90DF91CF911F9113
:101170000F91FF90EF90DF90CF90BF90AF909F9036
:101180008F907F906F905F904F903F902F90089539
:101190008F929F92AF92BF92CF92DF92EF92FF9287
:1011A0000F931F93F9016C012AE0C20ED11C7C0140
:1011B00026E0E20EF11CE130F10519F4A2E0B0E006
:1011C00002C0A4E0B0E01DE3812E1AE0912E1BEFD7
:1011D000A12E10E4B12E8A019B01AD01BF010E9436
:1011E0005E081F910F91FF90EF90DF90CF90BF901E
:1011F000AF909F908F9008958F929F92AF92BF92E1
:10120000CF92DF92EF92FF920F931F93CF93DF93D2
:10121000EC017C012EE0E20EF11CFFE68F2EF2E1E4
:101220009F2EF3E0AF2EF1E4BF2E67018A019B01F0
:1012300048E050E061E070E00E945E088C0182307E
:10124000910509F0B1C0CE84DF84E888F98820E0F8
:1012500030E0A901C701B6010E94462FFE01EA5AFB
:10126000FF4F81111AC08081882309F49DC010822C
:1012700085E08093CF0280E09AEF9093D102809333
:10128000D002909397008093960085E1809391001F
:10129000C95ADF4F81E0888387C08081811102C0F5
:1012A00081E0808320E030E04AE754E4C701B601E2
:1012B0000E94993020E030E04AE754E40E949930DF
:1012C0000E94B72FE3E0660F771F881F991FEA95EA
:1012D000D1F76115710521E08207910540F421E005
:1012E0002093CF027093D1026093D00250C0611559
:1012F000710528E08207910568F422E02093CF026F
:10130000DC01CB0153E0B695A795979587955A9543
:10131000D1F739C06115710520E48207910568F4A1
:1013200023E02093CF02DC01CB0146E0B695A795E0
:10133000979587954A95D1F726C061157105810566
:1013400021E0920740F424E02093CF02BB27A92F8D
:10135000982F872F18C061157105810524E0920729
:1013600068F425E02093CF02DC01CB012AE0B6959A
:10137000A795979587952A95D1F705C085E0809325
:10138000CF028FEF9FEF9093D1028093D002809194
:10139000D0029091D1029093970080939600809113
:1013A000CF02806180939100C801DF91CF911F919E
:1013B0000F91FF90EF90DF90CF90BF90AF909F90F4
:1013C0008F9008958F929F92AF92BF92CF92DF92AB
:1013D000EF92FF920F931F93F9016C0126E1C20E69
:1013E000D11C7C0122E1E20EF11CE130F10519F47F
:1013F000A0E2B0E002C0A0E4B0E01EEA812E17E453
:10140000912E1CE3A12E13E4B12E8A019B01AD01A4
:10141000BF010E945E081F910F91FF90EF90DF9037
:10142000CF90BF90AF909F908F9008958F929F9292
:10143000AF92BF92CF92DF92EF92FF92CF93DF9362
:10144000EC014A015B01CA80DB80EC80FD80213029
:10145000310509F4DDC02230310509F4B0C0232B79
:1014600009F0CCC121E030E00E94C808009771F07B
:101470000197E1F421E030E040E050E0BA01CE0114
:101480000E94C80840E050E0BA010DC021E030E001
:101490004DE35AE06BEF70E4CE010E94C80842E5CC
:1014A0005FE060E070E0CE010E94D00720E030E015
:1014B0004AE754E4C701B6010E944A2F20E030E019
:1014C0004AE754E40E9499306B017C0120E030E04F
:1014D0004AE754E46E817F81888599850E944A2F6E
:1014E00020E030E04AE754E40E9499309B01AC01CF
:1014F000C701B6010E94993020E030E04AE754E489
:101500000E944A2F20E030E04AE754E40E949930DC
:10151000AB01BC0121E030E0CE010E94E209892B41
:1015200009F06CC1A70196016EEA77E48CE393E4BD
:101530000E944A2F20E030E04AE754E40E944A2FFC
:1015400020E030E04AE754E40E949930AB01BC014E
:1015500021E030E0CE010E94C80820E030E04AE7F8
:1015600054E46E817F81888599850E944A2F20E00E
:1015700030E04AE754E40E9499304B015C019B0142
:10158000AC01C701B6010E94993020E030E04AE783
:1015900054E40E944A2F20E030E04AE754E40E94DD
:1015A0009930AB01BC0121E030E0CE010E94E2099C
:1015B00020E030E04AEF53E4C501B401BCC00E9412
:1015C000FC080097C9F0019709F018C140E050E00D
:1015D000BA01CE010E94FC0840E050E0BA01CE0101
:1015E000DF91CF91FF90EF90DF90CF90BF90AF90C1
:1015F0009F908F900C94D0074FE652E163E071E426
:10160000CE010E94FC0840E050E260E070E0E7CFCD
:1016100020E030E0A901C701B6010E94462F8111E8
:101620000CC020E030E0A901C501B4010E94953052
:1016300018161CF4812C912C540121E030E0B501E6
:10164000A401CE010E94E209009791F0019709F0F0
:1016500085C021E030E040E050E0BA01CE010E94B8
:10166000E20940E050E0BA01CE010E94D00776C006
:1016700021E030E04EEA57E46CE373E4CE010E94CF
:10168000E20920E030E0A901C701B6010E949530CF
:101690001816ACF520E030E04AE754E46A897B890B
:1016A0008C899D890E944A2F20E030E04AE754E46B
:1016B0000E9499304B015C0120E030E04AE754E49D
:1016C000C701B6010E944A2F20E030E04AE754E407
:1016D0000E9499309B01AC01C501B4010E944A2FC0
:1016E00020E030E04AE754E40E944A2F20E030E056
:1016F0004AE754E40E949930AB01BC0103C040E0CA
:1017000050E0BA0121E030E0CE010E94C80820E09C
:1017100030E04AE754E46A897B898C899D890E947C
:101720004A2F20E030E04AE754E40E94993020E05C
:1017300030E04AE754E40E94993020E030E04AE784
:1017400054E40E944A2F20E030E04AE754E40E942B
:1017500099300E94B22FAB01BC0141CF20E030E0B4
:10176000A901C701B6010E9495301816ACF520E01A
:1017700030E04AE754E46A897B898C899D890E941C
:101780004A2F20E030E04AE754E40E9499304B01B0
:101790005C0120E030E04AE754E4C701B6010E9452
:1017A0004A2F20E030E04AE754E40E9499309B0140
:1017B000AC01C501B4010E944A2F20E030E04AE7A5
:1017C00054E40E944A2F20E030E04AE754E40E94AB
:1017D0009930AB01BC0103C040E050E0BA0121E008
:1017E00030E0CE01DF91CF91FF90EF90DF90CF906E
:1017F000BF90AF909F908F900C94C808DF91CF91CD
:10180000FF90EF90DF90CF90BF90AF909F908F9020
:101810000895CF93DF93EC018AA99BA98623972390
:10182000892B21F441E0CE010E94260721E030E01F
:1018300040E050E0BA01CE010E94C80821E030E04B
:1018400040E050E0BA01CE010E94E20940E050E0E1
:10185000BA01CE010E94D0078CA99DA99B7F9DABA8
:101860008CABDF91CF910895CF93DF93EC018A8DFC
:101870009B8D7B8F6A8F41E08617970709F440E0C4
:1018800060E870E0CE010E949C078A8D9B8D8135B7
:10189000910538F060E070E4CE01DF91CF910C94B7
:1018A000090C8AA99BA996FF03C09F7B9BAB8AABBF
:1018B000DF91CF9108958F929F92AF92BF92CF9276
:1018C000DF92EF92FF920F931F93CF93DF93EC0180
:1018D0007C0182E0E80EF11C812C912C00ECA02E02
:1018E00001E4B02E67018A019B0141E050E060E015
:1018F00070E0CE010E945E088C01009729F460E040
:1019000074E0CE010E94090CC801DF91CF911F91B4
:101910000F91FF90EF90DF90CF90BF90AF909F908E
:101920008F900895FB0180E06CE8415088F0519160
:1019300098E0752F7827282F30E035952795822F4E
:1019400070FF02C0862F82275695915091F7EDCFF8
:1019500008952F923F924F925F926F927F928F9253
:101960009F92AF92BF92CF92DF92EF92FF920F932E
:101970001F93CF93DF93CDB7DEB762970FB6F8947E
:10198000DEBF0FBECDBF4C017B016A018E01035F3C
:101990001F4FCE0101962C011E0191E1290E311C31
:1019A0001A8B098B52013B01601A710AB301600F57
:1019B000711F87ED92E00E945C02F80181938F0114
:1019C000F20181932F010215130581F78E01075F44
:1019D0001F4F2E01F5E04F0E511C37016A187B088E
:1019E000B301640D751D87ED92E00E945C02F80161
:1019F00081938F01F20181932F0189899A890817B8
:101A0000190771F7B701685F7F4F87ED92E00E9479
:101A10005C02182F48E0B501C4010E94920C181313
:101A200011C08D859E85AF85B889F601808391832D
:101A3000A283B38389859A85AB85BC85848395838E
:101A4000A683B78362960FB6F894DEBF0FBECDBFF4
:101A5000DF91CF911F910F91FF90EF90DF90CF908A
:101A6000BF90AF909F908F907F906F905F904F90BE
:101A70003F902F900895EF92FF920F931F93CF9373
:101A8000DF937C018C010A5C1F4FC6E0D0E0A80107
:101A9000BE01C7010E94A90C2996085F1F4FCA32D8
:101AA000D105A9F7DF91CF911F910F91FF90EF9092
:101AB00008952F923F924F925F926F927F928F92F2
:101AC0009F92AF92BF92CF92DF92EF92FF920F93CD
:101AD0001F93CF93DF93CDB7DEB76B970FB6F89414
:101AE000DEBF0FBECDBF5C016B01E98AFA8A0B8BAA
:101AF0001C8B2D8B3E8B4F8B588F89899A89AB8994
:101B0000BC898D879E87AF87B88B8D899E89AF8969
:101B1000B88D89879A87AB87BC87C5010E94460725
:101B2000882309F44BC07E018DE0E80EF11C8E0184
:101B30000F5F1F4F28014E01E5E08E0E911C17012B
:101B4000098F1A8F36016E187F08B3016E0D7F1D45
:101B5000F70121917F01422F87ED92E02B8F0E94A8
:101B60005F022B8DF80121938F01E815F90569F7C4
:101B70007E01F9E0EF0EF11C460184189508F7018B
:101B800071907F01B401600F711F472D87ED92E0C6
:101B90000E945F02F80171928F01E214F30479F759
:101BA00048E0698D7A8DC5010E94920CB601685F8C
:101BB0007F4F482F87ED92E00E945F026B960FB631
:101BC000F894DEBF0FBECDBFDF91CF911F910F9173
:101BD000FF90EF90DF90CF90BF90AF909F908F904D
:101BE0007F906F905F904F903F902F900895AF92AD
:101BF000BF92CF92DF92EF92FF920F931F93CF93FA
:101C0000DF935C01C12CD12CC6E0D0E0D60193E07B
:101C1000AA0FBB1F9A95E1F7AA0DBB1DFD01F69611
:101C2000D696EC90F1800281138124813581468122
:101C30005781BE01C5010E94590D29968FEFC81A20
:101C4000D80ACA32D10511F7DF91CF911F910F91B8
:101C5000FF90EF90DF90CF90BF90AF900895CF931B
:101C6000DF93EC010E946C0741E064E070E087EDD7
:101C700092E00E945F0241E065E070E087ED92E053
:101C80000E945F02CE01DF91CF910C94F70DCF93AC
:101C9000DF93EC010E944607811103C0CE010E9430
:101CA0002F0E64E070E087ED92E00E945C0241E05C
:101CB000813009F040E060E071E0CE010E9426072B
:101CC00065E070E087ED92E00E945C0241E08130C7
:101CD00009F040E060E470E0CE010E942607CE01EA
:101CE000DF91CF910C943B0DCF93DF93EC011882E1
:101CF0008FEF89831A821B821C821D821E821F82A3
:101D0000188619861A861B861C861D861E861F86C7
:101D1000188A198A1A8A1B8A1C8A1D8A1E8A1F8A97
:101D2000188E198E1B8E1A8E8FEF90E09D8F8C8FE0
:101D30009F8F8E8F19A218A21BA21AA21CA21DA2ED
:101D40001EA21FA219A618A61AA61BA61CA61DA68F
:101D50001EA61FA618AA19AA1BAA1AAA8FEF9FEFE0
:101D60009DAB8CABFE01EA5AFF4F1082FE01E95A8F
:101D7000FF4F81E0808340E050E060E87FE34EABBE
:101D80005FAB68AF79AF1AAE1BAE1CAE1DAEFE01E5
:101D9000FE964083518362837383FE01EE5BFF4FA7
:101DA0001082118212821382FE01EA5BFF4F408390
:101DB000518362837383FE01E65BFF4F10821182C1
:101DC00012821382FE01E25BFF4F408351836283E4
:101DD0007383FE01EE5AFF4F10821182128213822A
:101DE000CE010E94470E8CA99DA99F7E9DAB8CAB16
:101DF000DF91CF910895FC012081822F90E003971D
:101E00001CF42F5F2083089510820895FC01208127
:101E100030E081E090E04AE050E021153105A1F08A
:101E200020FF08C0BC01649FC001659F900D749F96
:101E3000900D112435952795FA01EE9FA001EF9F93
:101E4000500D500D1124E9CF0895662321F0633021
:101E5000B0F40C94060F0E94060F8436910599F099
:101E6000883E23E0920729F00A9731F485E090E05C
:101E7000089584EF91E0089581E090E00895FC01D9
:101E8000808190E0089582E390E00895FC01658BE5
:101E9000468B20E00C9448036F927F928F92AF9212
:101EA000CF92EF920F93CF93DF93CDB7DEB73C0184
:101EB0000E94FC038DE692E0F30191838083158AF2
:101EC000168A178A108E482D6A2DC301DF91CF9193
:101ED0000F91EF90CF90AF908F907F906F900C9478
:101EE000460FFC01678B408F0C941303FF920F93F6
:101EF0001F93CF93DF938C01EB01209749F1FB01F6
:101F000001900020E9F73197E61BF70BDC015596AD
:101F10006C916E1738F070E06E1B710975956795BE
:101F2000F62E01C0F12CF801408D6F2DC8010E94E2
:101F3000710FBE01C8010E94FF28FE010190002020
:101F4000E9F73197EC1BFD0BEF0DD8015796EC9399
:101F5000DF91CF911F910F91FF900895FF920F9302
:101F60001F93CF93DF938C01EA01462F64E00E9418
:101F7000710FF4E0FF2E2D968F2D90E0C817D90732
:101F800034F060E2C8010E945C04F394F5CFDF9165
:101F9000CF911F910F91FF9008954F925F926F9292
:101FA0007F928F92AF92CF92EF920F93CF93DF9366
:101FB000CDB7DEB73C012B01642F422F202F0E2D11
:101FC000EC2CCA2CA82C8E840E944C0F85E792E042
:101FD000F30191838083528E418E138E148E158E61
:101FE000168E178E10A211A212A213A2DF91CF910A
:101FF0000F91EF90CF90AF908F907F906F905F9008
:102000004F900895FF920F931F93CF93DF938C010E
:1020100061E08BE00E94002461E08BE00E943924A3
:10202000C9E2D2E0F12CAE016F2DC8010E9422045A
:10203000F394289688E0F812F6CFDF91CF911F91A4
:102040000F91FF900895EF92FF920F931F93CF93FC
:10205000DF93CDB7DEB765970FB6F894DEBF0FBE3E
:10206000CDBF8C010E940C0341E060E0C8010E94DA
:10207000710F64E271E0C8010E94760F1F9286E042
:102080008F931F9282E08F9387E391E09F938F93CA
:102090001F9284E18F93CE0101967C01FF928F9372
:1020A0000E94973243E060E0C8010E94710FB701BF
:1020B000C8010E94760F68EB7BE080E090E00E9410
:1020C00040230FB6F894DEBF0FBECDBF65960FB6A6
:1020D000F894DEBF0FBECDBFDF91CF911F910F915E
:1020E000FF90EF9008956F927F928F929F92AF92A0
:1020F000BF92CF92DF92EF92FF920F931F93CF93F5
:10210000DF93EC014B013901B42ED52E40E050E0B5
:102110006C2D0E94AE0F8114910449F043E0B3018D
:102120008B2D9D2D0E9488066DE0681B01C064E028
:102130004C2DCE010E94710F892819F43701B02E61
:10214000D12E23E030E0A3016B2D7D2DCE010E9426
:10215000C42A6A2DCE01DF91CF911F910F91FF907C
:10216000EF90DF90CF90BF90AF909F908F907F9037
:102170006F900C940129FF920F931F93CF93DF93DD
:102180008C01F62E662319F0C2E0D0E013C0CEEF2A
:10219000D0E010C0CF3FD10598F4BE018BE00E9483
:1021A000392262E070E080E090E00E944023FF204E
:1021B00021F02296FF2011F0EDCF2297209769F7AA
:1021C0006F2D8BE00E94392481E08F25F801838FE9
:1021D000DF91CF911F910F91FF90089560E00C94D3
:1021E000BB1061E00C94BB10CF93DF93EC010E9415
:1021F00010236C8F7D8F8E8F9F8F8B8D882329F07E
:10220000CE01DF91CF910C94F110DF91CF91089521
:102210002F923F924F925F926F927F928F929F92F6
:10222000AF92CF92DF92EF92FF920F931F93CF93D3
:10223000DF9300D000D0CDB7DEB79C838B83FC0149
:10224000618C728C0E941023EB81FC8100A111A192
:1022500022A133A16B017C01C01AD10AE20AF30A60
:1022600097018601A3014A5A5F4F4A01093C1105B3
:102270002105310508F49EC1F301B496FA83E98380
:10228000EB81FC8160A371A382A393A3F301E45BC0
:10229000FF4F80819181009721F0019709F41DC1C2
:1022A00089C12301F8E54F0E511CF2018081918113
:1022B00091FF48C08B819C810E940C0340E061E04B
:1022C0008B819C810E94710F6FE371E08B819C81F7
:1022D0000E94FF2840E06DE08B819C810E94710F7D
:1022E0006FED8B819C810E94012963E471E08B81F9
:1022F0009C810E94FF2841E061E08B819C810E94CB
:10230000710F6DE771E08B819C810E94FF2843E093
:1023100061E08B819C810E94710F67E471E08B8189
:102320009C810E94FF2842E061E08B819C810E9499
:10233000710F6BE471E08B819C810E94FF28DD248A
:10234000D39401C0D12CF201808180FD68C1D110ED
:1023500066C1F201808187FD86C1D11084C1F3017D
:10236000EC5BFF4F20803180F2018081918193FFEF
:1023700005C0977F91838083DD24D3942114310499
:1023800019F424E030E002C022E030E0F201808164
:10239000918182239323892B11F4DD2009F1F3012C
:1023A000E6A4F7A400A911A922A533A544A555A523
:1023B00081E4A82ECC24C394B1018B819C810E941E
:1023C00073102114310409F070C184E090E080950D
:1023D0009095F20120813181822393239183808320
:1023E000F201808183FD64C1D11062C121143104E6
:1023F00019F420E430E002C020E230E0F2018081F4
:10240000918182239323892B11F4DD2001F1F301C3
:10241000E2ACF3AC04AD15AD26A937A940AD51AD82
:10242000A7E5AA2EB2E0CB2EB1018B819C810E9440
:102430007310232809F453C180E290E080959095B1
:10244000F201208131818223932391838083F201E1
:102450008081918188279370892B09F043C1D11025
:1024600041C1F30194A185A1981382C1D11080C10B
:10247000F401808191819C012270332780FF06C086
:10248000232B09F489C1D11087C105C0232B09F082
:102490008FC1D1108DC1F401808191819C01287080
:1024A000332782FF06C0232B09F492C1D11090C1BB
:1024B00005C0232B09F098C1D11096C189819A815A
:1024C0000E94F906882309F4ABC1F401808191814F
:1024D00085FF9AC1D11098C1A3C18B819C810E94B4
:1024E000F41089819A810E94ED068301085A1F4FDA
:1024F000F8018081918191FF2EC08B819C810E9487
:102500000C0340E060E08B819C810E94710F6FE4BE
:1025100071E08B819C810E94FF28F801808191816C
:102520009D7F9183808341E060E08B819C810E944C
:10253000710F68E571E08B819C810E94760F42E00B
:1025400060E08B819C810E94710F64E671E08B8159
:102550009C810E94760FF801808191818827937079
:10256000892B09F00FC210E0F401808191819C0158
:102570002227327090FF06C0232B09F448C21111A4
:1025800046C205C0232B09F04EC211114CC2F40102
:10259000808191819C012078332786FF06C0232B00
:1025A00009F451C211114FC205C0232B09F057C2C3
:1025B000111155C2F4018081918190FF60C2EB81BD
:1025C000FC81838D81115BC20E941023EB81FC8111
:1025D000048D158D268D378D601B710B820B930B2F
:1025E000603C77428940910508F449C28B819C8107
:1025F0000F900F900F900F90DF91CF911F910F913F
:10260000FF90EF90DF90CF90AF909F908F907F9052
:102610006F905F904F903F902F900C94EE104EEF84
:102620005FEF60E08B819C810E94AE0F40E064E030
:102630008B819C810E94710FF30146A157A160A577
:1026400071A523E030E08B819C810E94C42A66E55D
:102650008B819C810E940129F201808191818E7F72
:102660009183808376CE40E061E18B819C810E94E2
:10267000710F6EE671E08B819C810E94FF2840E023
:1026800061E18B819C810E94710FF30166AD77AD92
:102690004AE050E08B819C810E94D329F201808125
:1026A00091818F77918380835ACE82E090E08FCEA4
:1026B000F30122A933A944A955A913E7A12E03E0E8
:1026C000C02E79018A01B1018B819C810E94731017
:1026D000F20180819181877F9183808387CE80E41E
:1026E00090E0ACCEF301EA5BFF4F10811F5F612FDA
:1026F00070E06150710940E089819A810E94B106C1
:1027000001E0080F402F60E08B819C810E94710FD7
:1027100060E28B819C810E940129402F6EE08B81B9
:102720009C810E94710F6FE671E08B819C810E94F9
:10273000FF28412F60E08B819C810E94710F6BE527
:102740008B819C810E940129412F6EE08B819C81AD
:102750000E94710F6DE58B819C810E940129F2011D
:10276000808191819E7F91838083DD24D39479CE73
:10277000F301EA5BFF4F40814F5F6FE08B819C81EB
:102780000E94710FF30164A18B819C810E945C0403
:10279000F30184A185A36CCE8260F40191838083D0
:1027A00043E061E18B819C810E94710F60ED0BC061
:1027B0008D7FF4019183808343E061E18B819C8173
:1027C0000E94710F60E28B819C810E945C0463CE49
:1027D0008860F4019183808343E062E18B819C8176
:1027E0000E94710F64E00BC0877FF40191838083A6
:1027F00043E062E18B819C810E94710F60E28B81DA
:102800009C810E945C045ACE8062F4019183808393
:1028100043E063E18B819C810E94710F65E04EC0B3
:10282000F4018081918184FD04C085FD3CC0D110FC
:102830003AC0F401808191819C012227387092FF77
:1028400006C0232B09F43FC0D1103DC005C0232B87
:1028500009F046C0D11044C0F401808191819C01EF
:102860002227307294FF06C0232B09F44AC0D110EE
:1028700048C005C0232B09F051C0D1104FC0F4014E
:10288000808191819C012227307896FF06C0232BFE
:1028900009F455C0D11053C08DCE232B09F05CC074
:1028A000D1105AC087CE8F7DF4019183808343E09D
:1028B00063E18B819C810E94710F60E28B819C811E
:1028C0000E945C04B6CF9860F4019183808341E05C
:1028D00062E18B819C810E94710F62E771E00CC004
:1028E000977FF4019183808341E062E18B819C8139
:1028F0000E94710F6FE671E08B819C810E94FF281E
:10290000ABCF9062F4019183808342E062E18B81DE
:102910009C810E94710F65E771E00CC09F7DF401FE
:102920009183808342E062E18B819C810E94710FE0
:102930006FE671E08B819C810E94FF28A0CF906898
:10294000F4019183808340E06DE08B819C810E9443
:10295000710F68E771E011C09F77F4019183808364
:1029600040E06DE08B819C810E94710F6FED8B8147
:102970009C810E9401296CEE71E08B819C810E94F8
:10298000FF2818CEF301EA5BFF4FF080F3946F2D20
:1029900070E06150710940E089819A810E94B1061E
:1029A000EE24E394E80E4E2D61E08B819C810E9421
:1029B000710F60E28B819C810E9401294E2D62E1A2
:1029C0008B819C810E94710F60E28B819C810E94AF
:1029D00001294F2D61E08B819C810E94710F6BE575
:1029E0008B819C810E9401294F2D62E18B819C810A
:1029F0000E94710F6DE58B819C810E940129F80175
:102A0000808191819E7F9183808311E0ADCD926022
:102A1000F4019183808341E062E08B819C810E947C
:102A2000710F67E00BC09D7FF4019183808341E0CB
:102A300062E08B819C810E94710F66E08B819C819A
:102A40000E945C04A4CD8068F4019183808342E0FD
:102A500062E08B819C810E94710F67E00BC08F77D1
:102A6000F4019183808342E062E08B819C810E942B
:102A7000710F66E08B819C810E945C049BCD0F905E
:102A80000F900F900F90DF91CF911F910F91FF90BA
:102A9000EF90DF90CF90AF909F908F907F906F904E
:102AA0005F904F903F902F9008956F927F928F92FA
:102AB000AF92CF92DF92EF920F93CF93DF93CDB788
:102AC000DEB73C018F928A2CAC2CCE2CE02E022F4C
:102AD000242F462FBC010E94CD0F8DE792E0F30119
:102AE00091838083C30184960E94740E8FE090E0EE
:102AF0000E94BF286C01E12C08892F854E856D85C9
:102B00000E949404F301E458FF4FD182C082F30184
:102B1000E254FF4F10820F90DF91CF910F91EF9011
:102B2000DF90CF90AF908F907F906F9008952DE6BB
:102B300032E0FC013183208308950F931F93CF93DC
:102B4000DF938C01FC01E45BFF4F80819181009752
:102B500021F0019709F475C0B6C06630710509F01F
:102B6000B2C0E801A49641E063E070E0CE010E94AB
:102B7000B10640E0BC01CE010E94B0074FEF5FEF0D
:102B8000BA01CE010E94F107F801EA5BFF4F808194
:102B900091818130910509F44AC082309105C9F0D4
:102BA000892B09F090C020E030E04AE754E4F801B6
:102BB00062A573A584A595A50E944A2F20E030E068
:102BC0004AE754E40E94993020E030E04AEF53E4B1
:102BD00015C020E030E04AE754E4F80162A973A987
:102BE00084A995A90E944A2F20E030E04AE754E4E6
:102BF0000E94993020E030E04AE754E40E94993086
:102C000020E030E04AE754E40E944A2F20E030E020
:102C10004AE754E40E9499300E94B22FAB01BC01F4
:102C2000CE01DF91CF911F910F910C94D00720E03E
:102C300030E04AE754E4F80166A977A980AD91AD88
:102C4000D1CF65307105A1F066307105E1F50C5DFD
:102C50001F4F41E063E070E0C8010E94B10640E010
:102C6000BC01C801DF91CF911F910F910C94B00767
:102C7000F801EA5BFF4F80819181009791F0019705
:102C800011F5F801EA5AFF4F4081518196E05695BF
:102C900047959A95E1F781E04827417060E470E03C
:102CA0000AC0F801EA5AFF4F418150E0F1E04F2796
:102CB000417060E071E0C8018496DF91CF911F916F
:102CC0000F910C942607DF91CF911F910F910895DA
:102CD00084589F4FFC01808191810C94DB04CF9339
:102CE000DF93C62FF89460E088E00E94392486E0E4
:102CF0000E946A068C2F8295880F880F807C0E9424
:102D00006A06D82F80E00E946A06C82F61E088E03A
:102D10000E9439247894DF706C2F70E07D2B80E066
:102D200090E00E94E32F2FE632E143E050E40E945E
:102D3000993020E030E040E859E30E949930DF917B
:102D4000CF9108958F929F92AF92BF92CF92DF92D0
:102D5000EF92FF920F931F93CF93DF9300D000D099
:102D6000CDB7DEB76C01FC01E65AFF4F20813181FF
:102D700042815381FC01E25AFF4F80809180A28002
:102D8000B38060E029833A834B835C830E946F1693
:102D900029813A814B815C810E9499307B018C01B1
:102DA00020E030E0A9010E949530181644F4A501F6
:102DB0009401B701C8010E94E22E7B018C01F6014B
:102DC000E85AFF4F8081918194FD22C0F60186A4CC
:102DD00097A4A0A8B1A820E030E0A901C501B401E2
:102DE0000E9495301816F4F4F601EE58FF4F20813A
:102DF000318142815381C501B4010E9499309B0108
:102E0000AC01B701C8010E94E22E7B018C010AC00F
:102E10008FE391E00E94750645E050E0B701C801DC
:102E20000E947A062CEB34E743E95CE3B701C80162
:102E30000E94462F87FF04C0E12CF12C00E010E037
:102E4000B701C8010F900F900F900F90DF91CF91B5
:102E50001F910F91FF90EF90DF90CF90BF90AF90B8
:102E60009F908F9008954F925F926F927F928F9272
:102E70009F92AF92BF92CF92DF92EF92FF921F93F9
:102E8000CF93DF93EC01FC01EE59FF4F408051805E
:102E900062807380FC01EA59FF4F80809180A2809C
:102EA000B38015E0C12CD12C760161E0CE010E94E7
:102EB0006F162DEC3CEC4CEC5DE30E944A2F9B011D
:102EC000AC01C701B6010E94E22E6B017C011150DA
:102ED00061F720E030E040EA50E40E944A2FA3016D
:102EE00092010E9499306B017C0120E030E0A90141
:102EF0000E949530181644F4A5019401C701B6014B
:102F00000E94E22E6B017C01C85ADF4F88819981B3
:102F100094FF0AC08BE791E00E94750645E050E0FF
:102F2000C701B6010E948106C701B601DF91CF91AA
:102F30001F91FF90EF90DF90CF90BF90AF909F9048
:102F40008F907F906F905F904F900895CF93DF9315
:102F5000D62FC72F442319F0413021F001C0CF777D
:102F6000C06301C0C06BF89460E089E00E9439241E
:102F70008C2F0E946A068D2F0E946A0661E089E00C
:102F80000E9439247894DF91CF9108952F923F9237
:102F90004F925F926F927F928F929F92AF92BF9269
:102FA000CF92DF92EF92FF920F931F93CF93DF9315
:102FB000CDB7DEB72C970FB6F894DEBF0FBECDBFEE
:102FC0009C878B878C010C5D1F4F86599F4F9E837A
:102FD0008D838B859C8582599F4F98878F832B8407
:102FE0003C8498E5290E311CEB85FC85EE5BFF4F98
:102FF000FA83E9838B859C8586589F4F9C838B83BE
:10300000EB85FC85E558FF4FFA87E98720E030E043
:103010004AE754E4EB85FC8562A573A584A595A5D4
:103020000E944A2F20E030E04AE754E40E949930A1
:103030006B017C0120E030E04AE754E4EB85FC853D
:1030400066A577A580A991A90E944A2F20E030E0CB
:103050004AE754E40E949930A70196010E94462F46
:10306000882309F455C0ED81FE8140805180628043
:103070007380EF81F88580809180A280B380F10118
:103080008081918194FD39C020E030E04AE754E42A
:10309000C701B6010E949930A30192010E949930A4
:1030A000A50194010E94E22E0E94B72F7B01E981C5
:1030B000FA8180819181E816F90629F4EB81FC817F
:1030C00020812223D1F0EB81FC812081222309F48D
:1030D0004BC0E985FA852081211146C0E12CF12CF5
:1030E000E816F90631F040E0B7018B859C850E9417
:1030F000A617E981FA81F182E0828B859C850E9486
:103100003317AB01BC0120E030E0C8010E94C808C1
:10311000EB85FC8526A537A540A951A966A177A115
:1031200080A591A50E94993020E030E04AE754E460
:103130000E944A2F20E030E04AE754E40E94993090
:10314000AB01BC0120E030E0C8010E94E209892BFC
:10315000A9F4F1018081918194FD10C060E070E1DB
:10316000C8010E94090C52CFE114F0E1FF0608F4F7
:10317000B7CFEE24EA942FE0F22EB2CF2C960FB602
:10318000F894DEBF0FBECDBFDF91CF911F910F919D
:10319000FF90EF90DF90CF90BF90AF909F908F9077
:1031A0007F906F905F904F903F902F9008955F9227
:1031B0006F927F928F929F92AF92BF92CF92DF9247
:1031C000EF92FF920F931F93CF93DF93EC016C016B
:1031D00088E5C80ED11C3E01ECE46E0E711C8E0118
:1031E0000C5D1F4F5E01F6E4AF0EB11C7E0188E45A
:1031F000E80EF11C4E01E6E58E0E911CF6015180A1
:1032000052FA552450F8F30180819181892BC9F439
:1032100051105CC016C0892BA1F4F7016081718147
:10322000828193810E94E52F20E030E04AEF53E451
:103230000E944A2FAB01BC0120E030E0C8010E948F
:10324000160ACE010E943317AB01BC0120E030E02A
:10325000C8010E94C808009729F097FD65C0039730
:103260001CF162C0F6018081918194FD1DC0552042
:1032700031F0F40180819181906191838083F50127
:1032800080819181009741F0019709F0B7CF48E71D
:103290005FED62E070E004C042E55FE060E070E096
:1032A000C8010E94D007AACFCE01DF91CF911F9114
:1032B0000F91FF90EF90DF90CF90BF90AF909F90D5
:1032C0008F907F906F905F900C94C617F50180816E
:1032D00091818130910591F4F70160817181828142
:1032E00093810E94E52F20E030E04AE754E40E94F9
:1032F0004A2FAB01BC0121E030E0A0CF8230910524
:1033000009F089CFF70160817181828193810E94E8
:10331000E52F20E030E04AE754E40E944A2FAB0159
:10332000BC0122E030E08ACFDF91CF911F910F9155
:10333000FF90EF90DF90CF90BF90AF909F908F90D5
:103340007F906F905F900895CF92DF92EF92FF92FF
:10335000CF93DF93EC0162E00E946F166B017C015A
:1033600063E0CE010E946F169B01AC01C701B6015C
:103370000E94E22E20E030E040E05FE30E949930BE
:1033800020E030E04AE754E40E94993020E030EA3F
:103390004BEE54E40E94E12E25EC3EE444E351EC74
:1033A0000E944A2F20E030E040EA51E40E94E22EE1
:1033B0000E94B22FCB01DF91CF91FF90EF90DF9071
:1033C000CF9008950F931F93CF93DF93EC010E944A
:1033D000A4198C01BC01CE0184960E94340C44EEE9
:1033E00050E020E030E0FA01859194910817190728
:1033F000D8F0F901EE0FFF1FEE0FFF1FEA51FF4F4C
:1034000065917491FE01E05CFF4F80819181861788
:10341000970789F07183608341E0CE01DF91CF91FE
:103420001F910F910C94A6172F5F3F4F4C5F5F4F7A
:1034300025303105C1F6DF91CF911F910F9108958D
:1034400080EB93E00C94052580EB93E00C9498249A
:1034500080EB93E00E94BC2408952F923F924F92FC
:103460005F926F927F928F929F92AF92BF92CF9214
:10347000DF92EF92FF920F931F93CF93DF93CDB71D
:10348000DEB7C854D1090FB6F894DEBF0FBECDBF6A
:103490008C012DB73EB729963FAF2EAF299780EB11
:1034A00093E00E949025A8014A5A5F4F7A01882331
:1034B00009F47CC00E94241A1816190614F0C12CB5
:1034C00054C0F7018081918182FD03C084609183A3
:1034D0008083980122543F4F25963FAF2EAF25970A
:1034E0000E94241A1816190654F72596EEADFFAD62
:1034F0002597C080D12C0E94281AC00ED11EF6013B
:10350000E258FF4F80832596EEADFFAD25972081D1
:10351000C801820F911DFC01E258FF4F30813A3003
:1035200009F455C02F3309F452C02F5F2596EEAD34
:10353000FFAD25972083D4CFDD24D394CC24C3942E
:1035400027962EAD3FAD27970FB6F8943EBF0FBE1E
:103550002DBF2596EEADFFAD25971082DD2009F435
:1035600055C088E891E00E9475060E9410234B0127
:103570005C01F701808180FF14C08091D802909196
:10358000D902A091DA02B091DB02A5019401281BB7
:10359000390B4A0B5B0B253631054105510508F007
:1035A00080C3C1107EC30E94201A23C4FA01808107
:1035B000918180FF03C08E7F91838083F70180819A
:1035C000918182FF16C48B7F9183808312C4FC019A
:1035D000E258FF4F10822330B0F06AE370E0C80178
:1035E00082589F4F0E947B325C01009761F03C0142
:1035F000FFEF6F1A7F0A6AE370E0C3010E947B321B
:103600006C01009731F4D12CC12CA3CF8FE891E04D
:10361000AACF2DB73EB727963FAF2EAF27978A196F
:103620009B094C0131E0831A91084DB75EB7481BE6
:10363000590B0FB6F8945EBF0FBE4DBF8DB79EB746
:1036400001965C01A401B3010E947232F501E80DFC
:10365000F91D10828AE30E94700669E072E0C501DC
:103660000E948632892B91F51F9222E02F931F92A0
:1036700088E08F931F9284E08F9387E991E09F9376
:103680008F9380EA91E09F938F931F9286E08F93B0
:103690001F922F938CEA91E09F938F931F9280E467
:1036A0008F939E012F5F3F4F6901DF922F930E94FE
:1036B0009732C6010E9475064DB75EB74C5E5F4FEC
:1036C0000FB6F8945EBF0FBE4DBF9BC266ED71E0B2
:1036D000C5010E948632892B51F420E030E04AE790
:1036E00054E4F80162A573A584A595A5CFC1FFEFA9
:1036F000CF1ADF0A6CED71E0C5010E948632892B7A
:1037000009F0BFC0C6010E94483220E030E04AE71D
:1037100054E40E944A2F20E030E04AE754E40E943B
:10372000993020E030E04AE754E40E944A2F20E03C
:1037300030E04AE754E40E944A2F20E030E04AE7B4
:1037400054E40E9499304B015C01680124E2C20EEE
:10375000D11C20E030E0AB01BC01C6010E94160A7A
:1037600020E030E04AE754E4F80162A573A584A59F
:1037700095A50E944A2F20E030E04AE754E40E94D9
:10378000993020E030E04AE754E40E94993020E08C
:1037900030E04AE754E40E944A2F20E030E04AE754
:1037A00054E40E94993040E050E00E947A06F8010B
:1037B000EA5BFF4F808191818130910531F1823048
:1037C0009105C9F0892B09F04AC020E030E04AE7B2
:1037D00054E4F80162A573A584A595A50E944A2F1B
:1037E00020E030E04AE754E40E94993020E030E0E5
:1037F0004AEF53E41FC020E030E04AE754E4F80108
:1038000062A973A984A995A909C020E030E04AE71C
:1038100054E4F80166A977A980AD91AD0E944A2FC2
:1038200020E030E04AE754E40E94993020E030E0A4
:103830004AE754E40E94993020E030E04AE754E43B
:103840000E944A2F20E030E04AE754E40E94993079
:103850000E94B22FAB01BC01C6010E94D007F80143
:10386000E85AFF4F808191819B7F91838083DD2483
:10387000D394A5019401F80162A573A584A595A52B
:10388000EDC061EE71E0C5010E948632892B09F01E
:1038900082C061E871E0C6010E948632892B09F07E
:1038A00042C061E0C80184960E94970780E090E0E2
:1038B000A0E8BFE3F801E65AFF4F80839183A2831B
:1038C000B383F801E25AFF4F1082118212821382F1
:1038D000F801EE59FF4F80839183A283B383F801EF
:1038E000EA59FF4F1082118212821382F801E659C1
:1038F000FF4F80839183A283B383F801E259FF4F86
:103900001082118212821382F801EE58FF4F8083D9
:103910009183A283B383F801EA58FF4F108211828A
:10392000128213826EC164E871E0C6010E94863281
:10393000892B61F460E06801F4E2CF0ED11CC6016E
:103940000E949707C6010E943B0D5BC165EE71E0C6
:10395000C6010E948632892B61F4680124E2C20EFE
:10396000D11CC6010E94F70D60E0C6010E949707B6
:1039700048C16AE370E0C6010E947B324C010097A7
:1039800009F471C06CE270E00E947B323C01009748
:1039900009F09BC068C06AEE71E0C5010E948632E2
:1039A000892B09F062C0F801E85AFF4F80819181AC
:1039B00094FF5BC0C6010E944C3240E0BC01C801CC
:1039C0000E94A6171EC16EEE71E0C5010E948632EC
:1039D000892B09F01AC1C6010E94483220E030E06C
:1039E0004AE754E40E944A2F4B015C0122E030E098
:1039F000AB01BC01C80184960E94160A20E030E0A9
:103A00004AE754E4F80162A973A984A995A90E9420
:103A10004A2F20E030E04AE754E40E94993020E049
:103A200030E04AE754E40E94993020E030E04AE771
:103A300054E40E944A2F20E030E04AE754E40E9418
:103A4000993040E050E00E947A06DD24D394A5012D
:103A50009401F80162A973A984A995A90E94462F2F
:103A6000882309F4D0C0D12CCEC062E172E0C50138
:103A70000E948632892B09F0A6CF20E030E04AE789
:103A800054E4F80162A973A984A995A90E944A2F58
:103A900020E030E04AE754E40E94993020E030E032
:103AA0004AE754E40E94993020E030E04AE754E4C9
:103AB0000E944A2F20E030E04AE754E40E94993007
:103AC00040E050E00E947A069CC02DB73EB7239696
:103AD0003FAF2EAF23973FEF831A930AC4018C198F
:103AE0009D092C0141E0441A5108EDB7FEB7E81BCF
:103AF000F90B0FB6F894FEBF0FBEEDBF2DB73EB762
:103B00002F5F3F4F1901A201B601C9010E94723215
:103B1000F101E40DF51D1082F30111923F01C40182
:103B20000E9448324B015C01C3010E9448322B01C4
:103B30003C016FE072E0C1010E948632892B59F48A
:103B4000F801EE58FF4F80829182A282B382F80181
:103B5000EA58FF4F35C063E771E0C1010E94863229
:103B6000892B59F4F801E65AFF4F80829182A28294
:103B7000B382F801E25AFF4F23C06CEE71E0C1013D
:103B80000E948632892B59F4F801EE59FF4F80824A
:103B90009182A282B382F801EA59FF4F11C067E017
:103BA00072E0C1010E948632892B89F4F801E6593E
:103BB000FF4F80829182A282B382F801E259FF4FC7
:103BC0004082518262827382DD24D39401C0D12C61
:103BD00023962EAD3FAD23970FB6F8943EBF0FBE90
:103BE0002DBF11C068EF71E0C5010E948632892B9C
:103BF00089F5F701808180FF2AC081E891E00E9469
:103C00007506DD24D394C12C9BCC62EF71E0C50115
:103C10000E948632892B51F420E030E04AE754E4D8
:103C2000F80166A577A580A991A930CF65EF71E06D
:103C3000C5010E948632892BA9F620E030E04AE7D0
:103C400054E4F80166A177A180A591A51FCF84E86F
:103C500091E0D5CF6DEF71E0C5010E948632892BCE
:103C6000D9F464E871E0C6010E948632892B29F4F8
:103C7000F701808191818E7F0CC061E871E0C601FF
:103C80000E948632892B09F057CCF70180819181FF
:103C9000816091838083B5CF81E092E00E947506B8
:103CA000E2CE8092D8029092D902A092DA02B0922B
:103CB000DB02F80187AD8F9386AD8F9320E030E073
:103CC0004AE754E466A577A580A991A90E944A2FE6
:103CD00020E030E04AE754E40E94993020E030E0F0
:103CE0004AE754E40E94993020E030E04AE754E487
:103CF0000E944A2F20E030E04AE754E40E949930C5
:103D00000E94B72F7F936F9320E030E04AE754E49E
:103D1000F80162A573A584A595A50E944A2F20E00D
:103D200030E04AE754E40E94993020E030E04AE76E
:103D300054E40E94993020E030E04AE754E40E94C5
:103D40004A2F20E030E04AE754E40E9499300E9474
:103D5000B72F7F936F9320E030E04AE754E4F801F7
:103D600066A177A180A591A50E944A2F20E030E0AE
:103D70004AE754E40E94993020E030E04AE754E4F6
:103D80000E94993020E030E04AE754E40E944A2F34
:103D900020E030E04AE754E40E9499300E94B72FB7
:103DA0007F936F93C501B40124E630E040E050E01A
:103DB0000E94B92E5F934F933F932F9387E192E038
:103DC0009F938F931F928FE38F938E010F5F1F4FEF
:103DD0001F930F930E949732C8010E9475062DB75A
:103DE0003EB72E5E3F4F0FB6F8943EBF0FBE2DBFBD
:103DF000DACB29964EAD5FAD29970FB6F8945EBF2A
:103E00000FBE4DBFC85BDF4F0FB6F894DEBF0FBECD
:103E1000CDBFDF91CF911F910F91FF90EF90DF9079
:103E2000CF90BF90AF909F908F907F906F905F905A
:103E30004F903F902F900895CF93DF93CDB7DEB78B
:103E40002C970FB6F894DEBF0FBECDBF9C878B8733
:103E50008C010C5D1F4FC8010E94ED068B859C856F
:103E60000E94F410C8010E94DD062B843C842CE7DC
:103E7000220E311C8B859C85885B9F4F9E838D8392
:103E8000EB84FC8496E5E90EF11C8B849C84ACE405
:103E90008A0E911CEB85FC85EA5BFF4FF887EF8368
:103EA000CB84DC84F8E5CF0ED11C8B859C858C5BA4
:103EB0009F4F9A878987D1018D919C910E94AC0573
:103EC0005C012C01662457FC6094762CAD81BE8188
:103ED0008D919D910D90BC91A02D89839A83AB8388
:103EE000BC83C8010E943808411451046104710464
:103EF00051F0F701808184FD06C0D4018D919C9121
:103F0000892B09F40AC1F6018081918192FF59C081
:103F100069817A818B819C810E94E52FAB85BC856C
:103F20005B962C91222371F00E94B22FAB01BC0151
:103F3000C8010E94D007F601808191819B7F918307
:103F40008083FBC0D7012D913C91119722FF03C0C4
:103F50002B7F2D933C93E985FA8520813181232B9A
:103F6000B9F40E94B22FAB01BC01C8010E94D00776
:103F7000D6018D919C9111979B7F8D939C9361E0CD
:103F800070E0C8010E941608C8010E94DD0693CFA8
:103F90008B859C850E94F410C8010E94DD06F70104
:103FA0008081918192FF03C09B7F91838083D701A1
:103FB0008D919C91119794FF12C09F7E8D939C933D
:103FC0000EC045284628472851F0F701808186FF1A
:103FD00006C0AB85BC855B968C918111AEC0F101AA
:103FE000808191810E94E4055C01009709F46AC018
:103FF0000597029738F5AB85BC855B968C915B97EE
:10400000882321F0CD010E94F41055CFF701808163
:10401000918186FF13C084FD04C0C8010E94ED0693
:104020000DC0F6E0AF16B10409F045CF8F7ED70181
:104030008D939C93C8010E94ED063DCF8B859C8596
:104040000E94F410F701808184FD2DC0F3E0AF16CB
:10405000B10449F5D6018D919C9191FD2EC0C80106
:104060000E94ED06F101808191810E94E405049790
:10407000B1F741E060E070E0C8010E94B007D701ED
:104080008D919C9111978F7E8D939C9361E070E050
:10409000F40180819181892B11F060E070E0C8010A
:1040A0000E94C2070AC0F5E0AF16B10431F4D40192
:1040B0008D919C91892B09F443C0B5018B859C851A
:1040C0000E949D158B859C850E94A216AB01BC01A8
:1040D000C8010E945B0C8B859C850E94D7188B853C
:1040E0009C850E94E2198B859C850E940811F6012F
:1040F0008081918191FF03C09D7F91838083D60150
:104100008D919C91119792FF03C09B7F8D939C93FF
:104110008B859C850E942D1ACECEEF81F88560811B
:10412000C8010E94250F9501DC010E94902EAB0171
:10413000BC01C8010E94F107E6CE8B859C8563CF48
:10414000C8010E94FB0EB9CF0F931F93CF93DF934B
:10415000EC018B0161E088E00E94002461E089E0CD
:104160000E94002461E088E00E94392461E089E037
:104170000E9439240E94620481E00E94780480E059
:104180000E94810486E00E94860430E13093810021
:104190001092800021E02093D40280E49FE190936C
:1041A000D6028093D502909387008093860081E1A8
:1041B000809381001093D3020093D20220936F006A
:1041C000309391001092900085E08093CF0280E0C0
:1041D0009AEF9093D1028093D002909397008093AE
:1041E000960085E1809391008DE396E09093CE0256
:1041F0008093CD0220937100CE010E940210CE0167
:104200000E94231060E071EE80EB93E00E948F2506
:1042100080EB93E00E94902581110AC05D9AD093B3
:10422000DD02C093DC02DF91CF911F910F910895C1
:104230000E94241A181619068CF70E94281AF8CF23
:104240008EED92E00C94681660E271E28EED92E0E1
:104250000C94A4208EED92E00C941C1F8F92AF92D0
:10426000CF92EF920F9384E08F931F9282E08F930F
:1042700083E08F9384E0882E94E1A92E25E1C22E5D
:1042800034E1E32E03E122E14CE06AE08EED92E0BE
:104290000E9455150F900F900F900F900F91EF9077
:1042A000CF90AF908F9008958EED92E00C9497157B
:1042B0001F920F920FB60F9211242F933F934F939B
:1042C0005F936F937F938F939F93AF93BF93EF937E
:1042D000FF9380919D0390919E03892B29F0E0919B
:1042E0009D03F0919E030995FF91EF91BF91AF91CE
:1042F0009F918F917F916F915F914F913F912F91FE
:104300000F900FBE0F901F9018951F920F920FB62F
:104310000F9211242F933F934F935F936F937F934B
:104320008F939F93AF93BF93EF93FF9380919F03DE
:104330009091A003892B29F0E0919F03F091A003B5
:104340000995FF91EF91BF91AF919F918F917F91CF
:104350006F915F914F913F912F910F900FBE0F90F2
:104360001F9018951F920F920FB60F9211242F9342
:104370003F934F935F936F937F938F939F93AF93ED
:10438000BF93EF93FF938091A1039091A203892B98
:1043900029F0E091A103F091A2030995FF91EF911B
:1043A000BF91AF919F918F917F916F915F914F914D
:1043B0003F912F910F900FBE0F901F9018951F9255
:1043C0000F920FB60F9211242F933F934F935F9349
:1043D0006F937F938F939F93AF93BF93EF93FF93CD
:1043E0008091A3039091A403892B29F0E091A3036A
:1043F000F091A4030995FF91EF91BF91AF919F9127
:104400008F917F916F915F914F913F912F910F907D
:104410000FBE0F901F9018951F920F920FB60F921C
:1044200011242F933F934F935F936F937F938F93B9
:104430009F93AF93BF93EF93FF938091A5039091C8
:10444000A603892B29F0E091A503F091A603099515
:10445000FF91EF91BF91AF919F918F917F916F915C
:104460005F914F913F912F910F900FBE0F901F9032
:1044700018951F93CF93DF93182FEB0161E00E94F3
:104480000024209711F460E004C0CF3FD10539F437
:1044900061E0812FDF91CF911F910C943924E12F9E
:1044A000F0E0E850FF4F449150E0FA013197EE30D0
:1044B000F10508F062C0EA5AFF4F0C94DB2E84B578
:1044C000806884BDC7BD5EC084B5806284BDC8BD40
:1044D00059C080918000806880938000D0938900CB
:1044E000C09388004FC080918000806280938000DC
:1044F000D0938B00C0938A0045C080919000806863
:1045000080939000D0939900C09398003BC0809115
:104510009000806280939000D0939B00C0939A009B
:1045200031C080919000886080939000D0939D006E
:10453000C0939C0027C08091C00080688093C00019
:104540008091C0008F7B8093C000C093CF001AC0C1
:104550008091C00080628093C000C093D00012C0E0
:104560008091C20088608093C2008091C2008B7FDE
:104570008093C200C093D20005C0C038D1050CF0B2
:1045800087CF81CFDF91CF911F9108951F920F9216
:104590000FB60F9211242F933F938F939F93AF9356
:1045A000BF938091A8039091A903A091AA03B09111
:1045B000AB033091A70323E0230F2D3720F401969E
:1045C000A11DB11D05C026E8230F0296A11DB11D36
:1045D0002093A7038093A8039093A903A093AA0311
:1045E000B093AB038091AC039091AD03A091AE0367
:1045F000B091AF030196A11DB11D8093AC039093C0
:10460000AD03A093AE03B093AF03BF91AF919F9161
:104610008F913F912F910F900FBE0F901F90189583
:104620002FB7F8946091A8037091A9038091AA0311
:104630009091AB032FBF08953FB7F8948091AC03DE
:104640009091AD03A091AE03B091AF0326B5A89BA6
:1046500002C02F3F89F43FBF6627782F892F9A2FFA
:10466000620F711D811D911D42E0660F771F881F2B
:10467000991F4A95D1F708950196A11DB11DEBCF61
:10468000CF92DF92EF92FF92CF93DF936B017C0189
:104690000E941C23EB01C114D104E104F10479F060
:1046A0000E941C236C1B7D0B683E7340A0F381E0CD
:1046B000C81AD108E108F108C851DC4FECCFDF91EE
:1046C000CF91FF90EF90DF90CF90089501970097E2
:1046D00039F0880F991F880F991F02970197F1F7FA
:1046E0000895789484B5826084BD84B5816084BD6A
:1046F00085B5826085BD85B5816085BDEEE6F0E05B
:10470000808181608083E1E8F0E0108280818260B6
:104710008083808181608083E0E8F0E08081816037
:104720008083E1E9F0E08081826080838081816024
:104730008083E0E9F0E0808181608083E1ECF0E05B
:1047400080818460808380818260808380818160B9
:104750008083E3ECF0E0808181608083E0ECF0E036
:10476000808182608083E2ECF0E0808181608083E0
:10477000EAE7F0E0808184608083808182608083CA
:10478000808181608083808180688083089590E04B
:10479000FC013197EE30F10590F5EC59FF4F0C9488
:1047A000DB2E809180008F7703C0809180008F7D09
:1047B00080938000089584B58F7702C084B58F7D83
:1047C00084BD0895809190008F7707C080919000FC
:1047D0008F7D03C080919000877F80939000089523
:1047E0008091C0008F7703C08091C0008F7D80933F
:1047F000C00008958091C200877F8093C200089511
:10480000CF93DF9390E0FC01EA5EFE4F2491FC0120
:10481000EC5CFE4F8491882349F190E0880F991F4A
:10482000FC01E259FE4FA591B491805A9E4FFC01C4
:10483000C591D4919FB7611108C0F8948C912095CF
:1048400082238C93888182230AC0623051F4F894C9
:104850008C91322F309583238C938881822B88838F
:1048600004C0F8948C91822B8C939FBFDF91CF91E1
:1048700008950F931F93CF93DF931F92CDB7DEB7A9
:10488000282F30E0F901E850FF4F8491F901EA5EEA
:10489000FE4F1491F901EC5CFE4F04910023C9F026
:1048A000882321F069830E94C7236981E02FF0E00B
:1048B000EE0FFF1FE05AFE4FA591B4919FB7F894F9
:1048C0008C91611103C01095812301C0812B8C93C1
:1048D0009FBF0F90DF91CF911F910F910895CF93BC
:1048E000DF93282F30E0F901E850FF4F8491F90160
:1048F000EA5EFE4FD491F901EC5CFE4FC491CC23EB
:1049000091F081110E94C723EC2FF0E0EE0FFF1F02
:10491000EE5AFE4FA591B4912C912D2381E090E0A9
:1049200021F480E002C080E090E0DF91CF91089513
:104930008091FE039091FF032091000430910104C7
:10494000821B930B8F73992708952091FE0330915A
:10495000FF0380910004909101042817390749F062
:10496000E0910004F0910104E254FC4F808190E05A
:1049700008958FEF9FEF08952091FE033091FF037C
:10498000809100049091010428173907A9F0E09163
:104990000004F0910104E254FC4F80812091000456
:1049A000309101042F5F3F4F2F7333273093010461
:1049B0002093000490E008958FEF9FEF0895CF9328
:1049C000DF93C091FE03D091FF032196CF73DD27C3
:1049D0008091000490910104C817D90799F082E0F2
:1049E0000E94A52B8F3F2FEF920761F0E091FE030D
:1049F000F091FF03E254FC4F8083D093FF03C093F8
:104A0000FE03DFCFDF91CF91089583E00C94092E50
:104A10000F931F93CF93DF931F92CDB7DEB78C0117
:104A2000698380911101882359F041E050E0BE0173
:104A30006F5F7F4F83E00E94D62B181619063CF05B
:104A400081E090E0F8019383828380E090E00F9012
:104A5000DF91CF911F910F910895FC0120812E5F6E
:104A6000208342E450E06CE771E080E80C94712C04
:104A7000FC0181819081913A59F4813209F04BC057
:104A800047E050E06AE071E080E00E94712C45C090
:104A9000913209F040C0803239F467E070E08AE07A
:104AA00091E00E94B52C39C0823209F034C0828175
:104AB0008093110180910A0190910B01A0910C014A
:104AC000B0910D01803B9440A105B10531F5809175
:104AD000110180FD12C087E797E79093010880934A
:104AE00000082BE088E190E00FB6F894A895809339
:104AF00060000FBE2093600010C088E10FB6F894EC
:104B000080936000109260000FBEA895109201087B
:104B10001092000802C080E0089581E00895089591
:104B2000CF93C09111016AE070E080E090E00E94B4
:104B3000402381E0C11101C080E0CF91089510921F
:104B4000B3031092B20388EE93E0A0E0B0E080934C
:104B5000B4039093B503A093B603B093B70385E86D
:104B600092E09093B1038093B0030895FC012485F3
:104B70003585F901E05CFF4F80819181F901EE5BA1
:104B8000FF4F20813181821B930B8F7399270895EA
:104B9000FC0184859585FC01E05CFF4F40815181DB
:104BA000FC01EE5BFF4F208131814217530741F03A
:104BB0000190F081E02DE80FF91F808190E00895C9
:104BC0008FEF9FEF0895FC0184859585FC01E05CE3
:104BD000FF4F40815181FC01EE5BFF4F208131810D
:104BE0004217530779F0A081B181A80FB91F8C91AA
:104BF000208131812F5F3F4F2F73332731832083F3
:104C000090E008958FEF9FEF0895FC0181A1882324
:104C100029F0A489B5898C9186FFFBCF11A2089554
:104C2000CF93DF93FC0126853785D901A05CBF4F68
:104C30008D919C91119701968F739927E901CE5B15
:104C4000DF4F4881598184179507D9F30D90BC91A6
:104C5000A02DA20FB31F6C93A685B785A05CBF4F94
:104C600011969C938E93A689B7892C9181E090E050
:104C7000078C02C0880F991F0A94E2F7282B2C9307
:104C800081E081A30488F589E02D808180648083A0
:104C900081E090E0DF91CF91089508951F920F92E7
:104CA0000FB60F9211242F933F934F938F939F939F
:104CB000EF93FF938091C80082FD1CC04091CE000D
:104CC0008091A8049091A90401968F73992720914F
:104CD000AA043091AB048217930771F0E091A80405
:104CE000F091A904E859FB4F40839093A904809365
:104CF000A80402C08091CE00FF91EF919F918F9107
:104D00004F913F912F910F900FBE0F901F901895CC
:104D100082E094E00E94B625892B11F00C944D2678
:104D200008951F920F920FB60F9211242F933F9365
:104D30008F939F93EF93FF932091640430916504C8
:104D400080916604909167042817390731F48091A7
:104D5000C9008F7D8093C90014C0E0916604F09172
:104D60006704EC5DFB4F208180916604909167049D
:104D700001968F739927909367048093660420931C
:104D8000CE00FF91EF919F918F913F912F910F90C6
:104D90000FBE0F901F9018951092050410920404F6
:104DA00088EE93E0A0E0B0E08093060490930704BF
:104DB000A0930804B093090487E992E09093030458
:104DC0008093020488E694E090930F0480930E048D
:104DD00084E294E090931104809310048DEC90E0B1
:104DE00090931304809312048CEC90E0909315043C
:104DF0008093140488EC90E0909317048093160439
:104E000089EC90E090931904809318048AEC90E068
:104E100090931B0480931A048EEC90E090931D04F1
:104E200080931C0484E080931E0483E080931F041D
:104E300087E08093200485E08093210481E08093C3
:104E400022040895FF920F931F93CF93DF93EC01F9
:104E5000F62EE881F9810480F581E02D09958C0119
:104E6000E881F9810680F781E02D6F2DCE0109954B
:104E7000C8019927DF91CF911F910F91FF9008955D
:104E8000FC0120812F5F208349E150E06EE372E056
:104E900080E80C94712C45E650E067E572E080E80C
:104EA0000C94712CEF92FF920F931F93CF93DF938B
:104EB0001F92CDB7DEB789838B017A0141E050E0C4
:104EC000BE016F5F7F4F84E00E94D62BA701B8011F
:104ED00084E40E94D62B0F90DF91CF911F910F9108
:104EE000FF90EF900895FC0191818081813A31F427
:104EF00081E0913091F0933089F411C0813271F4E6
:104F00009B3021F482818093130105C09A3031F4E3
:104F100082818093120181E00895089580E00895D0
:104F200048E050E082E00C945227CF93DF93DC01FD
:104F3000683818F0E8E7E60F25C0E62FF0E067FFD5
:104F400011C0E058F10981E090E001C0880FEA95B6
:104F5000EAF714969C911497982B14969C931497A7
:104F6000E0E010C0E254FE4FE491EE2309F440C0AB
:104F7000E7FF08C014968C911497826014968C9366
:104F80001497EF7716968C9116978E1741F1179616
:104F90008C9117978E1719F118968C9118978E1778
:104FA000F1F019968C9119978E17C9F01A968C9179
:104FB0001A978E17A1F01B968C911B978E1779F07C
:104FC00080E090E0ED01C80FD91F2E81211102C0B1
:104FD000EE8305C0019686309105A1F709C0BD0199
:104FE0006C5F7F4FCD010E94902781E090E008C068
:104FF00081E090E013969C938E93129780E090E06E
:10500000DF91CF910895683818F0E8E7E60F25C0E2
:10501000E62FF0E067FF12C0E058F10921E030E030
:1050200001C0220FEA95EAF72095DC0114963C9125
:105030001497322314963C93E0E00FC0E254FE4FE5
:10504000E491EE2329F1E7FF08C0DC0114962C91CE
:1050500014972D7F14962C93EF7720E030E0EE2309
:1050600051F0DC01A20FB31F16964C9116974E1308
:1050700002C016961C922F5F3F4F2630310579F7FC
:10508000BC016C5F7F4F0E94902781E090E0089503
:1050900080E090E00895FC01168217821086118648
:1050A000128613861482BC016C5F7F4F0C9490278C
:1050B0001092B8041092AF041092AE0487EA92E006
:1050C0009093AD048093AC040895AF92BF92CF92B9
:1050D000DF92EF92FF920F931F93CF93DF936C01B8
:1050E0007B01C0E0D0E000E010E0F601EC0FFD1F16
:1050F0004AE050E06281C7010E94CC295C016EE267
:10510000C7010E9401298A0D9B1D080F191F2196B6
:10511000C330D10551F74AE050E0F6016581C7017F
:105120000E94CC29800F911FDF91CF911F910F9189
:10513000FF90EF90DF90CF90BF90AF90089585EBF8
:1051400092E09093BA048093B9041092BB04109239
:10515000BC041092BD041092BE0408950E947123F5
:1051600086EC94E00E94132E0E942421C8E8D6E227
:105170000E942A212097E1F30E948826F9CF0C94FF
:105180002131CF92DF92EF92FF920F931F93CF9333
:10519000DF936C017A01EB01E60EF71E00E010E0F0
:1051A000CE15DF0561F06991D601ED91FC9101907A
:1051B000F081E02DC6010995080F191FF1CFC80134
:1051C000DF91CF911F910F91FF90EF90DF90CF90E3
:1051D00008956115710581F0DB010D900020E9F75C
:1051E000AD0141505109461B570BDC01ED91FC917B
:1051F0000280F381E02D099480E090E008950C9402
:10520000E928DC01ED91FC910190F081E02D0994F9
:105210000F931F93CF93DF93EC016DE00E94012960
:105220008C016AE0CE010E940129800F911FDF915D
:10523000CF911F910F9108958F929F92AF92BF923D
:10524000CF92DF92EF92FF920F931F93CF93DF9352
:10525000CDB7DEB7A1970FB6F894DEBF0FBECDBFB6
:105260007C01C42EE52FCB01D22E19A221E02D15F1
:1052700010F02AE0D22E8E010F5D1F4F8D2C912C45
:10528000A12CB12C6C2D7E2FA50194010E94B92E6A
:105290008C2DD29E80191124015011098A3014F4EA
:1052A000805D01C0895CF8018083211531054105CD
:1052B000510521F0C22EE32FCA01E4CFB801C70186
:1052C0000E94E928A1960FB6F894DEBF0FBECDBFAD
:1052D000DF91CF911F910F91FF90EF90DF90CF90D2
:1052E000BF90AF909F908F900895CF92DF92EF92F2
:1052F000FF920F931F93CF93DF93EC016A017B0121
:105300002115310579F4E881F9810190F081E02DD2
:10531000642FDF91CF911F910F91FF90EF90DF905D
:10532000CF9009942A303105E9F477FF1AC06DE275
:105330000E9401298C0144275527BA014C195D09A7
:105340006E097F092AE0CE010E941C29800F911F5F
:10535000DF91CF911F910F91FF90EF90DF90CF9051
:1053600008952AE0B701A601CE01DF91CF911F91E8
:105370000F91FF90EF90DF90CF900C941C29211596
:10538000310541F4DC01ED91FC910190F081E02DBB
:10539000642F09940C941C299A01462F50E060E078
:1053A00070E00C94BF299A01AB0160E070E00C94AE
:1053B000BF294F925F926F927F928F929F92AF928E
:1053C000BF92CF92DF92EF92FF920F931F93CF93F2
:1053D000DF93EC016A017B01B22E9A01AB01C70198
:1053E000B6010E94FC30882319F067EB72E027C0F9
:1053F00026013701E89477F82FEF3FEF4FE75FE79B
:10540000C301B2010E94FC3081110DC02FEF3FEFAC
:105410004FE75FE7C301B2010E94462F18161CF444
:105420006BEB72E00CC02FEF3FEF4FE75FE4C7017B
:10543000B6010E9495301816ACF46FEB72E0CE0105
:10544000DF91CF911F910F91FF90EF90DF90CF9060
:10545000BF90AF909F908F907F906F905F904F9094
:105460000C94E9282FEF3FEF4FE75FECC701B6013F
:105470000E94462F87FDE1CF20E030E0A901C7015F
:10548000B6010E94462F87FF0AC06DE2CE010E943E
:1054900001298C01F7FAF094F7F8F09402C000E0CB
:1054A00010E0A12C60E070E080E09FE3AB1441F0DD
:1054B00020E030E040E251E40E944A2FA394F6CF6E
:1054C0009B01AC01C701B6010E94E22E6B017C0179
:1054D0000E94B72F2B013C010E94E32F9B01AC01DE
:1054E000C701B6010E94E12E6B017C012AE0B301E5
:1054F000A201CE010E941C29080F191FBB2039F000
:1055000063EC72E0CE010E94E928080F191F7B2C82
:10551000772041F120E030E040E251E4C701B601DC
:105520000E9499306B017C010E94B22F4B01AA248A
:1055300097FCA094BA2C2AE030E0B501A401CE017A
:105540000E947529080F191FC501B4010E94E52F9B
:105550009B01AC01C701B6010E94E12E6B017C01E9
:105560007A94D6CFC801DF91CF911F910F91FF9010
:10557000EF90DF90CF90BF90AF909F908F907F90F3
:105580006F905F904F9008950C94D9290F931F93BB
:10559000CF93DF93EC010E94D9298C01CE010E94A8
:1055A0000829800F911FDF91CF911F910F910895CE
:1055B0001F920F920FB60F9211242F933F938F9348
:1055C0009F93AF93BF93EF93FF938091C204909109
:1055D000C304A091C404B091C504892B8A2B8B2BE2
:1055E00051F19091BF04E091C004F091C104808119
:1055F000892780838091C2049091C304A091C40440
:10560000B091C504181619061A061B0624F58091D8
:10561000C2049091C304A091C404B091C504019741
:10562000A109B1098093C2049093C304A093C40458
:10563000B093C50410C0109271002091BF04E09196
:10564000C004F091C104808190E030E02095309555
:10565000822393238083FF91EF91BF91AF919F911C
:105660008F913F912F910F900FBE0F901F90189523
:10567000615030F02091F100FC0120830196F8CFB9
:10568000289884E68093CD0408952FB7FC012083E9
:10569000F89467706093E9000895CF93DF931F92A9
:1056A000CDB7DEB7682FCE0101960E94452B8091C1
:1056B000F20099819FBF0F90DF91CF910895FF92E3
:1056C0000F931F93CF93DF9300D0CDB7DEB7F62EA5
:1056D0008A019091CC04992311F057FF03C08FEFFA
:1056E0009FEF2BC0682FCE0101967A830E94452B35
:1056F0008091F20090E0A8017A81801791070CF464
:10570000AC01EF2DF72FF40E84E6FE1639F0289841
:105710008093CD049091F1009193F7CF41155105FD
:1057200021F08091F200882321F089818FBFCA0186
:1057300004C08BE68093E800F8CF0F900F90DF91C4
:10574000CF911F910F91FF900895CF93DF931F92F8
:10575000CDB7DEB741E050E0BE016F5F7F4F0E94E2
:105760005F2B019719F4898190E002C08FEF9FEFC2
:105770000F90DF91CF910895CF93DF931F92CDB714
:10578000DEB7682FCE0101960E94452B9091E8006C
:10579000892F807295FF04C09091F20080E4891BEC
:1057A00099819FBF0F90DF91CF9108954F925F92A3
:1057B0006F927F928F929F92AF92BF92CF92DF9221
:1057C000EF92FF920F931F93CF93DF931F92CDB76A
:1057D000DEB7582E7B01A42E952E8091CC04882311
:1057E00069F0042F152F8AEFB82E852D8072782E40
:1057F0009AE3892E852D8074682E11C08FEF9FEF5C
:1058000053C0852D0E94BC2B482E81110CC0BA9428
:10581000A9F361E070E080E090E00E944023011570
:10582000110579F737C0282F30E0021713070CF461
:10583000402EC42CD12C0C191D09652DCE010196CA
:105840000E94452B772039F04A948FEF4816B1F02B
:105850001092F100F9CFF701842D57FE07C0815057
:1058600058F094919093F1003196F9CF815020F047
:1058700091919093F100FACFEC0CFD1C8091E8001F
:1058800085FF0FC00115110511F461100AC089814F
:105890008FBFC5CF5D9884E68093CE048A2D992D65
:1058A00003C08092E800F3CF0F90DF91CF911F915A
:1058B0000F91FF90EF90DF90CF90BF90AF909F90AF
:1058C0008F907F906F905F904F9008951092E900B5
:1058D0001092CB041092CA049093C9048093C80418
:1058E0000895CF93DF93FB0120E030E0DEEF241733
:1058F0003507A1F187FF02C0C49101C0C081A0910A
:10590000CA04B091CB046091C8047091C904A61771
:10591000B707B4F49091E8009570E1F39091E80036
:1059200092FD1EC0C093F1006091CA047091CB0437
:105930006F5F7F4F6F737727672B11F4D093E80069
:105940006091CA047091CB046F5F7F4F7093CB045A
:105950006093CA042F5F3F4F3196C9CFC90102C07F
:105960008FEF9FEFDF91CF9108951F93CF93DF9338
:105970001F92CDB7DEB7162F2091E80022FFFCCF93
:10598000612F79830E94382B8BEF8093E800812F61
:105990007981972F0F90DF91CF911F910895CF9329
:1059A000DF931F92CDB7DEB71982CE0101960E9418
:1059B0002D25CE0101960E944027898190E00F900D
:1059C000DF91CF9108951F920F920FB60F9211247D
:1059D000EF92FF920F931F932F933F934F935F93F9
:1059E0006F937F938F939F93AF93BF93EF93FF93A7
:1059F000CF93DF93CDB7DEB76297DEBFCDBF1092F6
:105A0000E9008091E80083FFE7C068E0CE010A96D4
:105A10000E94382B82EF8093E8009A8597FF05C09B
:105A20008091E80080FFFCCF03C08EEF8093E800F8
:105A3000892F807609F0B5C08B85811105C0109241
:105A4000F1001092F100C1C0282F2D7F213009F400
:105A5000BCC0853049F48091E80080FFFCCF8C8584
:105A600080688093E300B1C0863009F072C02D8554
:105A7000E888F988223071F580E090E02A8B0E9456
:105A8000662C0E94CF2C99E08E010F5F1F4FF8010A
:105A9000392F11923A95E9F799832A892A8391E05F
:105AA0009E8390E898879AEF99872091CA04309155
:105AB000CB04275F3F4F3C832B838D83C7010E941C
:105AC000662C49E050E0B80180E00E94712C0E94F1
:105AD000CF2C7BC0C7012A8B0E94662C2A892232D8
