:100000000C9432020C9451220C947E220C94AB225C
:100010000C94D8220C945A020C945A020C94052386
:100020000C945A020C945A020C942A2F0C94DC2D36
:100030000C945A020C945A020C945A020C945A02D0
:100040000C945A020C945A020C945A020C945A02C0
:100050000C94EF050C945A020C945A020C94BF2392
:100060000C945A020C9447270C948A270C945A0239
:100070000C945A020C945A020C945A020C945A0290
:100080000C94D12B0C945A020C945A020C94160620
:100090000C945A020C945A020C945A020C945A0270
:1000A0000C945A020C945A020C945A0258235D2361
:1000B00062236C23B623B623B623762380238A23B8
:1000C0009423A123B623A923D424D724CA24CE243D
:1000D000F824F824F824DB24DF24E324E924ED24A5
:1000E000F824F3243C00FF0F3200B80B280060090D
:1000F0001E00D007140008070000000200080E00D0
:1001000000030401000B00000000000000000000DC
:100110000000000000000408020110408040102090
:1001200040804080080204018040201002011080BD
:1001300010204040040404040403040502020202E7
:100140000403020202020606060606060404020270
:100150000204000000002300260029002C002F00CC
:1001600000000000250028002B002E0031000000B8
:100170000000240027002A002D003000080B000298
:10018000020201000904000001020200000524002F
:1001900010010524010101042402060524060001C2
:1001A0000705810310004009040100020A00000055
:1001B000070502024000000705830240000000001E
:1001C0000000000000002A2B2800000000000000B2
:1001D00000000000000000000000000000002C9E55
:1001E000B4A0A1A2A434A6A7A5AE362D3738271EE9
:1001F0001F20212223242526B333B62EB7B89F848F
:1002000085868788898A8B8C8D8E8F909192939426
:1002100095969798999A9B9C9D2F3130A3AD350464
:1002200005060708090A0B0C0D0E0F101112131406
:1002300015161718191A1B1C1DAFB1B0B50009040B
:1002400002000103000000092101010001226500F4
:100250000705840340000105010902A1010901A16C
:10026000008501050919012903150025019503756C
:1002700001810295017505810305010930093109E4
:10028000381581257F750895038106C0C0050109D1
:1002900006A1018502050719E029E715002501756A
:1002A0000195088102950175088103950675081569
:1002B0000025650507190029658100C000C18081FE
:1002C000C1120100020200004041233680000101FA
:1002D00002000112010002000000404123368000AC
:1002E00001010200011803410072006400750069F9
:1002F000006E006F0020004C004C004300220341C0
:100300000072006400750069006E006F0020004CF0
:100310000065006F006E006100720064006F0004F1
:100320000309044E414E494E495459494E46CDCCDD
:10033000CC3D0AD7233C17B7D13877CC2B329595D3
:10034000E6241FB14F0A000020410000C8420040CF
:100350001C4620BCBE4CCA1B0E5AAEC59D74004044
:100360007A10F35A00A0724E18090010A5D4E800C4
:1003700000E87648170000E40B54020000CA9A3BDC
:10038000000000E1F5050000809698000000404262
:100390000F000000A08601000000102700000000F0
:1003A000E803000000006400000000000A000000F4
:1003B00000000100000000002C76D888DC674F08A0
:1003C00023DFC1DFAE59E1B1B796E5E3E453C63AA6
:1003D000E651997696E8E6C28426EB898C9B62ED1D
:1003E000407C6FFCEFBC9C9F40F2BAA56FA5F490D7
:1003F000055A2AF75C936B6CF9676DC11BFCE0E44E
:100400000D47FEF520E6B500D0ED902E03009435A3
:1004100077050080841E080000204E0A000000C8F6
:100420000C333333330F986E12831141EF8D211447
:10043000893BE65516CFFEE6DB18D1844B381BF717
:100440007C1D901DA4BBE424203284725E228100B6
:10045000C9F124ECA1E53D2722229826C527512980
:1004600098294D2211241FBECFEFDAE0DEBFCDBFA9
:1004700012E0A0E0B1E0E4EDF4E702C005900D92D7
:10048000A03EB107D9F714E0A0EEB2E001C01D9282
:10049000A63FB107E1F714E0C2E6D4E004C022971A
:1004A000FE010E94D62FC835D107C9F70E94A7299F
:1004B0000C945D3A0C940000CB010C949235CB0166
:1004C000642F0C949A35CF93DF93EC0160E08E811A
:1004D0000E94322581E090E00E945F2461E08E81DD
:1004E0000E94322581E090E00E945F2460E08E81CE
:1004F0000E94322584E690E0DF91CF910C945F2436
:10050000CF92DF92EF92FF920F931F93CF93DF93DF
:100510007C01C0E0D0E0C62ED12C87010C0F1D1F3E
:1005200061E0F80187810E94F924B6010C2E02C017
:10053000759567950A94E2F76170F80187810E94CA
:1005400032252196C430D10541F7C701DF91CF9103
:100550001F910F91FF90EF90DF90CF900C9463026A
:10056000CF92DF92EF92FF920F931F93CF93DF937F
:100570007C01C0E0D0E0C62ED12C87010C0F1D1FDE
:1005800061E0F80187810E94F924B6010C2E02C0B7
:10059000759567950A94E2F76170F80187810E946A
:1005A00032252196C830D10541F7C701DF91CF919F
:1005B0001F910F91FF90EF90DF90CF900C9463020A
:1005C0001F93CF93DF93EC01162F642F8C810E9431
:1005D00032258D818F3F19F060E00E9432258F8592
:1005E000612F84FF06C0CE01DF91CF911F910C9443
:1005F000B00270E084E0759567958A95E1F7CE01C9
:100600000E948002612FCE01DF91CF911F910C9447
:10061000800240E00C94E00261E00E94090380ED5A
:1006200097E00C945F24CF93DF93CDB7DEB7289784
:100630000FB6F894DEBF0FBECDBF28E0E4E1F1E0D5
:10064000DE01119601900D922A95E1F7FC012389B4
:10065000421710F04FEF420FFE013196E40FF11DEB
:10066000E40FF11D2081260F2068622F28960FB617
:10067000F894DEBF0FBECDBFDF91CF910C9409037C
:10068000FC016089262F2460208B6C600C94090388
:10069000CF93DF93EC01423018F08F8588608F870D
:1006A0004B8B1C8A222329F0413019F48F858460FA
:1006B0008F8780E593EC0E945F2460E08C810E942C
:1006C000322560E08E810E9432258D818F3F19F0A6
:1006D00060E00E9432256F8564FD1DC063E0CE019D
:1006E0000E94800284E991E10E945F2463E0CE01D0
:1006F0000E94800284E991E10E945F2463E0CE01C0
:100700000E94800286E990E00E945F2462E0CE01B0
:100710000E94800216C06062CE010E94090384E933
:1007200091E10E945F246F856062CE010E940903FF
:1007300086E990E00E945F246F856062CE010E948E
:1007400009036F856062CE010E94090384E0888BF3
:10075000CE010E944003CE010E940C0382E0898BEF
:1007600066E0CE01DF91CF910C9409036F927F92E6
:100770008F92AF92CF92EF920F931F93CF93DF930D
:10078000CDB7DEB73C01162F842F5D854E853F85A2
:100790009889F301848325830683E782C086A18636
:1007A0008286538744873587968761E00E94F924C3
:1007B000F30185818F3F19F061E00E94F92461E027
:1007C000F30186810E94F924112319F0F3011786A1
:1007D00003C080E1F301878720E041E060E1C301CD
:1007E000DF91CF911F910F91EF90CF90AF908F90AD
:1007F0007F906F900C9448038F92AF92CF92EF92BC
:100800000F93DC0113961C921E921297E8E2F1E01E
:10081000ED93FC931F921F921F921F928C2CAE2C73
:10082000C02EE22E042F2FEF462F61E00E94B60368
:100830000F900F900F900F900F91EF90CF90AF907F
:100840008F900895CF92DF92EF92FF920F931F93B4
:10085000CF93DF9300D0CDB7DEB78C01677088E00F
:10086000689FB00111246064C80149835A830E94C3
:1008700009034981C42E5A81D52EE12CF12CD601D1
:100880006D916D01D801ED91FC910190F081E02D09
:10089000C8010995BFEFEB1AFB0AE8E0EE16F10478
:1008A00071F70F900F90DF91CF911F910F91FF90F3
:1008B000EF90DF90CF90089541E00E94E00281E048
:1008C00090E0089561E081E10E94322561E081E1DC
:1008D0000E94F9248CB580618CBD8CB580648CBD80
:1008E00061E08FE00E94F92461E080E10C94F9243A
:1008F000811103C08CB5806202C08CB58F7D8CBD28
:1009000008959CB5937F982B9CBD08952CB5982F86
:1009100093702C7F922B9CBD9DB582FB882780F91C
:100920009E7F982B9DBD0895EF920F931F93CF93B9
:10093000DF93EC01862F688349832A83EB821D8233
:100940001C821F821E8208871A8619861C861B86B7
:1009500091E09D879E87E11002C012E001C010E087
:10096000612F0E94F924612F89810E94F924612F4F
:100970008A810E94F92488810E9468252B8130E0B9
:100980008217930721F483E090E09F838E8389810F
:100990000E9468252B8130E08217930731F48E8105
:1009A0009F8121E082279F838E83DF91CF911F91CA
:1009B0000F91EF900895CF92DF92EF92FF921F93E5
:1009C000CF93DF93EC010E9409246B017C018E859B
:1009D000882359F089859A8502979A87898789851E
:1009E0009A8597FF02C01A86198688810E94682519
:1009F0002B8130E08217930711F010E001C013E063
:100A000089810E9468252B8130E08217930711F4B9
:100A100081E018272E813F81211B20FF14C0812FE8
:100A2000992787FD90959F838E838C819D8122706D
:100A3000332727FD309521503109820F931F9D8365
:100A40008C8381E001C080E09E85992361F088233A
:100A500051F089859A85883E9B4028F489859A853E
:100A600049969A8789878091E3029091E402A09148
:100A7000E502B091E602B701A601481B590B6A0BCB
:100A80007B0B4A3051056105710508F45DC0C092C9
:100A9000E302D092E402E092E502F092E6028A815B
:100AA0000E9468252B8130E08217930781F48091A2
:100AB000E1029091E20201969093E2028093E102BA
:100AC0008937910520F083E090E09C878B878A81AD
:100AD0000E9468252B8131E0232730E0821793079D
:100AE00031F58091E1029091E202892BE1F08B8552
:100AF0009C85039719F484E090E008C08091E0029F
:100B0000823048F08C3378F486E090E09C878B87C5
:100B10001092E00208C08D85882311F08CE301C09B
:100B200081E08093E0021092E2021092E102809153
:100B3000E002882349F082508093E002811104C0D2
:100B400085E090E09C878B87DF91CF911F91FF908C
:100B5000EF90DF90CF900895FC01F89424813581C7
:100B60008085823021F4C9018170992705C08430C5
:100B700031F4C901837099279583848302C015825B
:100B8000148278948085843029F43595279535959D
:100B9000279504C0823011F43595279586858823E2
:100BA00029F081859285892F992702C080E090E005
:100BB00037FF03C0809590950895232B11F001967F
:100BC000089580E090E00895FC0183859485238555
:100BD00034852330310511F01486138608951F9251
:100BE0000F920FB60F9211242F933F934F935F9361
:100BF0006F937F938F939F93AF93BF93EF93FF93E5
:100C0000E091EC02F091ED020995FF91EF91BF9117
:100C1000AF919F918F917F916F915F914F913F9194
:100C20002F910F900FBE0F901F9018951F920F924B
:100C30000FB60F9211242F933F934F935F936F93AF
:100C40007F938F939F93AF93BF93EF93FF93E09125
:100C5000E702F091E8020995FF91EF91BF91AF9102
:100C60009F918F917F916F915F914F913F912F91C4
:100C70000F900FBE0F901F901895F894E091F60218
:100C8000F091F702DF01A458BF4F8C91E358FF4F5A
:100C9000882321F0808191E0892704C0808181111F
:100CA00002C081E0808378940895F894E091F60280
:100CB000F091F702E258FF4F808191810E94DB049E
:100CC00078940895FC0184A995A98623972341E08F
:100CD000892B09F440E06115714019F464E070E07B
:100CE00002C065E070E081EF92E00C945F028EBD7F
:100CF0000DB407FEFDCF8EB50895682F81ED93E00A
:100D00000C94FA29BC0181ED93E00C94F8299A0126
:100D1000AB01BC0181ED93E00C94BD2B9A01AB01BA
:100D2000BC0181ED93E00C94BF2B0F931F93CF93E5
:100D3000DF93CDB7DEB7A0970FB6F894DEBF0FBE36
:100D4000CDBF242F4C3008F02BE08E010F5F1F4FDA
:100D500041E00E94F931FC0101900020E9F7319750
:100D60002E2F281B822FA0960FB6F894DEBF0FBE41
:100D7000CDBFDF91CF911F910F910895FC0182A506
:100D800093A5019771F481E06330710519F0672B29
:100D900031F004C024A135A1232B09F080E090E0BC
:100DA00008956330710509F464A1442339F0862F56
:100DB00090E08230910544F401960895662339F05D
:100DC000862F90E00197089580E090E0089582E0FA
:100DD00090E00895CF93DF93EC018AA19BA1019746
:100DE00031F40E94092468AB79AB8AAB9BABDF91ED
:100DF000CF910895CF93DF93EC010E9409246CA753
:100E00007DA78EA79FA7DF91CF9108950F931F9382
:100E1000CF93DF93EC018CA986FF1FC084FD14C023
:100E20000E9409240CA51DA52EA53FA5601B710BD2
:100E3000820B930B61367A4E8105910528F08CA9BF
:100E40009DA980619DAB8CAB8CA99DA924E0969552
:100E500087952A95E1F7817001C080E0DF91CF91FD
:100E60001F910F910895DC01D496ED91FC91D597D7
:100E7000442339F0E62BF72BD596FC93EE93D497C9
:100E800008C09B01209530952E233F23FC0135ABF4
:100E900024AB6115F1E07F0719F06034710511F49E
:100EA0000C946206089560E070E081EF92E00E9489
:100EB0005C028F3011F080E0089561E070E081EF16
:100EC00092E00E945C028E30B1F762E070E081EF48
:100ED00092E00E945C028E3071F763E070E081EF77
:100EE00092E00E945C0291E08D3009F090E0892F41
:100EF00008954FE060E070E081EF92E00E945F02B1
:100F00004EE061E070E081EF92E00E945F024EE00F
:100F100062E070E081EF92E00E945F024DE063E0EA
:100F200070E081EF92E00C945F02FC0186A997A922
:100F3000442319F0682B792B04C0609570956823C1
:100F4000792377AB66AB0895462F60E070E10C948F
:100F50009507FC0186A997A99B0128233923232BF8
:100F600059F4442319F0682B792B04C060957095CF
:100F70006823792377AB66AB0895FC0124A135A1E2
:100F800075A364A3411106C041E02617370719F481
:100F900040E001C041E060E071E00C94A907FC0171
:100FA00022A533A573A762A741E02617370709F4E6
:100FB00040E060E072E00C94A9070F931F93CF9379
:100FC000DF93EC010EA11FA128A539A54EA35FA3B5
:100FD00068A779A781E0041715072607370709F4E2
:100FE00080E0482F60E074E0CE010E94A907CE01A6
:100FF000DF91CF911F910F910C94FA060F931F93DD
:10100000CF93DF93EC010EA11FA128A539A5400FB6
:10101000511F621F731F4EA35FA368A779A781E0CA
:10102000041715072607370709F480E0482F60E00A
:1010300074E0CE010E94A907CE01DF91CF911F91EC
:101040000F910C94FA06CF93DF93EC018AA19BA138
:101050007BA36AA341E08617970709F440E060E0AC
:1010600078E0CE010E94A9078AA19BA1019719F4FB
:101070000E94092403C060E070E0CB0168AB79AB4B
:101080008AAB9BABDF91CF9108950F931F93CF93C2
:10109000DF93EC018AA19BA10197C1F40E9409246E
:1010A00008A919A92AA93BA9601B710B820B930BF4
:1010B000693B7B408105910548F060E070E0CE011E
:1010C000DF91CF911F910F910C942308DF91CF9165
:1010D0001F910F9108952F923F924F925F926F92BE
:1010E0007F928F929F92AF92BF92CF92DF92EF92B8
:1010F000FF920F931F93CF93DF9300D000D0CDB713
:10110000DEB79A8389833B015C834B8318012901F5
:1011100020E030E0A901C201B1010E943F3087FD0B
:1011200028C0A5019401C201B1010E948E31181698
:101130001CF16A94672811F4F70101C0F60160817F
:10114000718182819381208231824282538211E0B7
:10115000A20191010E943F30811101C010E0412F96
:101160006B817C8189819A810E94A90782E090E04D
:1011700005C081E090E002C080E090E00F900F9009
:101180000F900F90DF91CF911F910F91FF90EF90F3
:10119000DF90CF90BF90AF909F908F907F906F9097
:1011A0005F904F903F902F9008958F929F92AF92B3
:1011B000BF92CF92DF92EF92FF920F931F93F901AC
:1011C0006C012CE0C20ED11C7C0128E0E20EF11C67
:1011D000E130F10519F4A2E0B0E002C0A4E0B0E013
:1011E0001DE3812E1AE0912E1BEFA12E10E4B12EEB
:1011F0008A019B01AD01BF010E946B081F910F91F5
:10120000FF90EF90DF90CF90BF90AF909F908F9026
:1012100008958F929F92AF92BF92CF92DF92EF92FA
:10122000FF920F931F93CF93DF93EC017C0120E19A
:10123000E20EF11CFFE68F2EF2E19F2EF3E0AF2EBF
:10124000F1E4BF2E67018A019B0148E050E061E0B4
:1012500070E00E946B088C018230910509F0B1C0EA
:10126000C888D988EA88FB8820E030E0A901C70156
:10127000B6010E943F30FE01E85AFF4F81111AC0AB
:101280008081882309F49DC0108285E08093E90263
:1012900080E09AEF9093EB028093EA02909397009C
:1012A0008093960085E180939100C75ADF4F81E0DB
:1012B000888387C08081811102C081E0808320E023
:1012C00030E04AE754E4C701B6010E94923120E0C1
:1012D00030E04AE754E40E9492310E94B030E3E0EB
:1012E000660F771F881F991FEA95D1F76115710561
:1012F00021E08207910540F421E02093E9027093F8
:10130000EB026093EA0250C06115710528E0820784
:10131000910568F422E02093E902DC01CB0153E05F
:10132000B695A795979587955A95D1F739C06115C8
:10133000710520E48207910568F423E02093E90217
:10134000DC01CB0146E0B695A795979587954A9520
:10135000D1F726C061157105810521E0920740F49F
:1013600024E02093E902BB27A92F982F872F18C0CC
:1013700061157105810524E0920768F425E020934A
:10138000E902DC01CB012AE0B695A79597958795F0
:101390002A95D1F705C085E08093E9028FEF9FEF92
:1013A0009093EB028093EA028091EA029091EB0223
:1013B00090939700809396008091E90280618093DA
:1013C0009100C801DF91CF911F910F91FF90EF9095
:1013D000DF90CF90BF90AF909F908F9008958F92A5
:1013E0009F92AF92BF92CF92DF92EF92FF920F93B4
:1013F0001F93F9016C0128E1C20ED11C7C0124E18C
:10140000E20EF11CE130F10519F4A0E2B0E002C0F7
:10141000A0E4B0E01EEA812E17E4912E1CE3A12E79
:1014200013E4B12E8A019B01AD01BF010E946B083C
:101430001F910F91FF90EF90DF90CF90BF90AF90F2
:101440009F908F9008958F929F92AF92BF92CF926C
:10145000DF92EF92FF92CF93DF93EC014A015B01A1
:10146000CC80DD80EE80FF802130310509F4DDC0C5
:101470002230310509F4B0C0232B09F0CCC121E0A2
:1014800030E00E94D508009771F00197E1F421E067
:1014900030E040E050E0BA01CE010E94D50840E0C3
:1014A00050E0BA010DC021E030E04DE35AE06BEFAF
:1014B00070E4CE010E94D50842E55FE060E070E094
:1014C000CE010E94DD0720E030E04AE754E4C70186
:1014D000B6010E94433020E030E04AE754E40E9425
:1014E00092316B017C0120E030E04AE754E46885EA
:1014F00079858A859B850E94433020E030E04AE769
:1015000054E40E9492319B01AC01C701B6010E94D4
:10151000923120E030E04AE754E40E94433020E07A
:1015200030E04AE754E40E949231AB01BC0121E073
:1015300030E0CE010E94EF09892B09F06CC1A701B0
:1015400096016EEA77E48CE393E40E94433020E056
:1015500030E04AE754E40E94433020E030E04AE7BC
:1015600054E40E949231AB01BC0121E030E0CE0195
:101570000E94D50820E030E04AE754E46885798588
:101580008A859B850E94433020E030E04AE754E49E
:101590000E9492314B015C019B01AC01C701B60175
:1015A0000E94923120E030E04AE754E40E94433048
:1015B00020E030E04AE754E40E949231AB01BC01E4
:1015C00021E030E0CE010E94EF0920E030E04AEF58
:1015D00053E4C501B401BCC00E9409090097C9F0D9
:1015E000019709F018C140E050E0BA01CE010E9415
:1015F000090940E050E0BA01CE01DF91CF91FF90A0
:10160000EF90DF90CF90BF90AF909F908F900C9411
:10161000DD074FE652E163E071E4CE010E94090963
:1016200040E050E260E070E0E7CF20E030E0A90168
:10163000C701B6010E943F3081110CC020E030E0AC
:10164000A901C501B4010E948E3118161CF4812C29
:10165000912C540121E030E0B501A401CE010E949B
:10166000EF09009791F0019709F085C021E030E083
:1016700040E050E0BA01CE010E94EF0940E050E0A6
:10168000BA01CE010E94DD0776C021E030E04EEACB
:1016900057E46CE373E4CE010E94EF0920E030E0F0
:1016A000A901C701B6010E948E311816ACF520E0E1
:1016B00030E04AE754E46C897D898E899F890E94D5
:1016C000433020E030E04AE754E40E9492314B017D
:1016D0005C0120E030E04AE754E4C701B6010E9413
:1016E000433020E030E04AE754E40E9492319B010D
:1016F000AC01C501B4010E94433020E030E04AE76C
:1017000054E40E94433020E030E04AE754E40E9471
:101710009231AB01BC0103C040E050E0BA0121E0CE
:1017200030E0CE010E94D50820E030E04AE754E4E2
:101730006C897D898E899F890E94433020E030E04A
:101740004AE754E40E94923120E030E04AE754E452
:101750000E94923120E030E04AE754E40E94433096
:1017600020E030E04AE754E40E9492310E94AB301E
:10177000AB01BC0141CF20E030E0A901C701B601B7
:101780000E948E311816ACF520E030E04AE754E4B0
:101790006C897D898E899F890E94433020E030E0EA
:1017A0004AE754E40E9492314B015C0120E030E0B2
:1017B0004AE754E4C701B6010E94433020E030E01C
:1017C0004AE754E40E9492319B01AC01C501B40187
:1017D0000E94433020E030E04AE754E40E94433066
:1017E00020E030E04AE754E40E949231AB01BC01B2
:1017F00003C040E050E0BA0121E030E0CE01DF91CB
:10180000CF91FF90EF90DF90CF90BF90AF909F90DF
:101810008F900C94D508DF91CF91FF90EF90DF90DF
:10182000CF90BF90AF909F908F900895FB0180E084
:101830006CE8415088F0519198E0752F7827282F57
:1018400030E035952795822F70FF02C0862F8227C2
:101850005695915091F7EDCF08952F923F924F9268
:101860005F926F927F928F929F92AF92BF92CF9230
:10187000DF92EF92FF920F931F93CF93DF93CDB739
:10188000DEB762970FB6F894DEBF0FBECDBF4C0136
:101890007B016A018E01035F1F4FCE0101962C016F
:1018A0001E0191E1290E311C1A8B098B52013B015B
:1018B000601A710AB301600F711F81EF92E00E94FC
:1018C0005C02F80181938F01F20181932F010215CF
:1018D000130581F78E01075F1F4F2E01F5E04F0EB4
:1018E000511C37016A187B08B301640D751D81EF27
:1018F00092E00E945C02F80181938F01F2018193D2
:101900002F0189899A890817190771F7B701685F4C
:101910007F4F81EF92E00E945C02182F48E0B501F2
:10192000C4010E94160C181311C08D859E85AF85C9
:10193000B889F60180839183A283B38389859A85D0
:10194000AB85BC8584839583A683B78362960FB6E7
:10195000F894DEBF0FBECDBFDF91CF911F910F91E5
:10196000FF90EF90DF90CF90BF90AF909F908F90BF
:101970007F906F905F904F903F902F900895EF92DF
:10198000FF920F931F93CF93DF937C018C01085C30
:101990001F4FC6E0D0E0A801BE01C7010E942D0C78
:1019A0002996085F1F4FCA32D105A9F7DF91CF9161
:1019B0001F910F91FF90EF9008952F923F924F92B9
:1019C0005F926F927F928F929F92AF92BF92CF92CF
:1019D000DF92EF92FF920F931F93CF93DF93CDB7D8
:1019E000DEB76B970FB6F894DEBF0FBECDBF5C01BC
:1019F0006B01E98AFA8A0B8B1C8B2D8B3E8B4F8BEC
:101A0000588F89899A89AB89BC898D879E87AF87D2
:101A1000B88B8D899E89AF89B88D89879A87AB8766
:101A2000BC87C5010E945307882309F44BC07E017F
:101A30008DE0E80EF11C8E010F5F1F4F28014E0153
:101A4000E5E08E0E911C1701098F1A8F36016E1872
:101A50007F08B3016E0D7F1DF70121917F01422F99
:101A600081EF92E02B8F0E945F022B8DF801219372
:101A70008F01E815F90569F77E01F9E0EF0EF11C19
:101A8000460184189508F70171907F01B401600F39
:101A9000711F472D81EF92E00E945F02F801719261
:101AA0008F01E214F30479F748E0698D7A8DC5015E
:101AB0000E94160CB601685F7F4F482F81EF92E0BD
:101AC0000E945F026B960FB6F894DEBF0FBECDBFCB
:101AD000DF91CF911F910F91FF90EF90DF90CF900A
:101AE000BF90AF909F908F907F906F905F904F903E
:101AF0003F902F900895AF92BF92CF92DF92EF92D6
:101B0000FF920F931F93CF93DF935C01C12CD12CD5
:101B1000C6E0D0E0F601379693E0EE0FFF1F9A95EE
:101B2000E1F7EA0DFB1DE080F18002811381248141
:101B3000358146815781BE01C5010E94DD0C299681
:101B40008FEFC81AD80ACA32D10521F7DF91CF9199
:101B50001F910F91FF90EF90DF90CF90BF90AF90CB
:101B60000895CF93DF93EC010E94790741E064E090
:101B700070E081EF92E00E945F0241E065E070E07A
:101B800081EF92E00E945F02CE01DF91CF910C9431
:101B90007B0DCF93DF93EC010E945307811103C0AB
:101BA000CE010E94B10D64E070E081EF92E00E94EE
:101BB0005C0241E0813009F040E060E071E0CE017C
:101BC0000E94330765E070E081EF92E00E945C02C2
:101BD00041E0813009F040E060E470E0CE010E9415
:101BE0003307CE01DF91CF910C94BF0CCF93DF93DD
:101BF000EC0118828FEF89837B836A831C821D82AC
:101C00001E821F82188619861A861B861C861D86D0
:101C10001E861F86188A198A1A8A1B8A1C8A1D8AA0
:101C20001E8A1F8A188E198E1A8E1B8E1D8E1C8E70
:101C30008FEF90E09F8F8E8F99A388A31BA21AA28B
:101C40001DA21CA21EA21FA218A619A61BA61AA698
:101C50001CA61DA61EA61FA618AA19AA1AAA1BAA68
:101C60001DAA1CAA8FEF9FEF9FAB8EABFE01E85A17
:101C7000FF4F1082FE01E75AFF4F81E0808340E072
:101C800050E060E87FE348AF59AF6AAF7BAF1CAE6E
:101C90001DAE1EAE1FAEFE01E05CFF4F40835183C0
:101CA00062837383FE01EC5BFF4F1082118212820C
:101CB0001382FE01E85BFF4F40835183628373838D
:101CC000FE01E45BFF4F1082118212821382FE013B
:101CD000E05BFF4F4083518362837383FE01EC5AC4
:101CE000FF4F1082118212821382CE010E94C90D11
:101CF0008EA99FA99F7E9FAB8EABDF91CF91089558
:101D0000FC012081822F90E003971CF42F5F208339
:101D1000089510820895FC01208130E081E090E078
:101D20004AE050E021153105A1F020FF08C0BC01B8
:101D3000649FC001659F900D749F900D112435958F
:101D40002795FA01EE9FA001EF9F500D500D112431
:101D5000E9CF0895662321F06330B0F40C948B0E24
:101D60000E948B0E8436910599F0883E23E09207FD
:101D700029F00A9731F485E090E0089584EF91E02E
:101D8000089581E090E00895FC01808190E008953D
:101D900082E390E00895FC01658B468B20E00C9473
:101DA00048036F927F928F92AF92CF92EF920F93F0
:101DB000CF93DF93CDB7DEB73C010E94FC0387E8E9
:101DC00092E0F30191838083158A168A178A108E18
:101DD000482D6A2DC301DF91CF910F91EF90CF90E5
:101DE000AF908F907F906F900C94CB0EFC01678B1F
:101DF000408F0C941303FF920F931F93CF93DF93A5
:101E00008C01EB01209749F1FB0101900020E9F7DB
:101E10003197E61BF70BDC0155966C916E1738F085
:101E200070E06E1B710975956795F62E01C0F12C57
:101E3000F801408D6F2DC8010E94F60EBE01C80149
:101E40000E94F829FE0101900020E9F73197EC1B70
:101E5000FD0BEF0DD8015796EC93DF91CF911F91B9
:101E60000F91FF900895FF920F931F93CF93DF93ED
:101E70008C01EA01462F64E00E94F60EF4E0FF2E8A
:101E80002D968F2D90E0C817D90734F060E2C80175
:101E90000E945C04F394F5CFDF91CF911F910F91D5
:101EA000FF9008954F925F926F927F928F92AF92C0
:101EB000CF92EF920F93CF93DF93CDB7DEB73C0174
:101EC0002B01642F422F202F0E2DEC2CCA2CA82C76
:101ED0008E840E94D10E8FE892E0F301918380837B
:101EE000528E418E138E148E158E168E178E10A262
:101EF00011A212A213A2DF91CF910F91EF90CF9078
:101F0000AF908F907F906F905F904F900895FF9269
:101F10000F931F93CF93DF938C0161E08BE00E94BE
:101F2000F92461E08BE00E943225C3E4D2E0F12C79
:101F3000AE016F2DC8010E942204F394289688E018
:101F4000F812F6CFDF91CF911F910F91FF90089576
:101F5000EF92FF920F931F93CF93DF93CDB7DEB72E
:101F600065970FB6F894DEBF0FBECDBF8C010E94FF
:101F70000C0341E060E0C8010E94F60E6CE271E0E3
:101F8000C8010E94FB0E1F9286E08F931F9282E091
:101F90008F938FE391E09F938F931F9284E18F93B0
:101FA000CE0101967C01FF928F930E94903343E013
:101FB00060E0C8010E94F60EB701C8010E94FB0E46
:101FC00068EB7BE080E090E00E9439240FB6F89443
:101FD000DEBF0FBECDBF65960FB6F894DEBF0FBE55
:101FE000CDBFDF91CF911F910F91FF90EF9008959A
:101FF0006F927F928F929F92AF92BF92CF92DF9219
:10200000EF92FF920F931F93CF93DF93EC014B015D
:102010003901B42ED52E40E050E06C2D0E94330FD4
:102020008114910449F043E0B3018B2D9D2D0E9452
:1020300095066DE0681B01C064E04C2DCE010E9446
:10204000F60E892819F43701B02ED12E23E030E0A6
:10205000A3016B2D7D2DCE010E94BD2B6A2DCE01DB
:10206000DF91CF911F910F91FF90EF90DF90CF9074
:10207000BF90AF909F908F907F906F900C94FA29B3
:10208000FF920F931F93CF93DF938C01F62E66235D
:1020900019F0C2E0D0E013C0CEEFD0E010C0CF3FC7
:1020A000D10598F4BE018BE00E94322362E070E01B
:1020B00080E090E00E943924FF2021F02296FF204A
:1020C00011F0EDCF2297209769F76F2D8BE00E94DA
:1020D000322581E08F25F801838FDF91CF911F9109
:1020E0000F91FF90089560E00C94401061E00C9413
:1020F0004010CF93DF93EC010E9409246C8F7D8FF9
:102100008E8F9F8F8B8D882329F0CE01DF91CF9109
:102110000C947610DF91CF9108952F923F924F92B9
:102120005F926F927F928F929F92AF92CF92DF9247
:10213000EF92FF920F931F93CF93DF9300D000D0C5
:10214000CDB7DEB79C838B83FC01618C728C0E94BF
:102150000924EB81FC8100A111A122A133A16B0113
:102160007C01C01AD10AE20AF30A97018601A30191
:10217000485A5F4F4A01093C11052105310508F411
:102180009EC1F301B496FA83E983EB81FC8160A3DD
:1021900071A382A393A3F301E25BFF4F808191813E
:1021A000009721F0019709F41DC189C12301FAE5C7
:1021B0004F0E511CF2018081918191FF48C08B81AB
:1021C0009C810E940C0340E061E08B819C810E9415
:1021D000F60E67E471E08B819C810E94F82940E053
:1021E0006DE08B819C810E94F60E6FED8B819C814E
:1021F0000E94FA296BE471E08B819C810E94F8298E
:1022000041E061E08B819C810E94F60E65E871E0FF
:102210008B819C810E94F82943E061E08B819C8145
:102220000E94F60E6FE471E08B819C810E94F82978
:1022300042E061E08B819C810E94F60E63E571E0D3
:102240008B819C810E94F829DD24D39401C0D12C7C
:10225000F201808180FD68C1D11066C1F2018081E8
:1022600087FD86C1D11084C1F301EA5BFF4F208056
:102270003180F2018081918193FF05C0977F918326
:102280008083DD24D3942114310419F424E030E058
:1022900002C022E030E0F201808191818223932309
:1022A000892B11F4DD2009F1F301E0A8F1A802A9BE
:1022B00013A924A535A546A557A581E4A82ECC24AD
:1022C000C394B1018B819C810E94F80F21143104C9
:1022D00009F072C184E090E080959095F201208130
:1022E00031818223932391838083F201808183FD56
:1022F00066C1D11064C12114310419F420E430E026
:1023000002C020E230E0F201808191818223932398
:10231000892B11F4DD2001F1F301E4ACF5AC06AD3D
:1023200017AD20AD31AD42AD53ADA7E5AA2EB2E059
:10233000CB2EB1018B819C810E94F80F232809F4D8
:1023400055C180E290E080959095F2012081318125
:102350008223932391838083F20180819181882756
:102360009370892B09F045C1D11043C1F30194A1A9
:1023700085A1981384C1D11082C1F401808191811B
:102380009C012270332780FF06C0232B09F48BC1E8
:10239000D11089C105C0232B09F091C1D1108FC183
:1023A000F401808191819C012870332782FF06C04F
:1023B000232B09F494C1D11092C105C0232B09F03D
:1023C0009AC1D11098C189819A810E9406078823F9
:1023D00009F4ADC1F4018081918185FF9CC1D110C8
:1023E0009AC1A5C18B819C810E94791089819A81B3
:1023F0000E94FA068301065A1F4FF80180819181DD
:1024000091FF2EC08B819C810E940C0340E060E014
:102410008B819C810E94F60E67E571E08B819C8127
:102420000E94F829F801808191819D7F91838083AA
:1024300041E060E08B819C810E94F60E60E671E0D5
:102440008B819C810E94FB0E42E060E08B819C812D
:102450000E94F60E6CE671E08B819C810E94FB0E5F
:10246000F8018081918188279370892B09F011C22E
:1024700010E0F401808191819C012227327090FF4D
:1024800006C0232B09F44AC2111148C205C0232BF0
:1024900009F050C211114EC2F401808191819C015A
:1024A0002078332786FF06C0232B09F453C211116D
:1024B00051C205C0232B09F059C2111157C2F401B2
:1024C0008081918190FF62C2EB81FC81838D8111BB
:1024D0005DC20E940924EB81FC81048D158D268D3F
:1024E000378D601B710B820B930B603C77428940E8
:1024F000910508F44BC28B819C810F900F900F9037
:102500000F90DF91CF911F910F91FF90EF90DF908F
:10251000CF90AF909F908F907F906F905F904F90F3
:102520003F902F900C9473104EEF5FEF60E08B8123
:102530009C810E94330F40E064E08B819C810E946B
:10254000F60EF30140A551A562A573A523E030E086
:102550008B819C810E94BD2B66E58B819C810E94B2
:10256000FA29F201808191818E7F9183808376CEDA
:1025700040E061E18B819C810E94F60E66E771E08C
:102580008B819C810E94F82940E061E18B819C81D4
:102590000E94F60EF301E05CFF4F608171814AE01A
:1025A00050E08B819C810E94CC2AF2018081918134
:1025B0008F779183808358CE82E090E08DCEF301B7
:1025C00024A935A946A957A913E7A12E03E0C02ED7
:1025D00079018A01B1018B819C810E94F80FF2017F
:1025E00080819181877F9183808385CE80E490E094
:1025F000AACEF301E85BFF4F10811F5F612F70E0EF
:102600006150710940E089819A810E94BE0601E013
:10261000080F402F60E08B819C810E94F60E60E2E3
:102620008B819C810E94FA29402F6EE08B819C81D6
:102630000E94F60E67E771E08B819C810E94F82969
:10264000412F60E08B819C810E94F60E6BE58B81AF
:102650009C810E94FA29412F6EE08B819C810E940F
:10266000F60E6DE58B819C810E94FA29F201808132
:1026700091819E7F91838083DD24D39477CEF30173
:10268000E85BFF4F40814F5F6FE08B819C810E9430
:10269000F60EF30164A18B819C810E945C04F3011E
:1026A00084A185A36ACE8260F4019183808343E094
:1026B00061E18B819C810E94F60E60ED0BC08D7FE5
:1026C000F4019183808343E061E18B819C810E94CE
:1026D000F60E60E28B819C810E945C0461CE886072
:1026E000F4019183808343E062E18B819C810E94AD
:1026F000F60E64E00BC0877FF4019183808343E092
:1027000062E18B819C810E94F60E60E28B819C814C
:102710000E945C0458CE8062F4019183808343E080
:1027200063E18B819C810E94F60E65E04EC0F4014E
:102730008081918184FD04C085FD3CC0D1103AC0E8
:10274000F401808191819C012227387092FF06C09C
:10275000232B09F43FC0D1103DC005C0232B09F045
:1027600046C0D11044C0F401808191819C01222790
:10277000307294FF06C0232B09F44AC0D11048C020
:1027800005C0232B09F051C0D1104FC0F401808146
:1027900091819C012227307896FF06C0232B09F4F3
:1027A00055C0D11053C08BCE232B09F05CC0D11083
:1027B0005AC085CE8F7DF4019183808343E063E12D
:1027C0008B819C810E94F60E60E28B819C810E942D
:1027D0005C04B6CF9860F4019183808341E062E1AC
:1027E0008B819C810E94F60E6AE771E00CC0977F96
:1027F000F4019183808341E062E18B819C810E949E
:10280000F60E67E771E08B819C810E94F829ABCFBF
:102810009062F4019183808342E062E18B819C812C
:102820000E94F60E6DE771E00CC09F7DF40191836C
:10283000808342E062E18B819C810E94F60E67E713
:1028400071E08B819C810E94F829A0CF9068F401EF
:102850009183808340E06DE08B819C810E94F60E25
:1028600060E871E011C09F77F4019183808340E0BC
:102870006DE08B819C810E94F60E6FED8B819C81B7
:102880000E94FA2966E072E08B819C810E94F829FF
:1028900016CEF301E85BFF4FF080F3946F2D70E0EC
:1028A0006150710940E089819A810E94BE06EE2440
:1028B000E394E80E4E2D61E08B819C810E94F60E20
:1028C00060E28B819C810E94FA294E2D62E18B810E
:1028D0009C810E94F60E60E28B819C810E94FA2905
:1028E0004F2D61E08B819C810E94F60E6BE58B8100
:1028F0009C810E94FA294F2D62E18B819C810E946C
:10290000F60E6DE58B819C810E94FA29F801808189
:1029100091819E7F9183808311E0ABCD9260F40121
:102920009183808341E062E08B819C810E94F60E5E
:1029300067E00BC09D7FF4019183808341E062E0FA
:102940008B819C810E94F60E66E08B819C810E94A7
:102950005C04A2CD8068F4019183808342E062E050
:102960008B819C810E94F60E67E00BC08F77F4018B
:102970009183808342E062E08B819C810E94F60E0D
:1029800066E08B819C810E945C0499CD0F900F9032
:102990000F900F90DF91CF911F910F91FF90EF90CB
:1029A000DF90CF90AF909F908F907F906F905F90CF
:1029B0004F903F902F900895CF93DF93EC01862F97
:1029C000688349831B821C8260E00E94F92461E0D5
:1029D00089810E94F92460E089810E9432258881E2
:1029E0000E9468258A83DF91CF910895FC0164835A
:1029F00081810C943225CF93DF93EC0188810E9472
:102A000068259A81981781F08A8391E0813009F0D6
:102A100090E09B83992341F06C8181E06827CE018F
:102A2000DF91CF910C94F614DF91CF910895CF935D
:102A3000DF93EC018CA99DA986239723892B21F490
:102A400041E0CE010E9433078A819B8160E08F5371
:102A50009F4FDF91CF910C94F6148F929F92AF927B
:102A6000BF92CF92DF92EF92FF920F931F93CF937B
:102A7000DF93EC017C0184E0E80EF11C812C912CA9
:102A800090ECA92E91E4B92E67018A019B0141E0E7
:102A900050E060E070E0CE010E946B088C0100976E
:102AA00029F460E074E0CE010E941715C801DF919F
:102AB000CF911F910F91FF90EF90DF90CF90BF903B
:102AC000AF909F908F900895CF93DF93EC018C8D02
:102AD0009D8D7D8F6C8F41E08617970709F440E04C
:102AE00060E870E0CE010E94A9078C8D9D8D813534
:102AF000910538F060E070E4CE01DF91CF910C9445
:102B000017158CA99DA996FF03C09F7B9DAB8CAB2D
:102B1000DF91CF9108954F925F926F927F928F9243
:102B20009F92AF92BF92CF92DF92EF92FF920F935C
:102B30001F93CF93DF93CDB7DEB73C011B89FC8891
:102B4000BD889E885F88488C8F928A2CAC2CCE2CB6
:102B5000E02E022F242F462FBC010E94520F87E93E
:102B600092E0F30191838083B301C30184960E94B4
:102B7000F60D8FE090E00E94B8296C01E12C042D45
:102B8000252D492D6B2D0E949404F301E258FF4F2F
:102B9000D182C082F301E054FF4F10820F904F2D7D
:102BA000612FC3018F539F4FDF91CF911F910F91E1
:102BB000FF90EF90DF90CF90BF90AF909F908F905D
:102BC0007F906F905F904F900C94DC1427E832E078
:102BD000FC013183208308950F931F93CF93DF93DC
:102BE0008C01FC01E25BFF4F80819181009721F015
:102BF000019709F475C0B6C06630710509F0B2C01E
:102C0000E801A49641E063E070E0CE010E94BE06B8
:102C100040E0BC01CE010E94BD074FEF5FEFBA015B
:102C2000CE010E94FE07F801E85BFF4F8081918191
:102C30008130910509F44AC082309105C9F0892B91
:102C400009F090C020E030E04AE754E4F80164A5C0
:102C500075A586A597A50E94433020E030E04AE79D
:102C600054E40E94923120E030E04AEF53E415C072
:102C700020E030E04AE754E4F80164A975A986A988
:102C800097A90E94433020E030E04AE754E40E94D4
:102C9000923120E030E04AE754E40E94923120E093
:102CA00030E04AE754E40E94433020E030E04AE755
:102CB00054E40E9492310E94AB30AB01BC01CE01C2
:102CC000DF91CF911F910F910C94DD0720E030E050
:102CD0004AE754E4F80160AD71AD82AD93ADD1CF58
:102CE00065307105A1F066307105E1F50C5D1F4F8F
:102CF00041E063E070E0C8010E94BE0640E0BC0114
:102D0000C801DF91CF911F910F910C94BD07F8017D
:102D1000E85BFF4F80819181009791F0019711F559
:102D2000F801E85AFF4F4081518126E056954795BA
:102D30002A95E1F781E04827417060E470E00AC01D
:102D4000F801E85AFF4F418150E0F1E04F27417010
:102D500060E071E0C8018496DF91CF911F910F91DF
:102D60000C943307DF91CF911F910F910895CF936A
:102D7000DF93C62FF89460E088E00E94322586E059
:102D80000E9477068C2F8295880F880F807C0E9486
:102D90007706D82F80E00E947706C82F61E088E090
:102DA0000E9432257894DF706C2F70E07D2B80E0DC
:102DB00090E00E94DC302FE632E143E050E40E94D4
:102DC000923120E030E040E859E30E949231DF91F7
:102DD000CF9108958F929F92AF92BF92CF92DF9240
:102DE000EF92FF920F931F93CF93DF9300D000D009
:102DF000CDB7DEB76C01FC01E45AFF4F2081318171
:102E000042815381FC01E05AFF4F80809180A28073
:102E1000B38060E029833A834B835C830E94B716BA
:102E200029813A814B815C810E9492317B018C0126
:102E300020E030E0A9010E948E31181644F4A5016B
:102E40009401B701C8010E94DB2F7B018C01F601C0
:102E5000E65AFF4F8081918194FD22C0F60180A83F
:102E600091A8A2A8B3A820E030E0A901C501B4014F
:102E70000E948E311816F4F4F601EC58FF4F2081B1
:102E8000318142815381C501B4010E9492319B017D
:102E9000AC01B701C8010E94DB2F7B018C010AC085
:102EA00087E491E00E94820645E050E0B701C80146
:102EB0000E9487062CEB34E743E15DE3B701C801CC
:102EC0000E943F3087FF04C0E12CF12C00E010E0AD
:102ED000B701C8010F900F900F900F90DF91CF9125
:102EE0001F910F91FF90EF90DF90CF90BF90AF9028
:102EF0009F908F9008954F925F926F927F928F92E2
:102F00009F92AF92BF92CF92DF92EF92FF921F9368
:102F1000CF93DF93EC01FC01EC59FF4F40805180CF
:102F200062807380FC01E859FF4F80809180A2800D
:102F3000B38015E0C12CD12C760161E0CE010E9456
:102F4000B7162DEC3CEC4CEC5DE30E9443309B014A
:102F5000AC01C701B6010E94DB2F6B017C0111504F
:102F600061F720E030E040EA50E40E944330A301E2
:102F700092010E9492316B017C0120E030E0A901B6
:102F80000E948E31181644F4A5019401C701B601C0
:102F90000E94DB2F6B017C01C65ADF4F888199812B
:102FA00094FF0AC083E891E00E94820645E050E069
:102FB000C701B6010E948E06C701B601DF91CF910D
:102FC0001F91FF90EF90DF90CF90BF90AF909F90B8
:102FD0008F907F906F905F904F900895CF93DF9385
:102FE000D62FC72F442319F0413021F001C0CF77ED
:102FF000C06301C0C06BF89460E089E00E94322594
:103000008C2F0E9477068D2F0E94770661E089E061
:103010000E9432257894DF91CF9108952F923F92AC
:103020004F925F926F927F928F929F92AF92BF92D8
:10303000CF92DF92EF92FF920F931F93CF93DF9384
:10304000CDB7DEB72C970FB6F894DEBF0FBECDBF5D
:103050009C878B878C010C5D1F4F84599F4F9E83EB
:103060008D838B859C8580599F4F98878F832B8478
:103070003C849AE5290E311CEB85FC85EC5BFF4F07
:10308000FA83E9838B859C8584589F4F9C838B832F
:10309000EB85FC85E358FF4FFA87E98720E030E0B5
:1030A0004AE754E4EB85FC8564A575A586A597A53C
:1030B0000E94433020E030E04AE754E40E9492311D
:1030C0006B017C0120E030E04AE754E4EB85FC85AD
:1030D00060A971A982A993A90E94433020E030E041
:1030E0004AE754E40E949231A70196010E943F30C2
:1030F000882309F455C0ED81FE81408051806280B3
:103100007380EF81F88580809180A280B380F10187
:103110008081918194FD39C020E030E04AE754E499
:10312000C701B6010E949231A30192010E9492311F
:10313000A50194010E94DB2F0E94B0307B01E98140
:10314000FA8180819181E816F90629F4EB81FC81EE
:1031500020812223D1F0EB81FC812081222309F4FC
:103160004BC0E985FA852081211146C0E12CF12C64
:10317000E816F90631F040E0B7018B859C850E9486
:10318000EE17E981FA81F182E0828B859C850E94AD
:103190007B17AB01BC0120E030E0C8010E94D508DC
:1031A000EB85FC8520A931A942A953A960A571A589
:1031B00082A593A50E94923120E030E04AE754E4D2
:1031C0000E94433020E030E04AE754E40E9492310C
:1031D000AB01BC0120E030E0C8010E94EF09892B5F
:1031E000A9F4F1018081918194FD10C060E070E14B
:1031F000C8010E94171552CFE114F0E1FF0608F450
:10320000B7CFEE24EA943FE0F32EB2CF2C960FB660
:10321000F894DEBF0FBECDBFDF91CF911F910F910C
:10322000FF90EF90DF90CF90BF90AF909F908F90E6
:103230007F906F905F904F903F902F9008955F9296
:103240006F927F928F929F92AF92BF92CF92DF92B6
:10325000EF92FF920F931F93CF93DF93EC016C01DA
:103260008AE5C80ED11C3E01EEE46E0E711C8E0183
:103270000C5D1F4F5E01F8E4AF0EB11C7E018AE4C5
:10328000E80EF11C4E01E8E58E0E911CF60151800E
:1032900052FA552450F8F30180819181892BC9F4A9
:1032A00051105CC016C0892BA1F4F70160817181B7
:1032B000828193810E94DE3020E030E04AEF53E4C7
:1032C0000E944330AB01BC0120E030E0C8010E9405
:1032D000230ACE010E947B17AB01BC0120E030E045
:1032E000C8010E94D508009729F097FD65C0039793
:1032F0001CF162C0F6018081918194FD1DC05520B2
:1033000031F0F40180819181906191838083F50196
:1033100080819181009741F0019709F0B7CF48E78C
:103320005FED62E070E004C042E55FE060E070E005
:10333000C8010E94DD07AACFCE01DF91CF911F9176
:103340000F91FF90EF90DF90CF90BF90AF909F9044
:103350008F907F906F905F900C940E18F501808194
:1033600091818130910591F4F701608171818281B1
:1033700093810E94DE3020E030E04AE754E40E946E
:103380004330AB01BC0121E030E0A0CF8230910599
:1033900009F089CFF70160817181828193810E9458
:1033A000DE3020E030E04AE754E40E944330AB01D5
:1033B000BC0122E030E08ACFDF91CF911F910F91C5
:1033C000FF90EF90DF90CF90BF90AF909F908F9045
:1033D0007F906F905F900895CF92DF92EF92FF926F
:1033E000CF93DF93EC0162E00E94B7166B017C0182
:1033F00063E0CE010E94B7169B01AC01C701B60184
:103400000E94DB2F20E030E040E05FE30E94923139
:1034100020E030E04AE754E40E94923120E030EAB4
:103420004BEE54E40E94DA2F25EC3EE444E351ECE9
:103430000E94433020E030E040EA51E40E94DB2F5C
:103440000E94AB30CB01DF91CF91FF90EF90DF90E6
:10345000CF9008950F931F93CF93DF93EC010E94B9
:10346000EC198C01BC01CE0184960E94641544EED7
:1034700050E020E030E0FA01859194910817190797
:10348000D8F0F901EE0FFF1FEE0FFF1FEA51FF4FBB
:1034900065917491FE01EE5BFF4F808191818617EB
:1034A000970789F07183608341E0CE01DF91CF916E
:1034B0001F910F910C94EE172F5F3F4F4C5F5F4FA2
:1034C00025303105C1F6DF91CF911F910F910895FD
:1034D00081ED93E00C94FE2581ED93E00C94912511
:1034E00081ED93E00E94B52508952F923F924F926F
:1034F0005F926F927F928F929F92AF92BF92CF9284
:10350000DF92EF92FF920F931F93CF93DF93CDB78C
:10351000DEB7CA54D1090FB6F894DEBF0FBECDBFD7
:103520008C012DB73EB72B963FAF2EAF2B9781ED79
:1035300093E00E948926A801485A5F4F6A018823B8
:1035400009F47DC00E946C1A1816190614F0E12CBB
:1035500055C0D6018D919C91119782FD03C0846066
:103560008D939C93F801E054FF4F2796FFAFEEAF89
:1035700027970E946C1A181619064CF72796AEADBD
:10358000BFAD2797EC90F12C0E94701AE00EF11E4F
:10359000F701E058FF4F80832796EEADFFAD2797E8
:1035A0002081C801820F911DFC01E058FF4F30813E
:1035B0003A3009F456C02F3309F453C02F5F2796D1
:1035C000AEADBFAD27972C93D4CFFF24F394EE2458
:1035D000E39429962EAD3FAD29970FB6F8943EBFE0
:1035E0000FBE2DBF2796AEADBFAD27971C92FF2013
:1035F00009F456C080E991E00E9482060E940924E5
:103600004B015C01F601808180FF14C08091F202C1
:103610009091F302A091F402B091F502A5019401FA
:10362000281B390B4A0B5B0B25363105410551052B
:1036300008F025C4E11023C40E94681ACDC4DA0141
:103640008D919C91119780FF03C08E7F8D939C93E9
:10365000F6018081918182FFBFC48B7F918380833B
:10366000BBC4FC01E058FF4F10822330B0F06AE386
:1036700070E0C80180589F4F0E9474335C0100972E
:1036800061F03C01BFEF6B1A7B0A6AE370E0C30193
:103690000E9474337C01009731F4F12CE12CA2CF0D
:1036A00087E991E0A9CF2DB73EB729963FAF2EAF5E
:1036B00029978A199B094C0131E0831A91084DB76B
:1036C0005EB7481B590B0FB6F8945EBF0FBE4DBFD7
:1036D0008DB79EB701965C01A401B3010E946B33C4
:1036E000F501E80DF91D10828AE30E947D0663E270
:1036F00072E0C5010E947F33892B89F51F9222E079
:103700002F931F9288E08F931F9284E08F938FE90D
:1037100091E09F938F9388EA91E09F938F931F92FC
:1037200086E08F931F922F9384EB91E09F938F936A
:103730001F9280E48F93FE0131967F01FF92EF93F9
:103740000E949033C7010E9482062DB73EB72C5EBF
:103750003F4F0FB6F8943EBF0FBE2DBF53C36EED63
:1037600071E0C5010E947F33892B61F420E030E0D5
:103770004AE754E4D8019C966D917D918D919C917E
:103780009F975CC2BFEFEB1AFB0A64EE71E0C501C4
:103790000E947F33892B09F0C5C0C7010E944133C5
:1037A00020E030E04AE754E40E94433020E030E07B
:1037B0004AE754E40E94923120E030E04AE754E4C2
:1037C0000E94433020E030E04AE754E40E94433056
:1037D00020E030E04AE754E40E9492314B015C0162
:1037E0007801E4E2EE0EF11C20E030E0AB01BC0118
:1037F000C7010E94230A20E030E04AE754E4D801E0
:103800009C966D917D918D919C919F970E944330E4
:1038100020E030E04AE754E40E94923120E030E0BA
:103820004AE754E40E94923120E030E04AE754E451
:103830000E94433020E030E04AE754E40E94923195
:1038400040E050E00E948706F801E85BFF4F80816E
:1038500091818130910541F182309105C9F0892B28
:1038600009F04CC020E030E04AE754E4F80164A5D8
:1038700075A586A597A50E94433020E030E04AE771
:1038800054E40E94923120E030E04AEF53E421C03A
:1038900020E030E04AE754E4D801D4966D917D9160
:1038A0008D919C91D79709C020E030E04AE754E41D
:1038B000F80160AD71AD82AD93AD0E94433020E060
:1038C00030E04AE754E40E94923120E030E04AE7D9
:1038D00054E40E94923120E030E04AE754E40E9430
:1038E000433020E030E04AE754E40E9492310E94E5
:1038F000AB30AB01BC01C7010E94DD07F801E65AFD
:10390000FF4F808191819B7F91838083FF24F3947B
:10391000A5019401D8019C966D917D918D919C910A
:103920009F9772C169EE71E0C5010E947F33892BB8
:1039300029F4F801EF53FF4F8481ACC16EEE71E0C2
:10394000C5010E947F33892B89F469E871E0C701C2
:103950000E947F33892B09F490C16CE871E0C701A4
:103960000E947F33892B09F48AC153C162EF71E051
:10397000C5010E947F33892B09F057C088E0ECE134
:10398000F1E0DE01119601900D928A95E1F7FE01BA
:1039900031961F01E12CF12CA12CB12C4801F4E24D
:1039A0008F0E911CF401EE0DFF1D20AD31AD42AD27
:1039B00053AD25962CAF3DAF4EAF5FAF259744ACCE
:1039C00055AC66AC77ACD1018D919D911D010E94E3
:1039D000820687EF91E00E94820648E050E025963B
:1039E0006CAD7DAD8EAD9FAD25970E94870689EFAA
:1039F00091E00E94820648E050E0C301B2010E94BB
:103A00008706B3E0AB16B10421F08EE591E00E9489
:103A10008206EFEFAE1ABE0AF8E0EF0EF11C24E0CA
:103A2000A216B10409F0BECFEDC16BEF71E0C50184
:103A30000E947F33892B09F082C069E871E0C701D9
:103A40000E947F33892B09F042C061E0C80184964F
:103A50000E94A40780E090E0A0E8BFE3F801E45AE8
:103A6000FF4F80839183A283B383F801E05AFF4F15
:103A70001082118212821382F801EC59FF4F808369
:103A80009183A283B383F801E859FF4F108211821A
:103A900012821382F801E459FF4F80839183A2833D
:103AA000B383F801E059FF4F108211821282138212
:103AB000F801EC58FF4F80839183A283B383F80110
:103AC000E858FF4F10821182128213829BC16CE86A
:103AD00071E0C7010E947F33892B61F460E07801B7
:103AE00034E2E30EF11CC7010E94A407C7010E9443
:103AF000BF0C88C16FEF71E0C7010E947F33892B33
:103B000061F4780144E2E40EF11CC7010E947B0DD0
:103B100060E0C7010E94A40775C16AE370E0C701B5
:103B20000E9474334C01009709F473C06CE270E09A
:103B30000E9474333C01009709F0C2C06AC064E07F
:103B400072E0C5010E947F33892B09F064C0F8013F
:103B5000E65AFF4F8081918194FF5DC0C7010E94AA
:103B6000453340E0BC01C8010E94EE174BC168E03C
:103B700072E0C5010E947F33892B09F047C1C7015C
:103B80000E94413320E030E04AE754E40E94433091
:103B90004B015C0122E030E0AB01BC01C80184961E
:103BA0000E94230A20E030E04AE754E4F80164A9C7
:103BB00075A986A997A90E94433020E030E04AE722
:103BC00054E40E94923120E030E04AE754E40E943D
:103BD000923120E030E04AE754E40E94433020E094
:103BE00030E04AE754E40E94923140E050E00E9405
:103BF0008706FF24F394A5019401D801D4966D9112
:103C00007D918D919C91D7970E943F30882309F434
:103C1000FBC0F12CF9C06CE272E0C5010E947F3359
:103C2000892B09F0A4CF20E030E04AE754E4D80122
:103C3000D4966D917D918D919C91D7970E94433040
:103C400020E030E04AE754E40E94923120E030E086
:103C50004AE754E40E94923120E030E04AE754E41D
:103C60000E94433020E030E04AE754E40E94923161
:103C700040E050E00E948706C5C061E001C060E0FE
:103C8000780191ECE90EF11CC7010E94F614D701EE
:103C900014968C91811111C08CE891E00E948206EB
:103CA000B1C062E172E0C5010E947F33892B09F047
:103CB00093C0F601808180FFEFCF89E891E0EECFDD
:103CC0002DB73EB723963FAF2EAF23973FEF831A12
:103CD000930AC4018E199F092C0141E0441A51082E
:103CE000ADB7BEB7A81BB90B0FB6F894BEBF0FBED9
:103CF000ADBFEDB7FEB731961F01A201B701CF01ED
:103D00000E946B33F101E40DF51D1082D3011D9269
:103D10003D01C4010E9441334B015C01C3010E947B
:103D200041332B013C0169E272E0C1010E947F3303
:103D3000892B59F4F801EC58FF4F80829182A282BE
:103D4000B382F801E858FF4F35C06BE771E0C1015D
:103D50000E947F33892B59F4F801E45AFF4F808287
:103D60009182A282B382F801E05AFF4F23C066E03D
:103D700072E0C1010E947F33892B59F4F801EC599C
:103D8000FF4F80829182A282B382F801E859FF4FEF
:103D900011C061E272E0C1010E947F33892B89F476
:103DA000F801E459FF4F80829182A282B382F80128
:103DB000E059FF4F4082518262827382FF24F39464
:103DC00001C0F12C23962EAD3FAD23970FB6F8948A
:103DD0003EBF0FBE2DBF18C067E172E0C5010E9453
:103DE0007F33892B09F046C06CE871E0C7010E945F
:103DF0007F33892B81F5D6018D919C9111978E7F10
:103E00008D939C93FF24F394E12CE3CB6CE072E060
:103E1000C5010E947F33892B51F420E030E04AE74E
:103E200054E4F80160A971A982A993A907CF6FE0B2
:103E300072E0C5010E947F33892B09F032CF20E068
:103E400030E04AE754E4D80198966D917D918D91C8
:103E50009C919B97F3CE69E871E0C7010E947F3384
:103E6000892B09F0B2CBF601808191818160918329
:103E70008083C8CF8BE192E00E948206CACE8092F6
:103E8000F2029092F302A092F402B092F502F801CD
:103E9000E05CFF4F81818F9380818F9320E030E041
:103EA0004AE754E4F80160A971A982A993A90E9484
:103EB000433020E030E04AE754E40E94923120E0B1
:103EC00030E04AE754E40E94923120E030E04AE7D3
:103ED00054E40E94433020E030E04AE754E40E947A
:103EE00092310E94B0307F936F9320E030E04AE738
:103EF00054E4D8019C966D917D918D919C919F97F2
:103F00000E94433020E030E04AE754E40E949231BE
:103F100020E030E04AE754E40E94923120E030E0B3
:103F20004AE754E40E94433020E030E04AE754E49A
:103F30000E9492310E94B0307F936F9320E030E076
:103F40004AE754E4F80160A571A582A593A50E94F3
:103F5000433020E030E04AE754E40E94923120E010
:103F600030E04AE754E40E94923120E030E04AE732
:103F700054E40E94433020E030E04AE754E40E94D9
:103F800092310E94B0307F936F93C501B40124E653
:103F900030E040E050E00E94B22F5F934F933F9398
:103FA0002F9381E392E09F938F931F928FE38F93E0
:103FB0008E010F5F1F4F1F930F930E949033C80114
:103FC0000E9482062DB73EB72E5E3F4F0FB6F89483
:103FD0003EBF0FBE2DBF30CB2B964EAD5FAD2B97A6
:103FE0000FB6F8945EBF0FBE4DBFC65BDF4F0FB676
:103FF000F894DEBF0FBECDBFDF91CF911F910F911F
:10400000FF90EF90DF90CF90BF90AF909F908F90F8
:104010007F906F905F904F903F902F900895CF9337
:10402000DF93CDB7DEB72E970FB6F894DEBF0FBE85
:10403000CDBF9E878D878C010C5D1F4FC8010E94EC
:10404000FA068D859E850E947910C8010E94EA06B5
:104050008D859E858F539F4F9E838D832D843E84B7
:104060009EE7290E311CAD85BE85A65BBF4FB88784
:10407000AF83ED84FE84B8E5EB0EF11C8D849E8445
:10408000EEE48E0E911C8D859E85885B9F4F9A87EE
:104090008987CD84DE849AE5C90ED11CAD85BE85A5
:1040A000AA5BBF4FBC87AB878D819E810E94FB14AA
:1040B000F101808191810E94AC055C012C01662494
:1040C00057FC6094762CAF81B8858D919D910D90B1
:1040D000BC91A02D89839A83AB83BC83C8010E94C5
:1040E0004508411451046104710451F0F7018081C5
:1040F00084FD06C0D4018D919C91892B09F40AC1DD
:10410000F6018081918192FF59C069817A818B810A
:104110009C810E94DE30AD85BE855B962C9122236A
:1041200071F00E94AB30AB01BC01C8010E94DD07F9
:10413000F601808191819B7F91838083FBC0D701B1
:104140002D913C91119722FF03C02B7F2D933C931F
:10415000EB85FC8520813181232BB9F40E94AB30A3
:10416000AB01BC01C8010E94DD07D6018D919C9175
:1041700011979B7F8D939C9361E070E0C8010E9432
:104180002308C8010E94EA068FCF8D859E850E9474
:104190007910C8010E94EA06F7018081918192FF9F
:1041A00003C09B7F91838083D7018D919C91119750
:1041B00094FF12C09F7E8D939C930EC04528462885
:1041C000472851F0F701808186FF06C0AD85BE8586
:1041D0005B968C918111AEC0F101808191810E942A
:1041E000E4055C01009709F46AC00597029738F569
:1041F000AD85BE855B968C915B97882321F0CD01C0
:104200000E94791051CFF7018081918186FF13C000
:1042100084FD04C0C8010E94FA060DC0F6E0AF1686
:10422000B10409F041CF8F7ED7018D939C93C801D3
:104230000E94FA0639CF8D859E850E947910F7017C
:10424000808184FD2DC0F3E0AF16B10449F5D6019D
:104250008D919C9191FD2EC0C8010E94FA06F1013A
:10426000808191810E94E4050497B1F741E060E00C
:1042700070E0C8010E94BD07D7018D919C911197F4
:104280008F7E8D939C9361E070E0F4018081918139
:10429000892B11F060E070E0C8010E94CF070AC0CE
:1042A000F5E0AF16B10431F4D4018D919C91892BC6
:1042B00009F443C0B5018D859E850E94EC158D855E
:1042C0009E850E94EA16AB01BC01C8010E942D1513
:1042D0008D859E850E941F198D859E850E942A1AB4
:1042E0008D859E850E948D10F6018081918191FFC0
:1042F00003C09D7F91838083D6018D919C911197FE
:1043000092FF03C09B7F8D939C938D859E850E9419
:10431000751ACACEE985FA856081C8010E94AA0E85
:104320009501DC010E94892FAB01BC01C8010E94EC
:10433000FE07E6CE8D859E8563CFC8010E94800E64
:10434000B9CFCF93DF93EC0161E088E00E94F924BC
:1043500061E089E00E94F92461E088E00E94322552
:1043600061E089E00E9432250E94620481E00E949F
:10437000780480E00E94810486E00E94860430E197
:10438000309381001092800021E02093EE0280E4BF
:104390009FE19093F0028093EF02909387008093C7
:1043A000860081E18093810085E596E09093ED029F
:1043B0008093EC0220936F00309391001092900054
:1043C00085E08093E90280E09AEF9093EB0280937E
:1043D000EA02909397008093960085E18093910084
:1043E0008DE396E09093E8028093E70220937100BA
:1043F000CE010E94870FCE010E94A80F60E071EEEF
:1044000081ED93E00E94882681ED93E00E94892649
:10441000811108C05D9AD093F702C093F602DF9134
:10442000CF9108950E946C1A181619069CF70E94E5
:10443000701AF8CF88EF92E00C94A12188EF92E0F7
:104440000C940F208F92AF92CF92EF920F9384E053
:104450008F931F9292E09F9393E09F938F938DE0B1
:104460008F9384E0882E94E1A92E25E1C22E34E1B9
:10447000E32E03E122E14CE06AE088EF92E00E9443
:104480008B150F900F900F900F900F900F900F9132
:10449000EF90CF90AF908F90089588EF92E00C94BA
:1044A000E6151F920F920FB60F9211242F933F9390
:1044B0004F935F936F937F938F939F93AF93BF932C
:1044C000EF93FF938091BE039091BF03892B29F056
:1044D000E091BE03F091BF030995FF91EF91BF9169
:1044E000AF919F918F917F916F915F914F913F918C
:1044F0002F910F900FBE0F901F9018951F920F9243
:104500000FB60F9211242F933F934F935F936F93A6
:104510007F938F939F93AF93BF93EF93FF9380917C
:10452000C0039091C103892B29F0E091C003F09161
:10453000C1030995FF91EF91BF91AF919F918F9129
:104540007F916F915F914F913F912F910F900FBE8F
:104550000F901F9018951F920F920FB60F92112473
:104560002F933F934F935F936F937F938F939F937B
:10457000AF93BF93EF93FF938091C2039091C303D6
:10458000892B29F0E091C203F091C3030995FF91B3
:10459000EF91BF91AF919F918F917F916F915F91BB
:1045A0004F913F912F910F900FBE0F901F90189534
:1045B0001F920F920FB60F9211242F933F934F9398
:1045C0005F936F937F938F939F93AF93BF93EF937B
:1045D000FF938091C4039091C503892B29F0E0914A
:1045E000C403F091C5030995FF91EF91BF91AF917D
:1045F0009F918F917F916F915F914F913F912F91FB
:104600000F900FBE0F901F9018951F920F920FB62C
:104610000F9211242F933F934F935F936F937F9348
:104620008F939F93AF93BF93EF93FF938091C603B4
:104630009091C703892B29F0E091C603F091C7033D
:104640000995FF91EF91BF91AF919F918F917F91CC
:104650006F915F914F913F912F910F900FBE0F90EF
:104660001F9018951F93CF93DF93182FEB0161E0F4
:104670000E94F924209711F460E004C0CF3FD105D7
:1046800039F461E0812FDF91CF911F910C94322595
:10469000E12FF0E0E850FF4F449150E0FA013197EC
:1046A000EE30F10508F062C0EA5AFF4F0C94D42FA7
:1046B00084B5806884BDC7BD5EC084B5806284BD9A
:1046C000C8BD59C080918000806880938000D093DD
:1046D0008900C09388004FC08091800080628093E1
:1046E0008000D0938B00C0938A0045C080919000D9
:1046F000806880939000D0939900C09398003BC04D
:1047000080919000806280939000D0939B00C09332
:104710009A0031C080919000886080939000D0937F
:104720009D00C0939C0027C08091C000806880934A
:10473000C0008091C0008F7B8093C000C093CF00E9
:104740001AC08091C00080628093C000C093D000E6
:1047500012C08091C20088608093C2008091C20024
:104760008B7F8093C200C093D20005C0C038D105B2
:104770000CF087CF81CFDF91CF911F9108951F92C9
:104780000F920FB60F9211242F933F938F939F9305
:10479000AF93BF938091C9039091CA03A091CB03BB
:1047A000B091CC033091C80323E0230F2D3720F4C0
:1047B0000196A11DB11D05C026E8230F0296A11D7B
:1047C000B11D2093C8038093C9039093CA03A0939B
:1047D000CB03B093CC038091CD039091CE03A091F5
:1047E000CF03B091D0030196A11DB11D8093CD03DD
:1047F0009093CE03A093CF03B093D003BF91AF911A
:104800009F918F913F912F910F900FBE0F901F900E
:1048100018952FB7F8946091C9037091CA038091DD
:10482000CB039091CC032FBF08953FB7F8948091AC
:10483000CD039091CE03A091CF03B091D00326B5C4
:10484000A89B02C02F3F89F43FBF6627782F892F8E
:104850009A2F620F711D811D911D42E0660F771F17
:10486000881F991F4A95D1F708950196A11DB11D82
:10487000EBCFCF92DF92EF92FF92CF93DF936B015A
:104880007C010E941524EB01C114D104E104F10460
:1048900079F00E9415246C1B7D0B683E7340A0F3D9
:1048A00081E0C81AD108E108F108C851DC4FECCF0B
:1048B000DF91CF91FF90EF90DF90CF900895019717
:1048C000009739F0880F991F880F991F0297019759
:1048D000F1F70895789484B5826084BD84B58160D1
:1048E00084BD85B5826085BD85B5816085BDEEE6F8
:1048F000F0E0808181608083E1E8F0E010828081D7
:1049000082608083808181608083E0E8F0E0808144
:1049100081608083E1E9F0E0808182608083808132
:1049200081608083E0E9F0E0808181608083E1EC58
:10493000F0E08081846080838081826080838081D8
:1049400081608083E3ECF0E0808181608083E0EC33
:10495000F0E0808182608083E2ECF0E08081816021
:104960008083EAE7F0E080818460808380818260D8
:1049700080838081816080838081806880830895C6
:1049800090E0FC013197EE30F10590F5EC59FF4FC6
:104990000C94D42F809180008F7703C08091800089
:1049A0008F7D80938000089584B58F7702C084B591
:1049B0008F7D84BD0895809190008F7707C080918E
:1049C00090008F7D03C080919000877F809390003E
:1049D00008958091C0008F7703C08091C0008F7DC3
:1049E0008093C00008958091C200877F8093C200A9
:1049F0000895CF93DF9390E0FC01EA5EFE4F24918F
:104A0000FC01EC5CFE4F8491882349F190E0880F13
:104A1000991FFC01E259FE4FA591B491805A9E4F17
:104A2000FC01C591D4919FB7611108C0F8948C9195
:104A3000209582238C93888182230AC0623051F4AE
:104A4000F8948C91322F309583238C938881822B1C
:104A5000888304C0F8948C91822B8C939FBFDF9144
:104A6000CF9108950F931F93CF93DF931F92CDB7EC
:104A7000DEB7282F30E0F901E850FF4F8491F901AB
:104A8000EA5EFE4F1491F901EC5CFE4F04910023A5
:104A9000C9F0882321F069830E94C0246981E02F36
:104AA000F0E0EE0FFF1FE05AFE4FA591B4919FB7C3
:104AB000F8948C91611103C01095812301C0812B62
:104AC0008C939FBF0F90DF91CF911F910F9108950D
:104AD000CF93DF93282F30E0F901E850FF4F849106
:104AE000F901EA5EFE4FD491F901EC5CFE4FC491EE
:104AF000CC2391F081110E94C024EC2FF0E0EE0F46
:104B0000FF1FEE5AFE4FA591B4912C912D2381E009
:104B100090E021F480E002C080E090E0DF91CF914E
:104B2000089580911F0490912004209121043091D8
:104B30002204821B930B8F739927089520911F04E1
:104B40003091200480912104909122042817390784
:104B500049F0E0912104F0912204E152FC4F808160
:104B600090E008958FEF9FEF089520911F043091FA
:104B70002004809121049091220428173907A9F07C
:104B8000E0912104F0912204E152FC4F80812091B8
:104B90002104309122042F5F3F4F2F73332730932E
:104BA00022042093210490E008958FEF9FEF089551
:104BB000CF93DF93C0911F04D09120042196CF732F
:104BC000DD278091210490912204C817D90799F01C
:104BD00082E00E949E2C8F3F2FEF920761F0E091C0
:104BE0001F04F0912004E152FC4F8083D0932004F5
:104BF000C0931F04DFCFDF91CF91089583E00C9421
:104C0000022F0F931F93CF93DF931F92CDB7DEB781
:104C10008C01698380911101882359F041E050E0B3
:104C2000BE016F5F7F4F83E00E94CF2C18161906DC
:104C30003CF081E090E0F8019383828380E090E093
:104C40000F90DF91CF911F910F910895FC0120816A
:104C50002E5F208342E450E06CE771E080E80C9422
:104C60006A2DFC0181819081913A59F4813209F0D9
:104C70004BC047E050E06AE071E080E00E946A2D9E
:104C800045C0913209F040C0803239F467E070E0ED
:104C90008AE091E00E94AE2D39C0823209F034C022
:104CA00082818093110180910A0190910B01A09162
:104CB0000C01B0910D01803B9440A105B10531F587
:104CC0008091110180FD12C087E797E7909301085A
:104CD000809300082BE088E190E00FB6F894A89547
:104CE000809360000FBE2093600010C088E10FB673
:104CF000F89480936000109260000FBEA895109207
:104D000001081092000802C080E0089581E0089533
:104D10000895CF93C09111016AE070E080E090E0C7
:104D20000E94392481E0C11101C080E0CF91089533
:104D30001092D4031092D30388EE93E0A0E0B0E089
:104D40008093D5039093D603A093D703B093D80351
:104D50008FE992E09093D2038093D1030895FC01F0
:104D600024853585F901E05CFF4F80819181F9014F
:104D7000EE5BFF4F20813181821B930B8F7399274C
:104D80000895FC0184859585FC01E05CFF4F40811E
:104D90005181FC01EE5BFF4F2081318142175307A7
:104DA00041F00190F081E02DE80FF91F808190E043
:104DB00008958FEF9FEF0895FC0184859585FC0190
:104DC000E05CFF4F40815181FC01EE5BFF4F208191
:104DD00031814217530779F0A081B181A80FB91F23
:104DE0008C91208131812F5F3F4F2F733327318387
:104DF000208390E008958FEF9FEF0895FC0181A13B
:104E0000882329F0A489B5898C9186FFFBCF11A254
:104E10000895CF93DF93FC0126853785D901A05CE7
:104E2000BF4F8D919C91119701968F739927E9013E
:104E3000CE5BDF4F4881598184179507D9F30D90D8
:104E4000BC91A02DA20FB31F6C93A685B785A05C63
:104E5000BF4F11969C938E93A689B7892C9181E0C0
:104E600090E0078C02C0880F991F0A94E2F7282B64
:104E70002C9381E081A30488F589E02D80818064F2
:104E8000808381E090E0DF91CF91089508951F9293
:104E90000F920FB60F9211242F933F934F938F933E
:104EA0009F93EF93FF938091C80082FD1CC04091B7
:104EB000CE008091C9049091CA0401968F739927FE
:104EC0002091CB043091CC048217930771F0E091CC
:104ED000C904F091CA04E757FB4F40839093CA047A
:104EE0008093C90402C08091CE00FF91EF919F9101
:104EF0008F914F913F912F910F900FBE0F901F9068
:104F0000189583E294E00E94AF26892B11F00C944F
:104F1000462708951F920F920FB60F9211242F93D8
:104F20003F938F939F93EF93FF932091850430914C
:104F3000860480918704909188042817390731F4FA
:104F40008091C9008F7D8093C90014C0E0918704CF
:104F5000F0918804EB5BFB4F208180918704909156
:104F6000880401968F73992790938804809387040F
:104F70002093CE00FF91EF919F918F913F912F91C0
:104F80000F900FBE0F901F9018951092260410924C
:104F9000250488EE93E0A0E0B0E08093270490938E
:104FA0002804A0932904B0932A0481EB92E0909303
:104FB00024048093230489E894E090933004809340
:104FC0002F0485E494E090933204809331048DECB7
:104FD00090E090933404809333048CEC90E09093B1
:104FE00036048093350488EC90E0909338048093E5
:104FF000370489EC90E090933A04809339048AEC6A
:1050000090E090933C0480933B048EEC90E090936E
:105010003E0480933D0484E080933F0483E08093CA
:10502000400487E08093410485E08093420481E05E
:10503000809343040895FF920F931F93CF93DF93C0
:10504000EC01F62EE881F9810480F581E02D0995C7
:105050008C01E881F9810680F781E02D6F2DCE016A
:105060000995C8019927DF91CF911F910F91FF906A
:105070000895FC0120812F5F208349E150E06EE319
:1050800072E080E80C946A2D45E650E067E572E036
:1050900080E80C946A2DEF92FF920F931F93CF93A9
:1050A000DF931F92CDB7DEB789838B017A0141E090
:1050B00050E0BE016F5F7F4F84E00E94CF2CA701BC
:1050C000B80184E40E94CF2C0F90DF91CF911F9103
:1050D0000F91FF90EF900895FC0191818081813ABA
:1050E00031F481E0913091F0933089F411C0813234
:1050F00071F49B3021F482818093130105C09A30B2
:1051000031F482818093120181E00895089580E056
:10511000089548E050E082E00C944B28CF93DF9351
:10512000DC01683818F0E8E7E60F25C0E62FF0E06C
:1051300067FF11C0E058F10981E090E001C0880FDD
:10514000EA95EAF714969C911497982B14969C93E1
:105150001497E0E010C0E254FE4FE491EE2309F40E
:1051600040C0E7FF08C014968C9114978260149693
:105170008C931497EF7716968C9116978E1741F1B2
:1051800017968C9117978E1719F118968C9118977E
:105190008E17F1F019968C9119978E17C9F01A96FF
:1051A0008C911A978E17A1F01B968C911B978E17D6
:1051B00079F080E090E0ED01C80FD91F2E81211118
:1051C00002C0EE8305C0019686309105A1F709C0A3
:1051D000BD016C5F7F4FCD010E94892881E090E086
:1051E00008C081E090E013969C938E93129780E024
:1051F00090E0DF91CF910895683818F0E8E7E60F66
:1052000025C0E62FF0E067FF12C0E058F10921E069
:1052100030E001C0220FEA95EAF72095DC011496F0
:105220003C911497322314963C93E0E00FC0E25473
:10523000FE4FE491EE2329F1E7FF08C0DC0114964C
:105240002C9114972D7F14962C93EF7720E030E06B
:10525000EE2351F0DC01A20FB31F16964C91169766
:105260004E1302C016961C922F5F3F4F2630310519
:1052700079F7BC016C5F7F4F0E94892881E090E044
:10528000089580E090E00895FC0116821782108650
:105290001186128613861482BC016C5F7F4F0C94BA
:1052A00089281092D9041092D0041092CF0481EC76
:1052B00092E09093CE048093CD040895AF92BF9274
:1052C000CF92DF92EF92FF920F931F93CF93DF93D2
:1052D0006C017B01C0E0D0E000E010E0F601EC0FD3
:1052E000FD1F4AE050E06281C7010E94C52A5C01AF
:1052F0006EE2C7010E94FA298A0D9B1D080F191F33
:105300002196C330D10551F74AE050E0F60165819E
:10531000C7010E94C52A800F911FDF91CF911F9175
:105320000F91FF90EF90DF90CF90BF90AF900895D6
:105330008FEC92E09093DB048093DA041092DC040B
:105340001092DD041092DE041092DF0408950E9492
:105350006A2487EE94E00E940C2F0E941A22C1E872
:10536000D7E20E941E222097E1F30E948127F9CF05
:105370000C941A32CF92DF92EF92FF920F931F9309
:10538000CF93DF936C017A01EB01E60EF71E00E08C
:1053900010E0CE15DF0561F06991D601ED91FC9129
:1053A0000190F081E02DC6010995080F191FF1CF7A
:1053B000C801DF91CF911F910F91FF90EF90DF9087
:1053C000CF9008956115710581F0DB010D900020EB
:1053D000E9F7AD0141505109461B570BDC01ED9136
:1053E000FC910280F381E02D099480E090E0089523
:1053F0000C94E229DC01ED91FC910190F081E02D0B
:1054000009940F931F93CF93DF93EC016DE00E94FB
:10541000FA298C016AE0CE010E94FA29800F911FBF
:10542000DF91CF911F910F9108958F929F92AF922C
:10543000BF92CF92DF92EF92FF920F931F93CF9381
:10544000DF93CDB7DEB7A1970FB6F894DEBF0FBEDE
:10545000CDBF7C01C42EE52FCB01D22E19A221E0B5
:105460002D1510F02AE0D22E8E010F5D1F4F8D2CCE
:10547000912CA12CB12C6C2D7E2FA50194010E94A2
:10548000B22F8C2DD29E80191124015011098A301F
:1054900014F4805D01C0895CF80180832115310519
:1054A0004105510521F0C22EE32FCA01E4CFB80116
:1054B000C7010E94E229A1960FB6F894DEBF0FBE85
:1054C000CDBFDF91CF911F910F91FF90EF90DF90B3
:1054D000CF90BF90AF909F908F900895CF92DF9222
:1054E000EF92FF920F931F93CF93DF93EC016A012A
:1054F0007B012115310579F4E881F9810190F08172
:10550000E02D642FDF91CF911F910F91FF90EF90CD
:10551000DF90CF9009942A303105E9F477FF1AC063
:105520006DE20E94FA298C0144275527BA014C19D3
:105530005D096E097F092AE0CE010E94152A800FBD
:10554000911FDF91CF911F910F91FF90EF90DF900E
:10555000CF9008952AE0B701A601CE01DF91CF9147
:105560001F910F91FF90EF90DF90CF900C94152A30
:105570002115310541F4DC01ED91FC910190F081A0
:10558000E02D642F09940C94152A9A01462F50E0BF
:1055900060E070E00C94B82A9A01AB0160E070E022
:1055A0000C94B82A4F925F926F927F928F929F9243
:1055B000AF92BF92CF92DF92EF92FF920F931F9321
:1055C000CF93DF93EC016A017B01B22E9A01AB010C
:1055D000C701B6010E94F531882319F061ED72E030
:1055E00027C026013701E89477F82FEF3FEF4FE708
:1055F0005FE7C301B2010E94F53181110DC02FEFA9
:105600003FEF4FE75FE7C301B2010E943F3018163A
:105610001CF465ED72E00CC02FEF3FEF4FE75FE445
:10562000C701B6010E948E311816ACF469ED72E024
:10563000CE01DF91CF911F910F91FF90EF90DF90FE
:10564000CF90BF90AF909F908F907F906F905F9022
:105650004F900C94E2292FEF3FEF4FE75FECC7012B
:10566000B6010E943F3087FDE1CF20E030E0A90184
:10567000C701B6010E943F3087FF0AC06DE2CE012C
:105680000E94FA298C01F7FAF094F7F8F09402C01E
:1056900000E010E0A12C60E070E080E09FE3AB143C
:1056A00041F020E030E040E251E40E944330A39416
:1056B000F6CF9B01AC01C701B6010E94DB2F6B0145
:1056C0007C010E94B0302B013C010E94DC309B0128
:1056D000AC01C701B6010E94DA2F6B017C012AE000
:1056E000B301A201CE010E94152A080F191FBB2089
:1056F00039F06DED72E0CE010E94E229080F191F0A
:105700007B2C772041F120E030E040E251E4C701FA
:10571000B6010E9492316B017C010E94AB304B01BB
:10572000AA2497FCA094BA2C2AE030E0B501A40189
:10573000CE010E946E2A080F191FC501B4010E94F4
:10574000DE309B01AC01C701B6010E94DA2F6B016C
:105750007C017A94D6CFC801DF91CF911F910F9130
:10576000FF90EF90DF90CF90BF90AF909F908F9081
:105770007F906F905F904F9008950C94D22A0F9372
:105780001F93CF93DF93EC010E94D22A8C01CE01AC
:105790000E94012A800F911FDF91CF911F910F91DD
:1057A00008951F920F920FB60F9211242F933F93DB
:1057B0008F939F93AF93BF93EF93FF938091E304F5
:1057C0009091E404A091E504B091E604892B8A2B22
:1057D0008B2B51F19091E004E091E104F091E2040F
:1057E0008081892780838091E3049091E404A091D3
:1057F000E504B091E604181619061A061B0624F5EE
:105800008091E3049091E404A091E504B091E60452
:105810000197A109B1098093E3049093E404A09354
:10582000E504B093E60410C0109271002091E004EA
:10583000E091E104F091E204808190E030E0209575
:105840003095822393238083FF91EF91BF91AF9195
:105850009F918F913F912F910F900FBE0F901F90AE
:105860001895615030F02091F100FC0120830196E1
:10587000F8CF289884E68093EE0408952FB7FC01B2
:105880002083F89467706093E9000895CF93DF93C5
:105890001F92CDB7DEB7682FCE0101960E943E2C35
:1058A0008091F20099819FBF0F90DF91CF91089571
:1058B000FF920F931F93CF93DF9300D0CDB7DEB746
:1058C000F62E8A019091ED04992311F057FF03C041
:1058D0008FEF9FEF2BC0682FCE0101967A830E9435
:1058E0003E2C8091F20090E0A8017A818017910708
:1058F0000CF4AC01EF2DF72FF40E84E6FE1639F010
:1059000028988093EE049091F1009193F7CF411580
:10591000510521F08091F200882321F089818FBF09
:10592000CA0104C08BE68093E800F8CF0F900F9077
:10593000DF91CF911F910F91FF900895CF93DF9347
:105940001F92CDB7DEB741E050E0BE016F5F7F4FE1
:105950000E94582C019719F4898190E002C08FEFC2
:105960009FEF0F90DF91CF910895CF93DF931F9218
:10597000CDB7DEB7682FCE0101960E943E2C9091E4
:10598000E800892F807295FF04C09091F20080E4B6
:10599000891B99819FBF0F90DF91CF9108954F92FE
:1059A0005F926F927F928F929F92AF92BF92CF92AF
:1059B000DF92EF92FF920F931F93CF93DF931F928B
:1059C000CDB7DEB7582E7B01A42E952E8091ED0425
:1059D000882369F0042F152F8AEFB82E852D807249
:1059E000782E9AE3892E852D8074682E11C08FEF52
:1059F0009FEF53C0852D0E94B52C482E81110CC0FD
:105A0000BA94A9F361E070E080E090E00E9439244C
:105A10000115110579F737C0282F30E00217130759
:105A20000CF4402EC42CD12C0C191D09652DCE016F
:105A300001960E943E2C772039F04A948FEF481649
:105A4000B1F01092F100F9CFF701842D57FE07C095
:105A5000815058F094919093F1003196F9CF815094
:105A600020F091919093F100FACFEC0CFD1C809105
:105A7000E80085FF0FC00115110511F461100AC07F
:105A800089818FBFC5CF5D9884E68093EF048A2D0E
:105A9000992D03C08092E800F3CF0F90DF91CF9152
:105AA0001F910F91FF90EF90DF90CF90BF90AF903C
:105AB0009F908F907F906F905F904F90089510927D
:105AC000E9001092EC041092EB049093EA048093A6
:105AD000E9040895CF93DF93FB0120E030E0DEEF8F
