:100000000C9432020C94B61F0C94E31F0C94102035
:100010000C943D200C945A020C945A020C946A20C1
:100020000C945A020C945A020C948F2C0C94412B71
:100030000C945A020C945A020C945A020C945A02D0
:100040000C945A020C945A020C945A020C945A02C0
:100050000C94F7050C945A020C945A020C94242127
:100060000C945A020C94AC240C94EF240C945A0275
:100070000C945A020C945A020C945A020C945A0290
:100080000C9436290C945A020C945A020C945A027D
:100090000C945A020C945A020C945A020C945A0270
:1000A0000C945A020C945A020C945A02BD20C2209D
:1000B000C720D1201B211B211B21DB20E520EF20A5
:1000C000F92006211B210E2139223C222F22332226
:1000D0005D225D225D224022442248224E2252228D
:1000E0005D2258223C00FF0F3200B80B2800600947
:1000F0001E00D007140008070000000200080E00D0
:1001000000030401000B00000000000000000000DC
:100110000000000000000408020110408040102090
:1001200040804080080204018040201002011080BD
:1001300010204040040404040403040502020202E7
:100140000403020202020606060606060404020270
:100150000204000000002300260029002C002F00CC
:1001600000000000250028002B002E0031000000B8
:100170000000240027002A002D003000080B000298
:10018000020201000904000001020200000524002F
:1001900010010524010101042402060524060001C2
:1001A0000705810310004009040100020A00000055
:1001B000070502024000000705830240000000001E
:1001C0000000000000002A2B2800000000000000B2
:1001D00000000000000000000000000000002C9E55
:1001E000B4A0A1A2A434A6A7A5AE362D3738271EE9
:1001F0001F20212223242526B333B62EB7B89F848F
:1002000085868788898A8B8C8D8E8F909192939426
:1002100095969798999A9B9C9D2F3130A3AD350464
:1002200005060708090A0B0C0D0E0F101112131406
:1002300015161718191A1B1C1DAFB1B0B50009040B
:1002400002000103000000092101010001226500F4
:100250000705840340000105010902A1010901A16C
:10026000008501050919012903150025019503756C
:1002700001810295017505810305010930093109E4
:10028000381581257F750895038106C0C0050109D1
:1002900006A1018502050719E029E715002501756A
:1002A0000195088102950175088103950675081569
:1002B0000025650507190029658100C000C18081FE
:1002C000C1120100020200004041233680000101FA
:1002D00002000112010002000000404123368000AC
:1002E00001010200011803410072006400750069F9
:1002F000006E006F0020004C004C004300220341C0
:100300000072006400750069006E006F0020004CF0
:100310000065006F006E006100720064006F0004F1
:100320000309044E414E494E495459494E46CDCCDD
:10033000CC3D0AD7233C17B7D13877CC2B329595D3
:10034000E6241FB14F0A000020410000C8420040CF
:100350001C4620BCBE4CCA1B0E5AAEC59D74004044
:100360007A10F35A00A0724E18090010A5D4E800C4
:1003700000E87648170000E40B54020000CA9A3BDC
:10038000000000E1F5050000809698000000404262
:100390000F000000A08601000000102700000000F0
:1003A000E803000000006400000000000A000000F4
:1003B00000000100000000002C76D888DC674F08A0
:1003C00023DFC1DFAE59E1B1B796E5E3E453C63AA6
:1003D000E651997696E8E6C28426EB898C9B62ED1D
:1003E000407C6FFCEFBC9C9F40F2BAA56FA5F490D7
:1003F000055A2AF75C936B6CF9676DC11BFCE0E44E
:100400000D47FEF520E6B500D0ED902E03009435A3
:1004100077050080841E080000204E0A000000C8F6
:100420000C333333330F986E12831141EF8D211447
:10043000893BE65516CFFEE6DB18D1844B381BF717
:100440007C1D901DA4BBE424203284725E228100B6
:10045000C9F124ECA1E53D27811FFD232A25B626FD
:10046000FD26B21F11241FBECFEFDAE0DEBFCDBFE5
:1004700012E0A0E0B1E0EEE9FFE602C005900D92C7
:10048000A83BB107D9F714E0A8EBB2E001C01D9278
:10049000AB3BB107E1F714E0C2E6D4E004C0229719
:1004A000FE010E943B2DC835D107C9F70E940C27D9
:1004B0000C94C2370C940000CB010C94F732CB01A2
:1004C000642F0C94FF32CF93DF93EC0160E08E81B8
:1004D0000E94972281E090E00E94C42161E08E8119
:1004E0000E94972281E090E00E94C42160E08E810A
:1004F0000E94972284E690E0DF91CF910C94C42172
:10050000CF92DF92EF92FF920F931F93CF93DF93DF
:100510007C01C0E0D0E0C62ED12C87010C0F1D1F3E
:1005200061E0F80187810E945E22B6010C2E02C0B4
:10053000759567950A94E2F76170F80187810E94CA
:1005400097222196C430D10541F7C701DF91CF91A1
:100550001F910F91FF90EF90DF90CF900C9463026A
:10056000CF92DF92EF92FF920F931F93CF93DF937F
:100570007C01C0E0D0E0C62ED12C87010C0F1D1FDE
:1005800061E0F80187810E945E22B6010C2E02C054
:10059000759567950A94E2F76170F80187810E946A
:1005A00097222196C830D10541F7C701DF91CF913D
:1005B0001F910F91FF90EF90DF90CF900C9463020A
:1005C0001F93CF93DF93EC01162F642F8C810E9431
:1005D00097228D818F3F19F060E00E9497228F85CE
:1005E000612F84FF06C0CE01DF91CF911F910C9443
:1005F000B00270E084E0759567958A95E1F7CE01C9
:100600000E948002612FCE01DF91CF911F910C9447
:10061000800240E00C94E00261E00E94090380ED5A
:1006200097E00C94C421CF93DF93CDB7DEB7289722
:100630000FB6F894DEBF0FBECDBF28E0E4E1F1E0D5
:10064000DE01119601900D922A95E1F7FC012389B4
:10065000421710F04FEF420FFE013196E40FF11DEB
:10066000E40FF11D2081260F2068622F28960FB617
:10067000F894DEBF0FBECDBFDF91CF910C9409037C
:10068000FC016089262F2460208B6C600C94090388
:10069000CF93DF93EC01423018F08F8588608F870D
:1006A0004B8B1C8A222329F0413019F48F858460FA
:1006B0008F8780E593EC0E94C42160E08C810E94CA
:1006C000972260E08E810E9497228D818F3F19F0E2
:1006D00060E00E9497226F8564FD1DC063E0CE013B
:1006E0000E94800284E991E10E94C42163E0CE016E
:1006F0000E94800284E991E10E94C42163E0CE015E
:100700000E94800286E990E00E94C42162E0CE014E
:100710000E94800216C06062CE010E94090384E933
:1007200091E10E94C4216F856062CE010E9409039D
:1007300086E990E00E94C4216F856062CE010E942C
:1007400009036F856062CE010E94090384E0888BF3
:10075000CE010E944003CE010E940C0382E0898BEF
:1007600066E0CE01DF91CF910C9409036F927F92E6
:100770008F92AF92CF92EF920F931F93CF93DF930D
:10078000CDB7DEB73C01162F842F5D854E853F85A2
:100790009889F301848325830683E782C086A18636
:1007A0008286538744873587968761E00E945E2260
:1007B000F30185818F3F19F061E00E945E2261E0C4
:1007C000F30186810E945E22112319F0F30117863E
:1007D00003C080E1F301878720E041E060E1C301CD
:1007E000DF91CF911F910F91EF90CF90AF908F90AD
:1007F0007F906F900C9448038F92AF92CF92EF92BC
:100800000F93CF93DF93CDB7DEB7DC0113961C9225
:100810001E921297E0E2F1E0ED93FC933B853F934B
:100820003A853F938F92AF928C2CAE2CC02EE22E45
:10083000042F2FEF462F60E00E94B6030F900F9019
:100840000F900F90DF91CF910F91EF90CF90AF90DD
:100850008F900895CF92DF92EF92FF920F931F93A4
:10086000CF93DF9300D0CDB7DEB78C01677088E0FF
:10087000689FB00111246064C80149835A830E94B3
:1008800009034981C42E5A81D52EE12CF12CD601C1
:100890006D916D01D801ED91FC910190F081E02DF9
:1008A000C8010995BFEFEB1AFB0AE8E0EE16F10468
:1008B00071F70F900F90DF91CF911F910F91FF90E3
:1008C000EF90DF90CF90089541E00E94E00281E038
:1008D00090E0089561E081E10E94972261E081E16A
:1008E0000E945E228CB580618CBD8CB580648CBD0D
:1008F00061E08FE00E945E2261E080E10C945E2264
:10090000811103C08CB5806202C08CB58F7D8CBD17
:1009100008959CB5937F982B9CBD08952CB5982F76
:1009200093702C7F922B9CBD9DB582FB882780F90C
:100930009E7F982B9DBD0895EF920F931F93CF93A9
:10094000DF93EC01862F688349832A83EB821D8223
:100950001C821F821E8208871A8619861C861B86A7
:1009600091E09D879E87E11002C012E001C010E077
:10097000612F0E945E22612F89810E945E22612F79
:100980008A810E945E2288810E94CD222B8130E0E4
:100990008217930721F483E090E09F838E838981FF
:1009A0000E94CD222B8130E08217930731F48E8193
:1009B0009F8121E082279F838E83DF91CF911F91BA
:1009C0000F91EF900895CF92DF92EF92FF921F93D5
:1009D000CF93DF93EC010E946E216B017C018E8529
:1009E000882359F089859A8502979A87898789850E
:1009F0009A8597FF02C01A86198688810E94CD22A7
:100A00002B8130E08217930711F010E001C013E052
:100A100089810E94CD222B8130E08217930711F447
:100A200081E018272E813F81211B20FF14C0812FD8
:100A3000992787FD90959F838E838C819D8122705D
:100A4000332727FD309521503109820F931F9D8355
:100A50008C8381E001C080E09E85992361F088232A
:100A600051F089859A85883E9B4028F489859A852E
:100A700049969A8789878091BB029091BC02A09188
:100A8000BD02B091BE02B701A601481B590B6A0B0B
:100A90007B0B4A3051056105710508F45DC0C092B9
:100AA000BB02D092BC02E092BD02F092BE028A81EB
:100AB0000E94CD222B8130E08217930781F4809130
:100AC000B9029091BA0201969093BA028093B9024A
:100AD0008937910520F083E090E09C878B878A819D
:100AE0000E94CD222B8131E0232730E0821793072B
:100AF00031F58091B9029091BA02892BE1F08B8592
:100B00009C85039719F484E090E008C08091B802B6
:100B1000823048F08C3378F486E090E09C878B87B5
:100B20001092B80208C08D85882311F08CE301C0B3
:100B300081E08093B8021092BA021092B9028091BB
:100B4000B802882349F082508093B802811104C012
:100B500085E090E09C878B87DF91CF911F91FF907C
:100B6000EF90DF90CF900895FC01F89424813581B7
:100B70008085823021F4C9018170992705C08430B5
:100B800031F4C901837099279583848302C015824B
:100B9000148278948085843029F43595279535958D
:100BA000279504C0823011F43595279586858823D2
:100BB00029F081859285892F992702C080E090E0F5
:100BC00037FF03C0809590950895232B11F001966F
:100BD000089580E090E00895FC0183859485238545
:100BE00034852330310511F01486138608951F9241
:100BF0000F920FB60F9211242F933F934F935F9351
:100C00006F937F938F939F93AF93BF93EF93FF93D4
:100C1000E091C302F091C4020995FF91EF91BF9159
:100C2000AF919F918F917F916F915F914F913F9184
:100C30002F910F900FBE0F901F901895FC0123E08D
:100C4000440F551F661F771F2A95D1F7411551058F
:100C500081E06807710514F481E00EC093E075959A
:100C60006795579547959A95D1F74115510581E0BC
:100C7000680771051CF482E0828331C083E07595BA
:100C80006795579547958A95D1F74115510581E0AC
:100C90006807710514F483E0EFCFB2E075956795AE
:100CA00057954795BA95D1F74115510581E06807E9
:100CB000710514F484E0E0CFA2E07595679557952F
:100CC0004795AA95D1F785E082834115510581E0CA
:100CD0006807710524F04FEF5FEF60E070E08FB7B9
:100CE0008383F89451834083509387004093860018
:100CF00083818FBF80918100887F80938100809164
:100D000081009281892B8093810008951092800048
:100D100020E1209381000C941E06E1E8F0E02081A0
:100D2000DC0112968C91282B208308950F931F933A
:100D3000CF93DF93EC018B01BA01A90114161506BC
:100D40001606170614F40E941E061D830C8381E00C
:100D500080936F00CE01DF91CF911F910F910C9482
:100D60008D06FC0186A597A58623972341E0892B54
:100D700009F440E06115714019F464E070E002C0CC
:100D800065E070E085EC92E00C945F028EBD0DB4DE
:100D900007FEFDCF8EB50895682F86E993E00C9489
:100DA0005F27BC0186E993E00C945D279A01AB01B3
:100DB000BC0186E993E00C9422299A01AB01BC01A5
:100DC00086E993E00C9424290F931F93CF93DF932C
:100DD000CDB7DEB7A0970FB6F894DEBF0FBECDBF7C
:100DE000242F4C3008F02BE08E010F5F1F4F41E0A5
:100DF0000E945E2FFC0101900020E9F731972E2F11
:100E0000281B822FA0960FB6F894DEBF0FBECDBF71
:100E1000DF91CF911F910F910895FC0184A195A1BD
:100E2000019771F481E06230710519F0672B31F0A0
:100E300004C0268D378D232B09F080E090E00895C3
:100E40006230710509F4668D442329F0662349F068
:100E500080E090E00895662321F0862F90E00197CE
:100E6000089581E090E00895CF93DF93EC018C8D9D
:100E70009D8D019731F40E946E216AA77BA78CA7F4
:100E80009DA7DF91CF910895CF93DF93EC010E944E
:100E90006E216EA37FA388A799A7DF91CF910895B4
:100EA0000F931F93CF93DF93EC018EA586FF1FC096
:100EB00084FD14C00E946E210EA11FA128A539A592
:100EC000601B710B820B930B61367A4E8105910585
:100ED00028F08EA59FA580619FA78EA78EA59FA5B0
:100EE00024E0969587952A95E1F7817001C080E00E
:100EF000DF91CF911F910F910895DC019E96ED91A6
:100F0000FC919F97442339F0E62BF72B9F96FC9397
:100F1000EE939E9708C09B01209530952E233F238A
:100F2000FC0137A726A76115F1E07F0719F06034AF
:100F3000710511F40C94B106089560E070E085EC41
:100F400092E00E945C028F3011F080E0089561E031
:100F500070E085EC92E00E945C028E30B1F762E0B6
:100F600070E085EC92E00E945C028E3071F763E0E5
:100F700070E085EC92E00E945C0291E08D3009F017
:100F800090E0892F08954FE060E070E085EC92E0FA
:100F90000E945F024EE061E070E085EC92E00E940A
:100FA0005F024EE062E070E085EC92E00E945F023A
:100FB0004DE063E070E085EC92E00C945F02FC0190
:100FC00080A991A9442319F0682B792B04C060955E
:100FD00070956823792371AB60AB0895462F60E06C
:100FE00070E10C94DF07FC0180A991A99B012823E3
:100FF0003923232B59F4442319F0682B792B04C08F
:10100000609570956823792371AB60AB0895FC01FE
:10101000268D378D778F668F411106C041E02617E8
:10102000370719F440E001C041E060E071E00C9442
:10103000F307FC0124A135A175A364A341E02617A1
:10104000370709F440E060E072E00C94F3070F9377
:101050001F93CF93DF93EC0108A119A12AA13BA113
:1010600048A359A36AA37BA381E0041715072607A9
:10107000370709F480E0482F60E074E0CE010E9459
:10108000F307CE01DF91CF911F910F910C9444078C
:101090000F931F93CF93DF93EC0108A119A12AA10D
:1010A0003BA1400F511F621F731F48A359A36AA39E
:1010B0007BA381E0041715072607370709F480E0B2
:1010C000482F60E074E0CE010E94F307CE01DF916B
:1010D000CF911F910F910C944407CF93DF93EC01B4
:1010E0008C8D9D8D7D8F6C8F41E08617970709F45D
:1010F00040E060E078E0CE010E94F3078C8D9D8D8A
:10110000019719F40E946E2103C060E070E0CB01EA
:101110006AA77BA78CA79DA7DF91CF9108950F9316
:101120001F93CF93DF93EC018C8D9D8D0197C1F4BC
:101130000E946E210AA51BA52CA53DA5601B710B65
:10114000820B930B693B7B408105910548F060E081
:1011500070E0CE01DF91CF911F910F910C946D083B
:10116000DF91CF911F910F9108952F923F924F924F
:101170005F926F927F928F929F92AF92BF92CF9227
:10118000DF92EF92FF920F931F93CF93DF9300D0E4
:1011900000D0CDB7DEB79A8389833B015C834B8354
:1011A0001801290120E030E0A901C201B1010E942B
:1011B000A42D87FD28C0A5019401C201B1010E94A0
:1011C000F32E18161CF16A94672811F4F70101C078
:1011D000F601608171818281938120823182428215
:1011E000538211E0A20191010E94A42D811101C03E
:1011F00010E0412F6B817C8189819A810E94F307E5
:1012000082E090E005C081E090E002C080E090E0E4
:101210000F900F900F900F90DF91CF911F910F9132
:10122000FF90EF90DF90CF90BF90AF909F908F9006
:101230007F906F905F904F903F902F9008958F9286
:101240009F92AF92BF92CF92DF92EF92FF920F9355
:101250001F93F9016C012AE0C20ED11C7C0126E02B
:10126000E20EF11CE130F10519F4A2E0B0E002C099
:10127000A4E0B0E01DE3812E1AE0912E1BEFA12E19
:1012800010E4B12E8A019B01AD01BF010E94B50897
:101290001F910F91FF90EF90DF90CF90BF90AF9094
:1012A0009F908F9008958F929F92AF92BF92CF920E
:1012B000DF92EF92FF920F931F93F9016C0122E1ED
:1012C000C20ED11C7C012EE0E20EF11CE130F105D2
:1012D00019F4A0E2B0E002C0A0E4B0E00EEA802E73
:1012E00007E4902E0CE3A02E03E4B02E8A019B01AC
:1012F000AD01BF010E94B5081F910F91FF90EF90C3
:10130000DF90CF90BF90AF909F908F9008958F9275
:101310009F92AF92BF92CF92DF92EF92FF92CF93C4
:10132000DF93EC014A015B01CA80DB80EC80FD8029
:101330002115310529F02130310509F4AEC0AFC1C6
:1013400021E030E00E941F09009771F00197E1F45D
:1013500021E030E040E050E0BA01CE010E941F09D8
:1013600040E050E0BA010DC021E030E04DE35AE02A
:101370006BEF70E4CE010E941F0942E55FE060E080
:1013800070E0CE010E94270820E030E04AE754E4F4
:10139000C701B6010E94A82D20E030E04AE754E4DE
:1013A0000E94F72E6B017C0120E030E04AE754E414
:1013B0006E817F81888599850E94A82D20E030E08C
:1013C0004AE754E40E94F72E9B01AC01C701B60125
:1013D0000E94F72E20E030E04AE754E40E94A82D56
:1013E00020E030E04AE754E40E94F72EAB01BC0154
:1013F00021E030E0CE010E945309892B09F04FC152
:10140000A70196016EEA77E48CE393E40E94A82D8D
:1014100020E030E04AE754E40E94A82D20E030E0CC
:101420004AE754E40E94F72EAB01BC0121E030E012
:10143000CE010E941F0920E030E04AE754E46E81AB
:101440007F81888599850E94A82D20E030E04AE7B9
:1014500054E40E94F72E4B015C019B01AC01C701D3
:10146000B6010E94F72E20E030E04AE754E40E94E3
:10147000A82D20E030E04AE754E40E94F72EAB01AB
:10148000BC0121E030E0CE010E94530920E030E0B1
:101490004AEF53E4C501B40193C020E030E0A90154
:1014A000C701B6010E94A42D81110CC020E030E0DC
:1014B000A901C501B4010E94F32E18161CF4812C59
:1014C000912C540121E030E0B501A401CE010E942D
:1014D0005309009791F0019709F091C021E030E0A5
:1014E00040E050E0BA01CE010E94530940E050E0D4
:1014F000BA01CE010E94270882C021E030E04EEA06
:1015000057E46CE373E4CE010E94530920E030E01D
:10151000A901C701B6010E94F32E1816ACF520E010
:1015200030E04AE754E46E857F85888999890E9476
:10153000A82D20E030E04AE754E40E94F72E4B014A
:101540005C0120E030E04AE754E4C701B6010E94A4
:10155000A82D20E030E04AE754E40E94F72E9B01DA
:10156000AC01C501B4010E94A82D20E030E04AE79B
:1015700054E40E94A82D20E030E04AE754E40E94A1
:10158000F72EAB01BC0103C040E050E0BA0121E0FE
:1015900030E0CE010E941F0920E030E04AE754E429
:1015A0006E857F85888999890E94A82D20E030E08A
:1015B0004AE754E40E94F72E20E030E04AE754E482
:1015C0000E94F72E20E030E04AE754E40E94A82D64
:1015D00020E030E04AE754E40E94F72E0E94102EEB
:1015E000AB01BC01CE01DF91CF91FF90EF90DF9076
:1015F000CF90BF90AF909F908F900C94270820E0E1
:1016000030E0A901C701B6010E94F32E1816ACF50F
:1016100020E030E04AE754E46E857F858889998927
:101620000E94A82D20E030E04AE754E40E94F72E03
:101630004B015C0120E030E04AE754E4C701B60109
:101640000E94A82D20E030E04AE754E40E94F72EE3
:101650009B01AC01C501B4010E94A82D20E030E03F
:101660004AE754E40E94A82D20E030E04AE754E421
:101670000E94F72EAB01BC0103C040E050E0BA016C
:1016800021E030E0CE01DF91CF91FF90EF90DF902D
:10169000CF90BF90AF909F908F900C941F09DF91D7
:1016A000CF91FF90EF90DF90CF90BF90AF909F9041
:1016B0008F900895CF93DF93EC018EA59FA586238D
:1016C0009723892B21F441E0CE010E947D0721E080
:1016D00030E040E050E0BA01CE010E941F0921E055
:1016E00030E040E050E0BA01CE010E94530940E0F2
:1016F00050E0BA01CE010E94270888A999A99B7FD2
:1017000099AB88ABDF91CF910895CF93DF93EC0134
:101710008E899F897F8B6E8B41E08617970709F42E
:1017200040E060E870E0CE010E94F3078E899F8957
:101730008135910538F060E070E4CE01DF91CF9102
:101740000C945A0B8EA59FA596FF03C09F7B9FA765
:101750008EA7DF91CF9108958F929F92AF92BF9203
:10176000CF92DF92EF92FF920F931F93CF93DF936D
:10177000EC017C0182E0E80EF11C812C912C80ECC4
:10178000A82E81E4B82E67018A019B0141E050E058
:1017900060E070E0CE010E94B5088C01009729F44A
:1017A00060E074E0CE010E945A0BC801DF91CF9136
:1017B0001F910F91FF90EF90DF90CF90BF90AF906F
:1017C0009F908F900895FB0180E06CE8415088F075
:1017D000519198E0752F7827282F30E0359527957F
:1017E000822F70FF02C0862F82275695915091F765
:1017F000EDCF08952F923F924F925F926F927F921A
:101800008F929F92AF92BF92CF92DF92EF92FF9210
:101810000F931F93CF93DF93CDB7DEB762970FB6C9
:10182000F894DEBF0FBECDBF4C017B016A018E0173
:10183000035F1F4FCE0101962C011E0191E1290E7D
:10184000311C1A8B098B52013B01601A710AB301DA
:10185000600F711F85EC92E00E945C02F801819399
:101860008F01F20181932F010215130581F78E017B
:10187000075F1F4F2E01F5E04F0E511C37016A180C
:101880007B08B301640D751D85EC92E00E945C023B
:10189000F80181938F01F20181932F0189899A893F
:1018A0000817190771F7B701685F7F4F85EC92E061
:1018B0000E945C02182F48E0B501C4010E94E30BAE
:1018C000181311C08D859E85AF85B889F601808378
:1018D0009183A283B38389859A85AB85BC858483F4
:1018E0009583A683B78362960FB6F894DEBF0FBECA
:1018F000CDBFDF91CF911F910F91FF90EF90DF90BF
:10190000CF90BF90AF909F908F907F906F905F909F
:101910004F903F902F900895EF92FF920F931F9357
:10192000CF93DF937C018C010E5C1F4FC6E0D0E0AB
:10193000A801BE01C7010E94FA0B2996085F1F4F3C
:10194000CA32D105A9F7DF91CF911F910F91FF9076
:10195000EF9008952F923F924F925F926F927F92F5
:101960008F929F92AF92BF92CF92DF92EF92FF92AF
:101970000F931F93CF93DF93CDB7DEB76B970FB65F
:10198000F894DEBF0FBECDBF5C016B01E98AFA8A15
:101990000B8B1C8B2D8B3E8B4F8B588F89899A8993
:1019A000AB89BC898D879E87AF87B88B8D899E89CF
:1019B000AF89B88D89879A87AB87BC87C5010E949C
:1019C0009D07882309F44BC07E018DE0E80EF11CD1
:1019D0008E010F5F1F4F28014E01E5E08E0E911C16
:1019E0001701098F1A8F36016E187F08B3016E0D2B
:1019F0007F1DF70121917F01422F85EC92E02B8F13
:101A00000E945F022B8DF80121938F01E815F905E3
:101A100069F77E01F9E0EF0EF11C46018418950884
:101A2000F70171907F01B401600F711F472D85ECA4
:101A300092E00E945F02F80171928F01E214F304B8
:101A400079F748E0698D7A8DC5010E94E30BB601F4
:101A5000685F7F4F482F85EC92E00E945F026B9693
:101A60000FB6F894DEBF0FBECDBFDF91CF911F91AF
:101A70000F91FF90EF90DF90CF90BF90AF909F902D
:101A80008F907F906F905F904F903F902F90089530
:101A9000AF92BF92CF92DF92EF92FF920F931F937C
:101AA000CF93DF935C01C12CD12CC6E0D0E0D601EE
:101AB00013E0AA0FBB1F1A95E1F7AA0DBB1DFD018C
:101AC000F296D296EC90F1800281138124813581C7
:101AD00046815781BE01C5010E94AA0C29968FEF4D
:101AE000C81AD80ACA32D10511F7DF91CF911F91D8
:101AF0000F91FF90EF90DF90CF90BF90AF9008953F
:101B0000CF93DF93EC010E94C30741E064E070E0F3
:101B100085EC92E00E945F0241E065E070E085ECB8
:101B200092E00E945F02CE01DF91CF910C94480DAC
:101B3000CF93DF93EC010E949D07811103C0CE017A
:101B40000E94800D64E070E085EC92E00E945C02EF
:101B500041E0813009F040E060E071E0CE010E9498
:101B60007D0765E070E085EC92E00E945C0241E058
:101B7000813009F040E060E470E0CE010E947D0712
:101B8000CE01DF91CF910C948C0CCF93DF93EC01BD
:101B900018828FEF89831A821B821C821D821E820B
:101BA0001F82188619861A861B861C861D861E862D
:101BB0001F86188A198A1A8A1B8A1C8A1D8A1F8AFC
:101BC0001E8A8FEF90E0998F888F9B8F8A8F1D8E52
:101BD0001C8E1F8E1E8E18A219A21AA21BA21DA255
:101BE0001CA21EA21FA218A619A61AA61BA61CA6F6
:101BF0001DA61FA61EA68FEF9FEF99AB88AB40E0F6
:101C000050E060E87FE34AAB5BAB6CAB7DAB1EAAF8
:101C10001FAA18AE19AE4AAF5BAF6CAF7DAFFE0125
:101C2000FE961082118212821382FE01EE5BFF4F3C
:101C30004083518362837383FE01EA5BFF4F10820E
:101C4000118212821382FE01E65BFF4F40835183B3
:101C500062837383FE01E25BFF4F10821182128266
:101C60001382CE010E94980D88A999A99F7E99ABF5
:101C700088ABDF91CF910895FC012081822F90E005
:101C800003971CF42F5F2083089510820895FC01B0
:101C9000208130E081E090E04AE050E021153105FC
:101CA000A1F020FF08C0BC01649FC001659F900D9A
:101CB000749F900D112435952795FA01EE9FA00190
:101CC000EF9F500D500D1124E9CF0895662321F0A8
:101CD0006130B1F40C94470E0E94470E8436910592
:101CE00099F0883E23E0920729F00A9731F485E0C5
:101CF00090E0089584EF91E0089581E090E00895E8
:101D0000FC01808190E0089582E390E00895FC0159
:101D1000658B468B20E00C9448036F927F928F92E4
:101D2000AF92CF92EF92FF920F931F93CF93DF93D7
:101D3000CDB7DEB73C018E859F851889F9889F93C2
:101D40008F93C3010E94FC0380E692E0F30191832C
:101D50008083158A168A178A108E0F900F904F2D48
:101D6000612FC301DF91CF911F910F91FF90EF90F1
:101D7000CF90AF908F907F906F900C94870EFC0166
:101D8000678B408F0C941303FF920F931F93CF9395
:101D9000DF938C01EB01209749F1FB0101900020BA
:101DA000E9F73197E61BF70BDC0155966C916E173E
:101DB00038F070E06E1B710975956795F62E01C0BD
:101DC000F12CF801408D6F2DC8010E94BF0EBE019D
:101DD000C8010E945D27FE0101900020E9F73197BC
:101DE000EC1BFD0BEF0DD8015796EC93DF91CF91D3
:101DF0001F910F91FF900895FF920F931F93CF9320
:101E0000DF938C01EA01462F64E00E94BF0EF4E0EC
:101E1000FF2E2D968F2D90E0C817D90734F060E281
:101E2000C8010E946404F394F5CFDF91CF911F9114
:101E30000F91FF9008954F925F926F927F928F92D1
:101E4000AF92CF92EF920F93CF93DF93CDB7DEB7E0
:101E50003C012B01642F422F202F0E2DEC2CCA2C7D
:101E6000A82C8A898F9389898F9388898F938F85EE
:101E70008F938E84C3010E948D0E88E692E0F30159
:101E800091838083528E418E138E148E158E168E02
:101E9000178E10A211A212A213A20F900F900F90F2
:101EA0000F90DF91CF910F91EF90CF90AF908F90E7
:101EB0007F906F905F904F900895FF920F931F93C4
:101EC000CF93DF938C0161E08BE00E945E2261E0A2
:101ED0008BE00E949722CCE1D2E0F12CAE016F2D75
:101EE000C8010E942A04F394289688E0F812F6CFDD
:101EF000DF91CF911F910F91FF900895EF92FF9284
:101F00000F931F93CF93DF93CDB7DEB765970FB6CF
:101F1000F894DEBF0FBECDBF8C010E940C0341E0E0
:101F200060E0C8010E94BF0E64E271E0C8010E9437
:101F3000C40E1F9284E08F931F9282E08F9387E3F9
:101F400091E09F938F931F9284E18F93CE0101962E
:101F50007C01FF928F930E94F53043E060E0C8015E
:101F60000E94BF0EB701C8010E94C40E68EB7BE05F
:101F700080E090E00E949E210FB6F894DEBF0FBE75
:101F8000CDBF65960FB6F894DEBF0FBECDBFDF9113
:101F9000CF911F910F91FF90EF9008956F927F92D4
:101FA0008F929F92AF92BF92CF92DF92EF92FF9269
:101FB0000F931F93CF93DF93EC014B013901B42EA4
:101FC000D52E40E050E06C2D0E94FC0E811491044F
:101FD00049F043E0B3018B2D9D2D0E94E4066DE096
:101FE000681B01C064E04C2DCE010E94BF0E892801
:101FF00019F43701B02ED12E23E030E0A3016B2D70
:102000007D2DCE010E9422296A2DCE01DF91CF9134
:102010001F910F91FF90EF90DF90CF90BF90AF9006
:102020009F908F907F906F900C945F27FF920F93FB
:102030001F93CF93DF938C01F62E662319F0C2E035
:10204000D0E013C0CEEFD0E010C0CF3FD10598F460
:10205000BE018BE00E94972062E070E080E090E09B
:102060000E949E21FF2021F02296FF2011F0EDCF4B
:102070002297209769F76F2D8BE00E94972281E0CD
:102080008F25F801838FDF91CF911F910F91FF90E2
:10209000089560E00C94161061E00C941610CF9334
:1020A000DF93EC010E946E216C8F7D8F8E8F9F8F4E
:1020B0008B8D882329F0CE01DF91CF910C944C10A9
:1020C000DF91CF9108952F923F924F925F926F923E
:1020D0007F928F929F92AF92CF92DF92EF92FF9278
:1020E0000F931F93CF93DF9300D000D0CDB7DEB70F
:1020F0009C838B83FC01618C728C0E946E21EB812E
:10210000FC8100A111A122A133A16B017C01C01AA5
:10211000D10AE20AF30A97018601A3014E5A5F4FE2
:102120004A01093C11052105310508F48CC1F30170
:10213000B496FA83E983EB81FC8160A371A382A347
:1021400093A3F301E85BFF4F80819181009721F019
:10215000019709F40BC177C12301F4E54F0E511C1F
:10216000F2018081918191FF3CC08B819C810E9412
:102170000C0340E061E08B819C810E94BF0E6FE305
:1021800071E08B819C810E945D2740E06DE08B8136
:102190009C810E94BF0E6FED8B819C810E945F2706
:1021A00063E471E08B819C810E945D2741E061E0E6
:1021B0008B819C810E94BF0E69E771E08B819C81BD
:1021C0000E945D2742E061E08B819C810E94BF0EEE
:1021D00067E471E08B819C810E945D27DD24D394AC
:1021E00001C0D12CF201808180FD62C1D11060C19B
:1021F000F201808187FD80C1D1107EC1F301E05CD6
:10220000FF4F20803180F2018081918193FF05C0D2
:10221000977F91838083DD24D3942114310419F4B2
:1022200024E030E002C022E030E0F20180819181C0
:1022300082239323892B11F4DD2009F1F301E6A415
:10224000F7A400A911A922A533A544A555A581E4A9
:10225000A82ECC24C394B1018B819C810E94CE0F07
:102260002114310409F06AC184E090E080959095D2
:10227000F201208131818223932391838083211471
:10228000310419F420E430E002C020E230E0F20131
:102290008081918182239323892B11F4DD2001F128
:1022A000F301E6A8F7A800AD11AD22A933A944A90E
:1022B00055A9A7E5AA2EB2E0CB2EB1018B819C8156
:1022C0000E94CE0F232809F43CC180E290E0809563
:1022D0009095F20120813181822393239183808321
:1022E000F2018081918188279370892B09F02CC19C
:1022F000D1102AC1F30194A185A198136BC1D1100B
:1023000069C1F401808191819C012270332780FF93
:1023100006C0232B09F472C1D11070C105C0232B54
:1023200009F078C1D11076C1F401808191819C01BE
:102330002870332782FF06C0232B09F47BC1D110FC
:1023400079C105C0232B09F081C1D1107FC18981DA
:102350009A810E945007882309F488C1F401808182
:10236000918185FFC6C1D110C4C180C18B819C8180
:102370000E944F1089819A810E94440783010C5A60
:102380001F4FF8018081918191FF2EC08B819C812C
:102390000E940C0340E060E08B819C810E94BF0E94
:1023A0006BE471E08B819C810E945D27F801808144
:1023B00091819D7F9183808341E060E08B819C814E
:1023C0000E94BF0E64E571E08B819C810E94C40E67
:1023D00042E060E08B819C810E94BF0E60E671E06C
:1023E0008B819C810E94C40EF80180819181882795
:1023F0009370892B09F0F8C110E0F401808191817C
:102400009C012227327090FF06C0232B09F431C2B1
:1024100011112FC205C0232B09F037C2111135C28B
:10242000F401808191819C012078332786FF06C0CA
:10243000232B09F43AC2111138C205C0232B09F02D
:1024400040C211113EC2F4018081918190FF49C2C6
:10245000EB81FC81838D811144C20E946E21EB814E
:10246000FC81048D158D268D378D601B710B820BC1
:10247000930B603C77428940910508F432C28B810E
:102480009C810F900F900F900F90DF91CF911F9133
:102490000F91FF90EF90DF90CF90AF909F908F9033
:1024A0007F906F905F904F903F902F900C944910C9
:1024B0004EEF5FEF60E08B819C810E94FC0E40E05C
:1024C00064E08B819C810E94BF0EF30146A157A15D
:1024D00060A571A523E030E08B819C810E942229B8
:1024E00066E58B819C810E945F27F201808191814A
:1024F0008E7F918380837CCE40E061E18B819C81E3
:102500000E94BF0E6AE671E08B819C810E945D276C
:1025100040E061E18B819C810E94BF0EF30162ADBE
:1025200073AD4AE050E08B819C810E943128F2011A
:10253000808191818F779183808360CE82E090E06B
:1025400095CE80E490E0C3CEF301EE5BFF4F1081A7
:102550001F5F612F70E06150710940E089819A81AD
:102560000E940D0701E0080F402F60E08B819C81E5
:102570000E94BF0E60E28B819C810E945F27402FEA
:102580006EE08B819C810E94BF0E6BE671E08B81B7
:102590009C810E945D27412F60E08B819C810E947D
:1025A000BF0E6BE58B819C810E945F27412F6EE0FF
:1025B0008B819C810E94BF0E6DE58B819C810E9466
:1025C0005F27F201808191819E7F91838083DD244A
:1025D000D39490CEF301EE5BFF4F40814F5F6FE0ED
:1025E0008B819C810E94BF0EF30164A18B819C8131
:1025F0000E946404F30184A185A383CE8260F40168
:102600009183808343E061E18B819C810E94BF0EB6
:1026100060ED0BC08D7FF4019183808343E061E125
:102620008B819C810E94BF0E60E28B819C810E9405
:1026300064047ACE8860F4019183808343E062E190
:102640008B819C810E94BF0E64E00BC0877FF401E8
:102650009183808343E062E18B819C810E94BF0E65
:1026600060E28B819C810E94640471CEF4018081C0
:10267000918184FD04C085FD48C0D11046C0F4019D
:10268000808191819C012227387092FF06C0232B04
:1026900009F44BC0D11049C005C0232B09F052C02A
:1026A000D11050C0F401808191819C0122273072A9
:1026B00094FF06C0232B09F456C0D11054C005C0A6
:1026C000232B09F05DC0D1105BC0F40180819181A2
:1026D0009C012227307896FF06C0232B09F461C0A5
:1026E000D1105FC0B0CE232B09F068C0D11066C0F6
:1026F000AACE8062F4019183808343E063E18B8101
:102700009C810E94BF0E65E00BC08F7DF401918318
:10271000808343E063E18B819C810E94BF0E60E275
:102720008B819C810E946404AACF9860F4019183FC
:10273000808341E062E18B819C810E94BF0E6EE646
:1027400071E00CC0977FF4019183808341E062E1E6
:102750008B819C810E94BF0E6BE671E08B819C8116
:102760000E945D279FCF9062F4019183808342E0B5
:1027700062E18B819C810E94BF0E61E771E00CC019
:102780009F7DF4019183808342E062E18B819C8193
:102790000E94BF0E6BE671E08B819C810E945D27D9
:1027A00094CF9068F4019183808340E06DE08B8149
:1027B0009C810E94BF0E64E771E011C09F77F40115
:1027C0009183808340E06DE08B819C810E94BF0EED
:1027D0006FED8B819C810E945F2768EE71E08B8199
:1027E0009C810E945D272FCEF301EE5BFF4FF080AE
:1027F000F3946F2D70E06150710940E089819A81F6
:102800000E940D07EE24E394E80E4E2D61E08B81CB
:102810009C810E94BF0E60E28B819C810E945F2799
:102820004E2D62E18B819C810E94BF0E60E28B8104
:102830009C810E945F274F2D61E08B819C810E94CB
:10284000BF0E6BE58B819C810E945F274F2D62E15B
:102850008B819C810E94BF0E6DE58B819C810E94C3
:102860005F27F801808191819E7F9183808311E0B1
:10287000C4CD9260F4019183808341E062E08B815A
:102880009C810E94BF0E67E00BC09D7FF401918385
:10289000808341E062E08B819C810E94BF0E66E0F4
:1028A0008B819C810E946404BBCD8068F40191837C
:1028B000808342E062E08B819C810E94BF0E67E0D2
:1028C0000BC08F77F4019183808342E062E08B81BB
:1028D0009C810E94BF0E66E08B819C810E946404F3
:1028E000B2CD0F900F900F900F90DF91CF911F916D
:1028F0000F91FF90EF90DF90CF90AF909F908F90CF
:102900007F906F905F904F903F902F9008956F92BF
:102910007F928F92AF92CF92DF92EF920F93CF93ED
:10292000DF93CDB7DEB73C0188898F938F858F9376
:102930008E858F938D858F938F928A2CAC2CCE2C85
:10294000E02E022F242F462FB301C3010E941B0F3C
:1029500080E792E0F30191838083C30184960E9413
:10296000C50D8FE090E00E941D276C01E12C0C89C1
:102970002B894A8969890E949C04F301EA58FF4F18
:10298000D182C082F301E854FF4F10820F900F9064
:102990000F900F900F90DF91CF910F91EF90DF90FC
:1029A000CF90AF908F907F906F90089520E632E0A7
:1029B000FC013183208308950F931F93CF93DF93FE
:1029C0008C01FC01E85BFF4F80819181009721F031
:1029D000019709F466C0A7C06630710509F0A3C06D
:1029E000E801A49641E062E070E0CE010E940D078C
:1029F00040E0BC01CE010E9407084FEF5FEFBA0133
:102A0000CE010E944808F801EE5BFF4F8081918162
:102A10000097C9F0019709F086C020E030E04AE74E
:102A200054E4F80162A973A984A995A90E94A82D6C
:102A300020E030E04AE754E40E94F72E20E030E046
:102A40004AE754E415C020E030E04AE754E4F801D6
:102A500062A573A584A595A50E94A82D20E030E06D
:102A60004AE754E40E94F72E20E030E04AEF53E4B6
:102A70000E94F72E20E030E04AE754E40E94A82D9F
:102A800020E030E04AE754E40E94F72E0E94102E26
:102A9000AB01BC01CE01DF91CF911F910F910C943E
:102AA000270865307105A1F066307105E1F50C5D10
:102AB0001F4F41E062E070E0C8010E940D0740E056
:102AC000BC01C801DF91CF911F910F910C940708B1
:102AD000F801EE5BFF4F80819181009791F00197A3
:102AE00011F5F801EE5AFF4F4081518196E056955D
:102AF00047959A95E1F781E04827417060E470E0DE
:102B00000AC0F801EE5AFF4F418150E0F1E04F2733
:102B1000417060E071E0C8018496DF91CF911F9110
:102B20000F910C947D07DF91CF911F910F91089524
:102B30008A589F4FFC01808191810C94E304CF93CC
:102B4000DF93C62FF89460E088E00E94972286E029
:102B50000E94C6068C2F8295880F880F807C0E9469
:102B6000C606D82F80E00E94C606C82F61E088E024
:102B70000E9497227894DF706C2F70E07D2B80E0AC
:102B800090E00E94412E2FE632E143E050E40E94A3
:102B9000F72E20E030E040E859E30E94F72EDF9165
:102BA000CF9108958F929F92AF92BF92CF92DF9272
:102BB000EF92FF920F931F93CF93DF9300D000D03B
:102BC000CDB7DEB76C01FC01EA5AFF4F208131819D
:102BD00042815381FC01E65AFF4F80809180A280A0
:102BE000B38060E029833A834B835C830E949F1506
:102BF00029813A814B815C810E94F72E7B018C01F7
:102C000020E030E0A9010E94F32E181644F4A5013B
:102C10009401B701C8010E94402D7B018C01F6018F
:102C2000EC5AFF4F8081918194FD22C0F60186A469
:102C300097A4A0A8B1A820E030E0A901C501B40183
:102C40000E94F32E1816F4F4F601E259FF4F20818A
:102C5000318142815381C501B4010E94F72E9B014D
:102C6000AC01B701C8010E94402D7B018C010AC054
:102C70008FE391E00E94D10645E050E0B701C80122
:102C80000E94D6062CEB34E743E95CE3B701C801A8
:102C90000E94A42D87FF04C0E12CF12C00E010E07D
:102CA000B701C8010F900F900F900F90DF91CF9157
:102CB0001F910F91FF90EF90DF90CF90BF90AF905A
:102CC0009F908F9008954F925F926F927F928F9214
:102CD0009F92AF92BF92CF92DF92EF92FF921F939B
:102CE000CF93DF93EC01FC01E25AFF4F408051800B
:102CF00062807380FC01EE59FF4F80809180A2803A
:102D0000B38015E0C12CD12C760161E0CE010E9488
:102D10009F152DEC3CEC4CEC5DE30E94A82D9B0133
:102D2000AC01C701B6010E94402D6B017C0111501E
:102D300061F720E030E040EA50E40E94A82DA301B2
:102D400092010E94F72E6B017C0120E030E0A90186
:102D50000E94F32E181644F4A5019401C701B60190
:102D60000E94402D6B017C01CC5ADF4F88819981F4
:102D700094FF0AC087E791E00E94D10645E050E049
:102D8000C701B6010E94DD06C701B601DF91CF91F0
:102D90001F91FF90EF90DF90CF90BF90AF909F90EA
:102DA0008F907F906F905F904F900895CF93DF93B7
:102DB000D62FC72F442319F0413021F001C0CF771F
:102DC000C06301C0C06BF89460E089E00E94972264
:102DD0008C2F0E94C6068D2F0E94C60661E089E0F6
:102DE0000E9497227894DF91CF9108952F923F927D
:102DF0004F925F926F927F928F929F92AF92BF920B
:102E0000CF92DF92EF92FF920F931F93CF93DF93B6
:102E100000D000D000D0CDB7DEB79E838D838C016B
:102E20000C5D1F4F8A599F4F9A8389838D819E81A4
:102E300086599F4F9C838B832D803E8094E5290E7D
:102E4000311C20E030E04AE754E4ED81FE8162A5C8
:102E500073A584A595A50E94A82D20E030E04AE73F
:102E600054E40E94F72E6B017C0120E030E04AE739
:102E700054E4ED81FE8166A577A580A991A90E9401
:102E8000A82D20E030E04AE754E40E94F72EA70185
:102E900096010E94A42D8823A9F1E981FA8140803E
:102EA000518062807380EB81FC8180809180A28060
:102EB000B380F1018081918194FD19C020E030E060
:102EC0004AE754E4C701B6010E94F72EA30192011C
:102ED0000E94F72EA50194010E94402D0E94152EFC
:102EE000ED81FE8126AD37AD26173707B9F58D8107
:102EF0009E810E946316AB01BC0120E030E0C80156
:102F00000E941F09ED81FE8126A537A540A951A980
:102F100066A177A180A591A50E94F72E20E030E060
:102F20004AE754E40E94A82D20E030E04AE754E448
:102F30000E94F72EAB01BC0120E030E0C8010E94E6
:102F40005309892BF9F4F1018081918194FD1AC014
:102F500060E070E1C8010E945A0B73CF7B016115DC
:102F6000F0E17F0720F0EE24EA942FE0F22E40E01B
:102F7000B7018D819E810E94D616ED81FE81F7AE4C
:102F8000E6AEB5CF26960FB6F894DEBF0FBECDBF26
:102F9000DF91CF911F910F91FF90EF90DF90CF9035
:102FA000BF90AF909F908F907F906F905F904F9069
:102FB0003F902F9008955F926F927F928F929F9291
:102FC000AF92BF92CF92DF92EF92FF920F931F9337
:102FD000CF93DF93EC017C0184E5E80EF11C3E0108
:102FE000E8E46E0E711C8E010C5D1F4F6E01F2E461
:102FF000CF0ED11C5E0184E4A80EB11C4E01E2E5A7
:103000008E0E911CF701518052FA552450F8F301AD
:1030100080819181892BE1F45520D1F0F6018081E6
:103020009181009709F059C0F50160817181828119
:1030300093810E94432E20E030E04AEF53E40E9447
:10304000A82DAB01BC0120E030E0C8010E94870937
:10305000CE010E946316AB01BC0120E030E0C80144
:103060000E941F09009729F097FD4CC003971CF19F
:1030700049C0F7018081918194FD1DC0552031F038
:10308000F40180819181906191838083F601808138
:103090009181009741F0019709F0B4CF48E75FEDC7
:1030A00062E070E004C042E55FE060E070E0C8010B
:1030B0000E942708A7CFCE01DF91CF911F910F91DA
:1030C000FF90EF90DF90CF90BF90AF909F908F9048
:1030D0007F906F905F900C94F616019709F0B8CF2F
:1030E000F50160817181828193810E94432E20E0ED
:1030F00030E04AE754E40E94A82DAB01BC0121E076
:1031000030E0A3CFDF91CF911F910F91FF90EF900F
:10311000DF90CF90BF90AF909F908F907F906F90F7
:103120005F900895CF92DF92EF92FF92CF93DF935B
:10313000EC0162E00E949F156B017C0163E0CE010F
:103140000E949F159B01AC01C701B6010E94402D52
:1031500020E030E040E05FE30E94F72E20E030E026
:103160004AE754E40E94F72E20E030EA4BEE54E4A4
:103170000E943F2D25EC3EE444E351EC0E94A82D33
:1031800020E030E040EA51E40E94402D0E94102EE1
:10319000CB01DF91CF91FF90EF90DF90CF9008951A
:1031A0000F931F93CF93DF93EC010E9492188C0131
:1031B000BC01CE0184960E94850B44EE50E020E0D5
:1031C00030E0FA018591949108171907C0F0F901D0
:1031D000EE0FFF1FEE0FFF1FEA51FF4F6591749135
:1031E0008CAD9DAD8617970789F07DAF6CAF41E040
:1031F000CE01DF91CF911F910F910C94D6162F5FC6
:103200003F4F4C5F5F4F25303105D9F6DF91CF91AD
:103210001F910F91089586E993E00C94632386E94A
:1032200093E00C94F62286E993E00E941A23089515
:103230002F923F924F925F926F927F928F929F92C6
:10324000AF92BF92CF92DF92EF92FF920F931F93B4
:10325000CF93DF93CDB7DEB7C854D1090FB6F8943A
:10326000DEBF0FBECDBF8C012DB73EB729963FAF55
:103270002EAF299786E993E00E94EE23A8014E5ACB
:103280005F4F7A01882309F47CC00E940F19181639
:10329000190614F0C12C54C0F7018081918182FD80
:1032A00003C0846091838083980128543F4F259602
:1032B0003FAF2EAF25970E940F191816190654F725
:1032C0002596EEADFFAD2597C080D12C0E94131935
:1032D000C00ED11EF601E858FF4F80832596EEAD53
:1032E000FFAD25972081C801820F911DFC01E85890
:1032F000FF4F30813A3009F455C02F3309F452C0E2
:103300002F5F2596EEADFFAD25972083D4CFDD242A
:10331000D394CC24C39427962EAD3FAD27970FB6F8
:10332000F8943EBF0FBE2DBF2596EEADFFAD25979D
:103330001082DD2009F455C084E891E00E94D10696
:103340000E946E214B015C01F701808180FF14C057
:103350008091C6029091C702A091C802B091C902A3
:10336000A5019401281B390B4A0B5B0B253631054F
:103370004105510508F013C3C11011C30E940B1978
:10338000B6C3FA018081918180FF03C08E7F918353
:103390008083F7018081918182FFA9C38B7F918314
:1033A0008083A5C3FC01E858FF4F10822330B0F0A2
:1033B0006AE370E0C80188589F4F0E94D9305C01D1
:1033C000009761F03C01FFEF6F1A7F0A6AE370E03B
:1033D000C3010E94D9306C01009731F4D12CC12C6B
:1033E000A3CF8BE891E0AACF2DB73EB727963FAF8A
:1033F0002EAF27978A199B094C0131E0831A910857
:103400004DB75EB7481B590B0FB6F8945EBF0FBEA1
:103410004DBF8DB79EB701965C01A401B3010E9418
:10342000D030F501E80DF91D10828AE30E94CC0628
:103430006EEF71E0C5010E94E430892B89F51F927F
:1034400022E02F931F9288E08F931F9234E03F93E6
:1034500083E991E09F938F938CE991E09F938F9301
:103460001F923F931F922F9388EA91E09F938F932F
:103470001F9280E48F939E012F5F3F4F6901DF927F
:103480002F930E94F530C6010E94D1064DB75EB75A
:103490004C5E5F4F0FB6F8945EBF0FBE4DBF40C28B
:1034A00062ED71E0C5010E94E430892B51F420E007
:1034B00030E04AE754E4F80162A573A584A595A518
:1034C00074C1FFEFCF1ADF0A68ED71E0C5010E94F9
:1034D000E430892B09F0B7C0C6010E94A63020E075
:1034E00030E04AE754E40E94A82D20E030E04AE7AB
:1034F00054E40E94F72E20E030E04AE754E40E94B2
:10350000A82D20E030E04AE754E40E94A82D20E0F6
:1035100030E04AE754E40E94F72E4B015C01680159
:1035200024E2C20ED11C20E030E0AB01BC01C60198
:103530000E94870920E030E04AE754E4F80162A5E0
:1035400073A584A595A50E94A82D20E030E04AE748
:1035500054E40E94F72E20E030E04AE754E40E9451
:10356000F72E20E030E04AE754E40E94A82D20E046
:1035700030E04AE754E40E94F72E40E050E00E9419
:10358000D606F801EE5BFF4F808191810097C9F06C
:10359000019709F040C020E030E04AE754E4F80128
:1035A00062A973A984A995A90E94A82D20E030E002
:1035B0004AE754E40E94F72E20E030E04AE754E462
:1035C00015C020E030E04AE754E4F80162A573A595
:1035D00084A595A50E94A82D20E030E04AE754E498
:1035E0000E94F72E20E030E04AEF53E40E94F72ECD
:1035F00020E030E04AE754E40E94A82D20E030E0CB
:103600004AE754E40E94F72E0E94102EAB01BC0141
:10361000C6010E942708F801EC5AFF4F8081918172
:103620009B7F91838083DD24D394A5019401F801CD
:1036300062A573A584A595A50E94A42D882309F4ED
:1036400071C1D12C6FC16DED71E0C5010E94E430F4
:10365000892B09F082C06DE771E0C6010E94E43059
:10366000892B09F042C061E0C80184960E94EE07F0
:1036700080E090E0A0E8BFE3F801EA5AFF4F8083C2
:103680009183A283B383F801E65AFF4F108211821F
:1036900012821382F801E25AFF4F80839183A28342
:1036A000B383F801EE59FF4F108211821282138208
:1036B000F801EA59FF4F80839183A283B383F80115
:1036C000E659FF4F1082118212821382F801E259EB
:1036D000FF4F80839183A283B383F801EE58FF4F9D
:1036E00010821182128213821BC160E871E0C60150
:1036F0000E94E430892B61F460E06801F4E2CF0EAF
:10370000D11CC6010E94EE07C6010E948C0C08C1A4
:1037100061EE71E0C6010E94E430892B61F468011A
:1037200024E2C20ED11CC6010E94480D60E0C60111
:103730000E94EE07F5C06AE370E0C6010E94D9302E
:103740004C01009709F47DCF6CE270E00E94D93003
:103750003C01009709F048C074CF66EE71E0C501E6
:103760000E94E430892B81F4F801EC5AFF4F8081EC
:10377000918194FF09C0C6010E94AA3040E0BC01BB
:10378000C8010E94D616CCC067E072E0C5010E9455
:10379000E430892B09F0C8C020E030E04AE754E467
:1037A000F80166A577A580A991A90E94A82D20E01F
:1037B00030E04AE754E40E94F72E20E030E04AE788
:1037C00054E40E94F72E20E030E04AE754E40E94DF
:1037D000A82D20E030E04AE754E40E94F72E40E0B4
:1037E00050E00E94D6069CC02DB73EB723963FAF4F
:1037F0002EAF23973FEF831A930AC4018C199D09BA
:103800002C0141E0441A5108EDB7FEB7E81BF90B53
:103810000FB6F894FEBF0FBEEDBF2DB73EB72F5FBA
:103820003F4F1901A201B601C9010E94D030F10138
:10383000E40DF51D1082F30111923F01C4010E94B5
:10384000A6304B015C01C3010E94A6302B013C0154
:1038500064E072E0C1010E94E430892B59F4F80160
:10386000E259FF4F80829182A282B382F801EE5822
:10387000FF4F35C06FE671E0C1010E94E430892B33
:1038800059F4F801EA5AFF4F80829182A282B382F2
:10389000F801E65AFF4F23C068EE71E0C1010E94B3
:1038A000E430892B59F4F801E25AFF4F808291826B
:1038B000A282B382F801EE59FF4F11C06CEF71E0A4
:1038C000C1010E94E430892B89F4F801EA59FF4FC5
:1038D00080829182A282B382F801E659FF4F408232
:1038E000518262827382DD24D39401C0D12C23964D
:1038F0002EAD3FAD23970FB6F8943EBF0FBE2DBF40
:1039000011C06DEE71E0C5010E94E430892B01F514
:10391000F701808180FF19C08DE791E00E94D106F8
:10392000DD24D394C12CF7CC6AEE71E0C5010E946E
:10393000E430892B31F720E030E04AE754E4F80125
:1039400066A177A180A591A530CF80E891E0E6CF70
:1039500062EF71E0C5010E94E430892BD9F460E880
:1039600071E0C6010E94E430892B29F4F7018081BF
:1039700091818E7F0CC06DE771E0C6010E94E4303A
:10398000892B09F0C4CCF7018081918181609183FA
:103990008083C6CF86EF91E00E94D10652CE8092FE
:1039A000C6029092C702A092C802B092C902F80162
:1039B00083AD8F9382AD8F9320E030E04AE754E4EB
:1039C00066A577A580A991A90E94A82D20E030E0E6
:1039D0004AE754E40E94F72E20E030E04AE754E43E
:1039E0000E94F72E20E030E04AE754E40E94A82D20
:1039F00020E030E04AE754E40E94F72E0E94152EA2
:103A00007F936F9320E030E04AE754E4F80162A529
:103A100073A584A595A50E94A82D20E030E04AE773
:103A200054E40E94F72E20E030E04AE754E40E947C
:103A3000F72E20E030E04AE754E40E94A82D20E071
:103A400030E04AE754E40E94F72E0E94152E7F933F
:103A50006F9320E030E04AE754E4F80166A177A1D3
:103A600080A591A50E94A82D20E030E04AE754E40B
:103A70000E94F72E20E030E04AE754E40E94F72E3F
:103A800020E030E04AE754E40E94A82D20E030E036
:103A90004AE754E40E94F72E0E94152E7F936F93FD
:103AA000C501B40124E630E040E050E00E94172D4B
:103AB0005F934F933F932F938AE092E09F938F936E
:103AC0001F928FE38F938E010F5F1F4F1F930F93F2
:103AD0000E94F530C8010E94D1062DB73EB72E5E78
:103AE0003F4F0FB6F8943EBF0FBE2DBF47CC29966F
:103AF0004EAD5FAD29970FB6F8945EBF0FBE4DBFB8
:103B0000C85BDF4F0FB6F894DEBF0FBECDBFDF91AD
:103B1000CF911F910F91FF90EF90DF90CF90BF90CA
:103B2000AF909F908F907F906F905F904F903F905D
:103B30002F900895CF93DF93CDB7DEB72C970FB6B4
:103B4000F894DEBF0FBECDBF9C878B878C010C5DC8
:103B50001F4FC8010E9444078B859C850E944F100F
:103B6000C8010E9434072B843C8426E7220E311CB6
:103B70008B859C858C5B9F4F9E838D83EB84FC841F
:103B800092E5E90EF11C8B849C84A8E48A0E911CBA
:103B9000EB85FC85EE5BFF4FF887EF83CB84DC84FD
:103BA000F4E5CF0ED11C8B859C85805C9F4F9A8756
:103BB0008987D1018D919C910E94B4055C012C01F3
:103BC000662457FC6094762CAD81BE818D919D91C9
:103BD0000D90BC91A02D89839A83AB83BC83C801CF
:103BE0000E948F08411451046104710451F0F701DF
:103BF000808184FD06C0D4018D919C91892B09F4AC
:103C00000AC1F6018081918192FF59C069817A8150
:103C10008B819C810E94432EAB85BC855B962C9149
:103C2000222371F00E94102EAB01BC01C8010E943A
:103C30002708F601808191819B7F91838083FBC05F
:103C4000D7012D913C91119722FF03C02B7F2D931B
:103C50003C93E985FA8520813181232BB9F40E94B8
:103C6000102EAB01BC01C8010E942708D6018D911E
:103C70009C9111979B7F8D939C9361E070E0C801AC
:103C80000E946D08C8010E94340793CF8B859C85E4
:103C90000E944F10C8010E943407F7018081918172
:103CA00092FF03C09B7F91838083D7018D919C916C
:103CB000119794FF12C09F7E8D939C930EC0452850
:103CC0004628472851F0F701808186FF06C0AB8562
:103CD000BC855B968C918111AEC0F1018081918190
:103CE0000E94EC055C01009709F46AC005970297F1
:103CF00038F5AB85BC855B968C915B97882321F06A
:103D0000CD010E944F1055CFF7018081918186FF30
:103D100013C084FD04C0C8010E9444070DC0F6E032
:103D2000AF16B10409F045CF8F7ED7018D939C93D8
:103D3000C8010E9444073DCF8B859C850E944F108F
:103D4000F701808184FD2DC0F3E0AF16B10449F581
:103D5000D6018D919C9191FD2EC0C8010E9444070F
:103D6000F101808191810E94EC050497B1F741E057
:103D700060E070E0C8010E940708D7018D919C9116
:103D800011978F7E8D939C9361E070E0F4018081A8
:103D90009181892B11F060E070E0C8010E94190840
:103DA0000AC0F5E0AF16B10431F4D4018D919C91B5
:103DB000892B09F443C0B5018B859C850E94DC14D6
:103DC0008B859C850E94D215AB01BC01C8010E9465
:103DD000AC0B8B859C850E94DB178B859C850E9494
:103DE000D0188B859C850E946310F601808191819B
:103DF00091FF03C09D7F91838083D6018D919C911B
:103E0000119792FF03C09B7F8D939C938B859C851C
:103E10000E941819CECEEF81F8856081C8010E94FA
:103E2000660E9501DC010E94EE2CAB01BC01C801BD
:103E30000E944808E6CE8B859C8563CFC8010E940E
:103E40003C0EB9CF0F931F93CF93DF93EC018B01FF
:103E500061E088E00E945E2261E089E00E945E22CB
:103E600061E088E00E94972261E089E00E94972249
:103E70000E946A0481E00E94800480E00E9489041C
:103E800086E00E948E0448EE53E060E070E08FEB25
:103E900092E00E9486062FEF3FEFA901B8018FEB59
:103EA00092E00E949606CE010E945D0FCE010E9414
:103EB0007E0F60E071EE86E993E00E94ED2386E9D3
:103EC00093E00E94EE23811106C05D9ADF91CF91AD
:103ED0001F910F9108950E940F1918161906ACF73B
:103EE0000E941319F8CF8AEC92E00C94981563E7BE
:103EF0007FE18AEC92E00C94221F8AEC92E00C9411
:103F00009A1D8F92AF92CF92EF920F9384E08F938E
:103F10001F9292E09F9393E09F938F9384E18F93FE
:103F200085E08F9386E08F938DE0882E94E0A92E14
:103F300025E1C22E34E1E32E03E122E14CE06AE008
:103F40008AEC92E00E9487148DB79EB708960FB650
:103F5000F8949EBF0FBE8DBF0F91EF90CF90AF90A2
:103F60008F9008958AEC92E00C94D6141F920F92D1
:103F70000FB60F9211242F933F934F935F936F933C
:103F80007F938F939F93AF93BF93EF93FF93809112
:103F9000830390918403892B29F0E0918303F091AE
:103FA00084030995FF91EF91BF91AF919F918F91FC
:103FB0007F916F915F914F913F912F910F900FBE25
:103FC0000F901F9018951F920F920FB60F92112409
:103FD0002F933F934F935F936F937F938F939F9311
:103FE000AF93BF93EF93FF938091850390918603E6
:103FF000892B29F0E0918503F09186030995FF91C3
:10400000EF91BF91AF919F918F917F916F915F9150
:104010004F913F912F910F900FBE0F901F901895C9
:104020001F920F920FB60F9211242F933F934F932D
:104030005F936F937F938F939F93AF93BF93EF9310
:10404000FF938091870390918803892B29F0E09159
:104050008703F09188030995FF91EF91BF91AF918C
:104060009F918F917F916F915F914F913F912F9190
:104070000F900FBE0F901F9018951F920F920FB6C2
:104080000F9211242F933F934F935F936F937F93DE
:104090008F939F93AF93BF93EF93FF938091890387
:1040A00090918A03892B29F0E0918903F0918A038A
:1040B0000995FF91EF91BF91AF919F918F917F9162
:1040C0006F915F914F913F912F910F900FBE0F9085
:1040D0001F9018951F920F920FB60F9211242F93D5
:1040E0003F934F935F936F937F938F939F93AF9380
:1040F000BF93EF93FF9380918B0390918C03892B57
:1041000029F0E0918B03F0918C030995FF91EF91D9
:10411000BF91AF919F918F917F916F915F914F91DF
:104120003F912F910F900FBE0F901F9018951F93E6
:10413000CF93DF93182FEB0161E00E945E2220975E
:1041400011F460E004C0CF3FD10539F461E0812F64
:10415000DF91CF911F910C949722E12FF0E0E8506E
:10416000FF4F449150E0FA013197EE30F10508F02D
:1041700062C0EA5AFF4F0C94392D84B5806884BD23
:10418000C7BD5EC084B5806284BDC8BD59C0809182
:104190008000806880938000D0938900C09388005D
:1041A0004FC080918000806280938000D0938B000C
:1041B000C0938A0045C080919000806880939000F1
:1041C000D0939900C09398003BC08091900080628A
:1041D00080939000D0939B00C0939A0031C080914F
:1041E0009000886080939000D0939D00C0939C00C5
:1041F00027C08091C00080688093C0008091C0007B
:104200008F7B8093C000C093CF001AC08091C00004
:1042100080628093C000C093D00012C08091C20021
:1042200088608093C2008091C2008B7F8093C2001F
:10423000C093D20005C0C038D1050CF087CF81CF24
:10424000DF91CF911F9108951F920F920FB60F9299
:1042500011242F933F938F939F93AF93BF9380919C
:104260008E0390918F03A0919003B09191033091B0
:104270008D0323E0230F2D3720F40196A11DB11DDE
:1042800005C026E8230F0296A11DB11D20938D03C2
:1042900080938E0390938F03A0939003B093910328
:1042A0008091920390919303A0919403B091950310
:1042B0000196A11DB11D8093920390939303A09347
:1042C0009403B0939503BF91AF919F918F913F91CC
:1042D0002F910F900FBE0F901F9018952FB7F89445
:1042E00060918E0370918F03809190039091910360
:1042F0002FBF08953FB7F894809192039091930354
:10430000A0919403B091950326B5A89B02C02F3FBE
:1043100089F43FBF6627782F892F9A2F620F711D6E
:10432000811D911D42E0660F771F881F991F4A95D6
:10433000D1F708950196A11DB11DEBCFCF92DF9269
:10434000EF92FF92CF93DF936B017C010E947A2161
:10435000EB01C114D104E104F10479F00E947A2147
:104360006C1B7D0B683E7340A0F381E0C81AD10836
:10437000E108F108C851DC4FECCFDF91CF91FF90FD
:10438000EF90DF90CF9008950197009739F0880F54
:10439000991F880F991F02970197F1F70895789454
:1043A00084B5826084BD84B5816084BD85B582603A
:1043B00085BD85B5816085BDEEE6F0E080818160D8
:1043C0008083E1E8F0E010828081826080838081D8
:1043D00081608083E0E8F0E0808181608083E1E9B2
:1043E000F0E0808182608083808181608083E0E969
:1043F000F0E0808181608083E1ECF0E08081846086
:104400008083808182608083808181608083E3EC0F
:10441000F0E0808181608083E0ECF0E08081826068
:104420008083E2ECF0E0808181608083EAE7F0E065
:1044300080818460808380818260808380818160CC
:104440008083808180688083089590E0FC013197AB
:10445000EE30F10590F5EC59FF4F0C94392D809119
:1044600080008F7703C0809180008F7D80938000D3
:10447000089584B58F7702C084B58F7D84BD08957B
:10448000809190008F7707C0809190008F7D03C04E
:1044900080919000877F8093900008958091C00064
:1044A0008F7703C08091C0008F7D8093C0000895F6
:1044B0008091C200877F8093C2000895CF93DF93DD
:1044C00090E0FC01EA5EFE4F2491FC01EC5CFE4FA3
:1044D0008491882349F190E0880F991FFC01E259EB
:1044E000FE4FA591B491805A9E4FFC01C591D49185
:1044F0009FB7611108C0F8948C91209582238C930A
:10450000888182230AC0623051F4F8948C91322F52
:10451000309583238C938881822B888304C0F89400
:104520008C91822B8C939FBFDF91CF9108950F9335
:104530001F93CF93DF931F92CDB7DEB7282F30E0C4
:10454000F901E850FF4F8491F901EA5EFE4F1491A2
:10455000F901EC5CFE4F04910023C9F0882321F09F
:1045600069830E9425226981E02FF0E0EE0FFF1F92
:10457000E05AFE4FA591B4919FB7F8948C916111C8
:1045800003C01095812301C0812B8C939FBF0F9096
:10459000DF91CF911F910F910895CF93DF93282F33
:1045A00030E0F901E850FF4F8491F901EA5EFE4FD7
:1045B000D491F901EC5CFE4FC491CC2391F08111B0
:1045C0000E942522EC2FF0E0EE0FFF1FEE5AFE4F67
:1045D000A591B4912C912D2381E090E021F480E00D
:1045E00002C080E090E0DF91CF9108958091E403D4
:1045F0009091E5032091E6033091E703821B930B32
:104600008F73992708952091E4033091E5038091F9
:10461000E6039091E7032817390749F0E091E60394
:10462000F091E703EC55FC4F808190E008958FEF07
:104630009FEF08952091E4033091E5038091E60314
:104640009091E70328173907A9F0E091E603F0916C
:10465000E703EC55FC4F80812091E6033091E7039E
:104660002F5F3F4F2F7333273093E7032093E603E9
:1046700090E008958FEF9FEF0895CF93DF93C0915F
:10468000E403D091E5032196CF73DD278091E60303
:104690009091E703C817D90799F082E00E94032A96
:1046A0008F3F2FEF920761F0E091E403F091E50373
:1046B000EC55FC4F8083D093E503C093E403DFCF38
:1046C000DF91CF91089583E00C94672C0F931F9393
:1046D000CF93DF931F92CDB7DEB78C0169838091B2
:1046E0001101882359F041E050E0BE016F5F7F4F18
:1046F00083E00E94342A181619063CF081E090E00D
:10470000F8019383828380E090E00F90DF91CF9156
:104710001F910F910895FC0120812E5F208342E4B8
:1047200050E06CE771E080E80C94CF2AFC018181B5
:104730009081913A59F4813209F04BC047E050E042
:104740006AE071E080E00E94CF2A45C0913209F012
:1047500040C0803239F467E070E08AE091E00E9466
:10476000132B39C0823209F034C082818093110149
:1047700080910A0190910B01A0910C01B0910D0163
:10478000803B9440A105B10531F58091110180FD78
:1047900012C087E797E790930108809300082BE009
:1047A00088E190E00FB6F894A895809360000FBE62
:1047B0002093600010C088E10FB6F89480936000E9
:1047C000109260000FBEA895109201081092000888
:1047D00002C080E0089581E008950895CF93C091CC
:1047E00011016AE070E080E090E00E949E2181E08B
:1047F000C11101C080E0CF910895109299031092E9
:10480000980388EE93E0A0E0B0E080939A03909341
:104810009B03A0939C03B0939D0388E792E0909341
:104820009703809396030895FC0124853585F9014B
:10483000E05CFF4F80819181F901EE5BFF4F2081A9
:104840003181821B930B8F7399270895FC01848516
:104850009585FC01E05CFF4F40815181FC01EE5BDE
:10486000FF4F208131814217530741F00190F081C1
:10487000E02DE80FF91F808190E008958FEF9FEF02
:104880000895FC0184859585FC01E05CFF4F408123
:104890005181FC01EE5BFF4F2081318142175307AC
:1048A00079F0A081B181A80FB91F8C91208131814D
:1048B0002F5F3F4F2F7333273183208390E008957C
:1048C0008FEF9FEF0895FC0181A1882329F0A4892F
:1048D000B5898C9186FFFBCF11A20895CF93DF930A
:1048E000FC0126853785D901A05CBF4F8D919C9135
:1048F000119701968F739927E901CE5BDF4F4881AD
:10490000598184179507D9F30D90BC91A02DA20F62
:10491000B31F6C93A685B785A05CBF4F11969C937F
:104920008E93A689B7892C9181E090E0078C02C014
:10493000880F991F0A94E2F7282B2C9381E081A31A
:104940000488F589E02D80818064808381E090E097
:10495000DF91CF91089508951F920F920FB60F9295
:1049600011242F933F934F938F939F93EF93FF9334
:104970008091C80082FD1CC04091CE0080918E04C1
:1049800090918F0401968F73992720919004309114
:1049900091048217930771F0E0918E04F0918F04D7
:1049A000E25BFB4F408390938F0480938E0402C0A0
:1049B0008091CE00FF91EF919F918F914F913F9108
:1049C0002F910F900FBE0F901F90189588EE93E0D7
:1049D0000E941424892B11F00C94AB2408951F928B
:1049E0000F920FB60F9211242F933F938F939F93A3
:1049F000EF93FF9320914A0430914B0480914C0433
:104A000090914D042817390731F48091C9008F7DAA
:104A10008093C90014C0E0914C04F0914D04E65F0E
:104A2000FB4F208180914C0490914D0401968F732F
:104A3000992790934D0480934C042093CE00FF91CE
:104A4000EF919F918F913F912F910F900FBE0F90FB
:104A50001F9018951092EB031092EA0388EE93E0F2
:104A6000A0E0B0E08093EC039093ED03A093EE03FD
:104A7000B093EF038AE892E09093E9038093E80310
:104A80008EE494E09093F5038093F4038AE094E03D
:104A90009093F7038093F6038DEC90E09093F903E5
:104AA0008093F8038CEC90E09093FB038093FA03DF
:104AB00088EC90E09093FD038093FC0389EC90E0F8
:104AC0009093FF038093FE038AEC90E0909301049F
:104AD000809300048EEC90E0909303048093020492
:104AE00084E08093040483E08093050487E080934E
:104AF000060485E08093070481E08093080408950C
:104B0000FF920F931F93CF93DF93EC01F62EE88172
:104B1000F9810480F581E02D09958C01E881F98106
:104B20000680F781E02D6F2DCE010995C8019927E8
:104B3000DF91CF911F910F91FF900895FC0120818B
:104B40002F5F208349E150E06EE372E080E80C942F
:104B5000CF2A45E650E067E572E080E80C94CF2A62
:104B6000EF92FF920F931F93CF93DF931F92CDB7D6
:104B7000DEB789838B017A0141E050E0BE016F5FAF
:104B80007F4F84E00E94342AA701B80184E40E9488
:104B9000342A0F90DF91CF911F910F91FF90EF90EA
:104BA0000895FC0191818081813A31F481E0913056
:104BB00091F0933089F411C0813271F49B3021F46B
:104BC00082818093130105C09A3031F482818093F1
:104BD000120181E00895089580E0089548E050E0D2
:104BE00082E00C94B025CF93DF93DC01683818F095
:104BF000E8E7E60F25C0E62FF0E067FF11C0E058B8
:104C0000F10981E090E001C0880FEA95EAF7149677
:104C10009C911497982B14969C931497E0E010C0E5
:104C2000E254FE4FE491EE2309F440C0E7FF08C0D0
:104C300014968C911497826014968C931497EF7746
:104C400016968C9116978E1741F117968C9117979F
:104C50008E1719F118968C9118978E17F1F01996F6
:104C60008C9119978E17C9F01A968C911A978E17F6
:104C7000A1F01B968C911B978E1779F080E090E045
:104C8000ED01C80FD91F2E81211102C0EE8305C08E
:104C9000019686309105A1F709C0BD016C5F7F4F79
:104CA000CD010E94EE2581E090E008C081E090E017
:104CB00013969C938E93129780E090E0DF91CF91B2
:104CC0000895683818F0E8E7E60F25C0E62FF0E011
:104CD00067FF12C0E058F10921E030E001C0220F67
:104CE000EA95EAF72095DC0114963C91149732235B
:104CF00014963C93E0E00FC0E254FE4FE491EE23A3
:104D000029F1E7FF08C0DC0114962C9114972D7F40
:104D100014962C93EF7720E030E0EE2351F0DC0185
:104D2000A20FB31F16964C9116974E1302C01696FB
:104D30001C922F5F3F4F2630310579F7BC016C5F25
:104D40007F4F0E94EE2581E090E0089580E090E0A2
:104D50000895FC011682178210861186128613862A
:104D60001482BC016C5F7F4F0C94EE2510929E0460
:104D700010929504109294048AE992E0909393041F
:104D8000809392040895AF92BF92CF92DF92EF92F8
:104D9000FF920F931F93CF93DF936C017B01C0E0D1
:104DA000D0E000E010E0F601EC0FFD1F4AE050E01B
:104DB0006281C7010E942A285C016EE2C7010E943D
:104DC0005F278A0D9B1D080F191F2196C330D1053F
:104DD00051F74AE050E0F6016581C7010E942A2898
:104DE000800F911FDF91CF911F910F91FF90EF9056
:104DF000DF90CF90BF90AF90089588EA92E09093B3
:104E0000A00480939F041092A1041092A204109217
:104E1000A3041092A40408950E94CF218CEA94E088
:104E20000E94712C0E94771FC6EED4E20E947D1F63
:104E30002097E1F30E94E624F9CF0C947F2FCF92C4
:104E4000DF92EF92FF920F931F93CF93DF936C014A
:104E50007A01EB01E60EF71E00E010E0CE15DF054B
:104E600061F06991D601ED91FC910190F081E02D06
:104E7000C6010995080F191FF1CFC801DF91CF9125
:104E80001F910F91FF90EF90DF90CF9008956115E3
:104E9000710581F0DB010D900020E9F7AD01415073
:104EA0005109461B570BDC01ED91FC910280F38107
:104EB000E02D099480E090E008950C944727DC01F0
:104EC000ED91FC910190F081E02D09940F931F93D7
:104ED000CF93DF93EC016DE00E945F278C016AE0C5
:104EE000CE010E945F27800F911FDF91CF911F910C
:104EF0000F9108958F929F92AF92BF92CF92DF92BF
:104F0000EF92FF920F931F93CF93DF93CDB7DEB74E
:104F1000A1970FB6F894DEBF0FBECDBF7C01C42EA3
:104F2000E52FCB01D22E19A221E02D1510F02AE099
:104F3000D22E8E010F5D1F4F8D2C912CA12CB12CE8
:104F40006C2D7E2FA50194010E94172D8C2DD29ED1
:104F500080191124015011098A3014F4805D01C0B8
:104F6000895CF8018083211531054105510521F047
:104F7000C22EE32FCA01E4CFB801C7010E94472720
:104F8000A1960FB6F894DEBF0FBECDBFDF91CF91D3
:104F90001F910F91FF90EF90DF90CF90BF90AF9057
:104FA0009F908F900895CF92DF92EF92FF920F9390
:104FB0001F93CF93DF93EC016A017B01211531052B
:104FC00079F4E881F9810190F081E02D642FDF917F
:104FD000CF911F910F91FF90EF90DF90CF900994A8
:104FE0002A303105E9F477FF1AC06DE20E945F278D
:104FF0008C0144275527BA014C195D096E097F09B8
:105000002AE0CE010E947A27800F911FDF91CF9175
:105010001F910F91FF90EF90DF90CF9008952AE0BD
:10502000B701A601CE01DF91CF911F910F91FF90A3
:10503000EF90DF90CF900C947A272115310541F441
:10504000DC01ED91FC910190F081E02D642F099439
:105050000C947A279A01462F50E060E070E00C949F
:105060001D289A01AB0160E070E00C941D284F925E
:105070005F926F927F928F929F92AF92BF92CF92E8
:10508000DF92EF92FF920F931F93CF93DF93EC0188
:105090006A017B01B22E9A01AB01C701B6010E94E1
:1050A0005A2F882319F06AEA72E027C026013701D7
:1050B000E89477F82FEF3FEF4FE75FE7C301B201C6
:1050C0000E945A2F81110DC02FEF3FEF4FE75FE78E
:1050D000C301B2010E94A42D18161CF46EEA72E0FE
:1050E0000CC02FEF3FEF4FE75FE4C701B6010E940E
:1050F000F32E1816ACF462EB72E0CE01DF91CF9183
:105100001F910F91FF90EF90DF90CF90BF90AF90E5
:105110009F908F907F906F905F904F900C94472757
:105120002FEF3FEF4FE75FECC701B6010E94A42DC0
:1051300087FDE1CF20E030E0A901C701B6010E9460
:10514000A42D87FF0AC06DE2CE010E945F278C016B
:10515000F7FAF094F7F8F09402C000E010E0A12C08
:1051600060E070E080E09FE3AB1441F020E030E0CD
:1051700040E251E40E94A82DA394F6CF9B01AC011C
:10518000C701B6010E94402D6B017C010E94152EC3
:105190002B013C010E94412E9B01AC01C701B601CD
:1051A0000E943F2D6B017C012AE0B301A201CE01D8
:1051B0000E947A27080F191FBB2039F066EB72E0B6
:1051C000CE010E944727080F191F7B2C772041F141
:1051D00020E030E040E251E4C701B6010E94F72E22
:1051E0006B017C010E94102E4B01AA2497FCA09415
:1051F000BA2C2AE030E0B501A401CE010E94D327E9
:10520000080F191FC501B4010E94432E9B01AC0178
:10521000C701B6010E943F2D6B017C017A94D6CF65
:10522000C801DF91CF911F910F91FF90EF90DF9018
:10523000CF90BF90AF909F908F907F906F905F9036
:105240004F9008950C9437280F931F93CF93DF93BB
:10525000EC010E9437288C01CE010E946627800F46
:10526000911FDF91CF911F910F9108951F920F927F
:105270000FB60F9211242F933F938F939F93AF9369
:10528000BF93EF93FF938091A8049091A904A091FC
:10529000AA04B091AB04892B8A2B8B2B51F19091EE
:1052A000A504E091A604F091A7048081892780835A
:1052B0008091A8049091A904A091AA04B091AB0494
:1052C000181619061A061B0624F58091A804909159
:1052D000A904A091AA04B091AB040197A109B10956
:1052E0008093A8049093A904A093AA04B093AB045C
:1052F00010C0109271002091A504E091A604F091D5
:10530000A704808190E030E020953095822393239C
:105310008083FF91EF91BF91AF919F918F913F91CA
:105320002F910F900FBE0F901F901895615030F085
:105330002091F100FC0120830196F8CF289884E6A3
:105340008093B30408952FB7FC012083F89467700D
:105350006093E9000895CF93DF931F92CDB7DEB736
:10536000682FCE0101960E94A3298091F2009981B5
:105370009FBF0F90DF91CF910895FF920F931F93DE
:10538000CF93DF9300D0CDB7DEB7F62E8A01909190
:10539000B204992311F057FF03C08FEF9FEF2BC08A
:1053A000682FCE0101967A830E94A3298091F20092
:1053B00090E0A8017A81801791070CF4AC01EF2DE1
:1053C000F72FF40E84E6FE1639F028988093B30484
:1053D0009091F1009193F7CF4115510521F0809103
:1053E000F200882321F089818FBFCA0104C08BE6B7
:1053F0008093E800F8CF0F900F90DF91CF911F912D
:105400000F91FF900895CF93DF931F92CDB7DEB732
:1054100041E050E0BE016F5F7F4F0E94BD290197C0
:1054200019F4898190E002C08FEF9FEF0F90DF9118
:10543000CF910895CF93DF931F92CDB7DEB7682F3A
:10544000CE0101960E94A3299091E800892F8072D5
:1054500095FF04C09091F20080E4891B99819FBF61
:105460000F90DF91CF9108954F925F926F927F924C
:105470008F929F92AF92BF92CF92DF92EF92FF9264
:105480000F931F93CF93DF931F92CDB7DEB7582EA4
:105490007B01A42E952E8091B204882369F0042FFD
:1054A000152F8AEFB82E852D8072782E9AE3892EDB
:1054B000852D8074682E11C08FEF9FEF53C0852D0E
:1054C0000E941A2A482E81110CC0BA94A9F361E0F7
:1054D00070E080E090E00E949E210115110579F7AF
:1054E00037C0282F30E0021713070CF4402EC42CCD
:1054F000D12C0C191D09652DCE0101960E94A329FE
:10550000772039F04A948FEF4816B1F01092F100ED
:10551000F9CFF701842D57FE07C0815058F09491C0
:105520009093F1003196F9CF815020F091919093B2
:10553000F100FACFEC0CFD1C8091E80085FF0FC054
:105540000115110511F461100AC089818FBFC5CF03
:105550005D9884E68093B4048A2D992D03C08092CF
:10556000E800F3CF0F90DF91CF911F910F91FF9043
:10557000EF90DF90CF90BF90AF909F908F907F90F3
:105580006F905F904F9008951092E9001092B104CF
:105590001092B0049093AF048093AE040895CF931B
:1055A000DF93FB0120E030E0DEEF24173507A1F1A7
:1055B00087FF02C0C49101C0C081A091B004B09126
:1055C000B1046091AE047091AF04A617B707B4F4AC
:1055D0009091E8009570E1F39091E80092FD1EC073
:1055E000C093F1006091B0047091B1046F5F7F4F80
:1055F0006F737727672B11F4D093E8006091B004A4
:105600007091B1046F5F7F4F7093B1046093B004E9
:105610002F5F3F4F3196C9CFC90102C08FEF9FEF77
:10562000DF91CF9108951F93CF93DF931F92CDB752
:10563000DEB7162F2091E80022FFFCCF612F79837F
:105640000E9496298BEF8093E800812F7981972F14
:105650000F90DF91CF911F910895CF93DF931F9209
:10566000CDB7DEB71982CE0101960E948B23CE0101
:1056700001960E949E25898190E00F90DF91CF9145
:1056800008951F920F920FB60F921124EF92FF927E
:105690000F931F932F933F934F935F936F937F933A
:1056A0008F939F93AF93BF93EF93FF93CF93DF932A
:1056B000CDB7DEB76297DEBFCDBF1092E900809113
:1056C000E80083FFE7C068E0CE010A960E949629B1
:1056D00082EF8093E8009A8597FF05C08091E800EB
:1056E00080FFFCCF03C08EEF8093E800892F807687
:1056F00009F0B5C08B85811105C01092F1001092A0
:10570000F100C1C0282F2D7F213009F4BCC08530A5
:1057100049F48091E80080FFFCCF8C8580688093FD
:10572000E300B1C0863009F072C02D85E888F988A1
:10573000223071F580E090E02A8B0E94C42A0E94FA
:105740002D2B99E08E010F5F1F4FF801392F119219
:105750003A95E9F799832A892A8391E09E8390E814
:1057600098879AEF99872091B0043091B104275F10
:105770003F4F3C832B838D83C7010E94C42A49E09D
:1057800050E0B80180E00E94CF2A0E942D2B7BC000
:10579000C7012A8B0E94C42A2A89223241F482E25C
:1057A00090E00E94A925892B09F06DC070C02130BE
:1057B00069F488899989089711F42093AD04809140
:1057C000AD04882389F061EC72E016C0233009F043
:1057D0005EC08C85882359F0823061F0813009F0F9
:1057E00056C065EE72E008C063ED72E005C06FE17F
:1057F00073E002C06DEF72E06115710509F447C0F6
:10580000FB01449150E080E80E94CF2A3CC08730E1
:1058100009F43DC0883021F481E08093F10033C069
:10582000893089F5937099F5EDEBF2E081E021E0A4
:1058300096E38093E9002093EB0034913093EC00E1
:105840009093ED008F5F3196853099F78EE78093C6
:10585000EA001092EA008C858093B20414C0888913
:1058600099890E94C42A8E85811105C0CE010A96AD
:105870000E94962306C0823051F4CE010A960E94FF
:10588000D125882321F08EEF8093E80003C081E2C8
:105890008093EB0062960FB6F894DEBF0FBECDBFCB
:1058A000DF91CF91FF91EF91BF91AF919F918F9138
:1058B0007F916F915F914F913F912F911F910F9128
:1058C000FF90EF900F900FBE0F901F901895809350
:1058D000E9008091F200882319F08AE38093E800C0
:1058E00008951092B20481E08093D70080EA8093FB
:1058F000D80082E189BD09B400FEFDCF61E070E00F
:1059000080E090E00E949E2180E98093D8008CE0A6
:105910008093E2001092E000559A209A08951F9219
:105920000F920FB60F9211242F933F934F935F93D3
:105930006F937F938F939F93AF93BF93EF93FF9357
:105940008091E1001092E10083FF0FC01092E90006
:1059500091E09093EB001092EC0092E39093ED00B5
:105960001092B20498E09093F00082FF26C083E08A
:105970000E94672C82E00E94AB29882321F086E9EF
:1059800093E00E943D238091B404882339F08091F4
:10599000B40481508093B404882369F08091B304E7
:1059A000882359F08091B30481508093B30481110E
:1059B00004C0289A02C05D9AF1CFFF91EF91BF9188
:1059C000AF919F918F917F916F915F914F913F9197
:1059D0002F910F900FBE0F901F9018950E94F62CDC
:1059E000332312F48A1B9B0B0C94072DA29FB0014A
:1059F000B39FC001A39F700D811D1124911DB29F03
:105A0000700D811D1124911D08950E94F62CB7FF81
:105A10000895821B930B08950E94F62CA59F900D6C
:105A2000B49F900DA49F800D911D11240895A1E2B3
:105A30001A2EAA1BBB1BFD010DC0AA1FBB1FEE1F08
:105A4000FF1FA217B307E407F50720F0A21BB30B53
:105A5000E40BF50B661F771F881F991F1A9469F7CF
:105A600060957095809590959B01AC01BD01CF012B
:105A70000895EE0FFF1F0590F491E02D0994505802
:105A8000BB27AA270ED075C166D130F06BD120F0AC
:105A900031F49F3F11F41EF45BC10EF4E095E7FB77
:105AA00051C1E92F77D180F3BA17620773078407D2
:105AB000950718F071F49EF58FC10EF4E0950B2E4A
:105AC000BA2FA02D0B01B90190010C01CA01A00150
:105AD0001124FF27591B99F0593F50F4503E68F1AB
